:020000040800F2
:100000003004002045010008090B000879060008AB
:10001000050B0008B9010008831600080000000065
:10002000000000000000000000000000E90C0008D3
:100030004103000800000000910B0008D50D0008E6
:100040005F0100085F0100085F0100085F01000810
:100050005F0100085F0100085F0100085F01000800
:100060005F0100085F0100085F010008C10100088E
:10007000E101000801020008210200084102000815
:1000800061020008810200085F0100085F010008AA
:100090005F0100085F0100085F0100085F010008C0
:1000A0005F0100085F0100085F0100085F010008B0
:1000B0005F0100085F0100085F0100085F010008A0
:1000C0005F0100085F0100085F0100085F01000890
:1000D0005F010008390E0008ED0E00085F010008FE
:1000E0005F0100085F0100085F0100085F01000870
:1000F0005F0100085F0100085F0100085F01000860
:100100005F0100085F0100085F0100085F0100084F
:100110005F0100085F0100085F0100085F0100083F
:10012000A1020008C1020008E5020008050300085A
:10013000DFF80CD000F02EF80048004785180008C2
:10014000300400200648804706480047FEE7FEE7E7
:10015000FEE7FEE7FEE7FEE7FEE7FEE7FEE7FEE777
:10016000D90D00083101000830B50B4601460020CA
:100170002022012409E021FA02F59D4205D303FA69
:1001800002F5491B04FA02F52844151EA2F10102EA
:10019000F1DC30BD064C074D06E0E06840F001039D
:1001A00094E8070098471034AC42F6D3FFF7C4FF39
:1001B0000C2C00082C2C000800BFFEE77047000044
:1001C00010B50548006800F00F040348446020465D
:1001D000FFF7F4FF10BD0000000002407047000070
:1001E00010B505480068C0F30314200102494860B7
:1001F0002046FFF7F3FF10BD0000024070470000EB
:1002000010B505480068C0F3032420020249486085
:100210002046FFF7F3FF10BD0000024070470000CA
:1002200010B505480068C0F3033420030249486054
:100230002046FFF7F3FF10BD0000024070470000AA
:1002400010B505480068C0F3034420040249486023
:100250002046FFF7F3FF10BD00000240704700008A
:1002600010B505480068C0F30354200502494860F2
:100270002046FFF7F3FF10BD00000240704700006A
:1002800010B505480068C0F30364200602494860C1
:100290002046FFF7F3FF10BD00000240704700004A
:1002A00010B50548006800F00F040348001D046005
:1002B0002046FFF7F3FF10BD000402407047000026
:1002C00010B506480068C0F3031420010349091D56
:1002D00008602046FFF7F2FF10BD00000004024056
:1002E0007047000010B506480068C0F303242002E0
:1002F0000349091D08602046FFF7F2FF10BD00000A
:100300000004024010B50C480068C0F3033434B157
:1003100020030949091D0860204600F00FF806482F
:100320000068C0F3034434B120040349091D086088
:10033000204600F004F810BD0004024070477047EA
:100340007047000008B501210D2000F043FC012199
:10035000092000F03FFC0121254800F041F901216E
:10036000244800F03DF9244800F04AF81F20ADF879
:10037000000010208DF8030003208DF8020069466C
:100380001D4800F0A1F81D4800F03AF80420ADF82F
:10039000000003208DF8020018208DF80300694644
:1003A000164800F091F80820ADF8000004208DF800
:1003B00003006946114800F087F84FF40070ADF86B
:1003C000000003208DF8020018208DF80300694614
:1003D0000A4800F079F84FF48060ADF8000004207E
:1003E0008DF803006946054800F06EF808BD00006E
:1003F0000004300000023000000C01400008014001
:1004000010B504462948844208D10121042000F097
:10041000F1FB0021042000F0EDFB46E0244884427B
:1004200008D10121082000F0E5FB0021082000F0A0
:10043000E1FB3AE01F48844208D10121102000F07E
:10044000D9FB0021102000F0D5FB2EE01A48844291
:1004500008D10121202000F0CDFB0021202000F058
:10046000C9FB22E01548844208D10121402000F058
:10047000C1FB0021402000F0BDFB16E01048844283
:1004800008D10121802000F0B5FB0021802000F080
:10049000B1FB0AE00B48844207D10121801500F02E
:1004A000A9FB0021A01500F0A5FB10BD000801402C
:1004B000000C0140001001400014014000180140F0
:1004C000001C0140002001402DE9F04102460025BA
:1004D0000026002000230024002791F803C00CF020
:1004E0000F0591F803C00CF0100CBCF1000F03D005
:1004F00091F802C04CEA050591F800C0BCF1000F6C
:1005000031D0146800202BE04FF0010C0CFA00F3FE
:10051000B1F800C00CEA03069E4220D183004FF0E0
:100520000F0C0CFA03F7BC4305FA03FC4CEA040475
:1005300091F803C0BCF1280F06D14FF0010C0CFA62
:1005400000FCC2F814C00AE091F803C0BCF1480FE7
:1005500005D14FF0010C0CFA00FCC2F810C0401C91
:100560000828D1D31460B1F800C0BCF1FF0F34DD0E
:10057000546800202EE000F1080C4FF0010808FA42
:100580000CF3B1F800C00CEA03069E4221D18300AF
:100590004FF00F0C0CFA03F7BC4305FA03FC4CEACE
:1005A000040491F803C0BCF1280F05D100F1080C38
:1005B00008FA0CF8C2F8148091F803C0BCF1480F97
:1005C00007D100F1080C4FF0010808FA0CF8C2F846
:1005D0001080401C0828CED35460BDE8F081000094
:1005E000F0B50A46002300240021002500F0004653
:1005F000B6F1004F02D11D4EF16901E01B4E71684A
:10060000C0F3034583B200F44016B6F5401F08D18D
:1006100021F07061154E766826F07066134F7E608B
:1006200012E000F48016B6F5801F06D1032606FA04
:1006300005F4A14341F0706106E0460D360103FA6E
:1006400006F6B14341F0706122B1460D360103FA5E
:1006500006F6314300F00046B6F1004F02D1034EDA
:10066000F16101E0014E7160F0BD00000000014049
:10067000416170470161704700BFFEE709E040F249
:10068000375100BF0A1EA1F1010399B2FAD1421EEF
:1006900090B20028F3D1704770B50646002415E0EB
:1006A00004F1B001C8B200F0D9F9012000F0D6F988
:1006B000102000F0D3F9002504E0304600F0F8F9EE
:1006C000681CC5B2802DF8DB601CC4B2082CE7DBC7
:1006D00070BD000010B502213448FFF7CBFF0821A0
:1006E0003248FFF7C5FF3220FFF7C8FF08212F4827
:1006F000FFF7C0FFAE2000F0B1F9002000F0AEF926
:10070000102000F0ABF9402000F0A8F9812000F0A3
:10071000A5F9CF2000F0A2F9A12000F09FF9C82090
:1007200000F09CF9A62000F099F9A82000F096F9B5
:100730003F2000F093F9D32000F090F9002000F062
:100740008DF9D52000F08AF9802000F087F9D920B2
:1007500000F084F9F12000F081F9DA2000F07EF950
:10076000122000F07BF9DB2000F078F9402000F047
:1007700075F9202000F072F9022000F06FF98D2049
:1007800000F06CF9142000F069F9A42000F066F97B
:10079000A62000F063F9AF2000F060F90020FFF719
:1007A0007BFF0021084600F043F910BD000C01401A
:1007B0002DE9F05F82460F4690469946DDF828B055
:1007C0000024002501266CE00024012611E019F820
:1007D000040018F80510884209D109EB040040789C
:1007E00008EB05014978884201D1260105E0A01CEB
:1007F000C4B219F804007F28E9DC00BFBAF1760F13
:1008000003DD4FF0000A781CC7B23946504600F0AD
:100810000FF9012E22D03946504600F009F9002484
:1008200007E01BF8060000F043F9701C86B2601C5C
:10083000C4B2102CF5DB07F10800C1B2504600F03D
:10084000F7F8002407E01BF8060000F031F9701CEF
:1008500086B2601CC4B2102CF5DB1CE0681CC5B26B
:100860003946504600F0E4F8002404E0002000F08F
:100870001FF9601CC4B2102CF8DB781CC1B25046C2
:1008800000F0D6F8002404E0002000F011F9601C0C
:10089000C4B2102CF8DB0AF1100000F0FF0AA81C0B
:1008A000C5B218F8050000288ED1BDE8F09F2DE9EB
:1008B000F04704468846154699464FF0000A002640
:1008C00000271FE0E85D203800F0FF0A7E2C04DDE1
:1008D000002408F1010000F0FF084146204600F026
:1008E000A7F8002608E00AEB4A0109EB4101885D00
:1008F00000F0DEF8701CC6B2062EF4DBA01DC4B2F8
:10090000781CC7B2E85D0028DCD1BDE8F0872DE98E
:10091000F04706460F469046994600250024A24619
:1009200030E018F80A002038C5B2782E02DD002623
:10093000781CC7B23946304600F07AF8002406E049
:1009400009EB0511085D00F0B3F8601CC4B2082C77
:10095000F6DB07F10800C1B2304600F069F8002468
:1009600007E009EB05112144087A00F0A1F8601CAA
:10097000C4B2082CF5DB06F10800C6B20AF101008A
:1009800000F0FF0A18F80A000028CAD1BDE8F08775
:100990002DE9FC4706468846154699460A9F0024DD
:1009A00038E0285D7F2817DD285D8DF804002819C0
:1009B00040788DF8050000208DF806001848194B86
:1009C00001AA414600903046FFF7F2FE06F1100002
:1009D000C6B2A01CC4B21DE0285D8DF80400002042
:1009E0008DF80500012F09D10F4B01AA4146304671
:1009F000FFF78DFF06F10800C6B209E0032F07D10B
:100A00000A4B01AA41463046FFF751FFB01DC6B25E
:100A1000601CC4B2285D0028C3D1BDE8FC8700007B
:100A2000791C0008E01B0008F9250008B819000827
:100A300070B504460D46B02101EBE501C8B200F0E7
:100A40000DF8102141EA141000F008F804F00F012D
:100A500041F0010000F002F870BD000070B50446DE
:100A6000082510211148FFF703FE02210F48FFF768
:100A7000FFFD15E004F0800020B101210B48FFF7D5
:100A8000F9FD03E001210948FFF7F2FD02210748C3
:100A9000FFF7F0FD02210548FFF7EAFD6006040EAE
:100AA000281EA5F10101CDB2E4D170BD000C0140BA
:100AB00070B50446082510211148FFF7DBFD02211F
:100AC0000F48FFF7D5FD15E004F0800020B10121AB
:100AD0000B48FFF7CFFD03E001210948FFF7C8FDF0
:100AE00002210748FFF7C6FD02210548FFF7C0FDB8
:100AF0006006040E281EA5F10101CDB2E4D170BD3F
:100B0000000C014000BFFEE77047000070B50021F7
:100B100000230F22C47804B3154C246804F4E06465
:100B2000C4F5E064210AC1F10403CA40447804FA20
:100B300003F184781440214309010E4C0678A15535
:100B4000047804F01F050124AC4005786D11AD0058
:100B500005F1E025C5F8004109E0047804F01F051F
:100B60000124AC40044D0678761145F8264070BD4E
:100B70000CED00E000E400E080E100E00249014308
:100B8000024A1160704700000000FA050CED00E019
:100B90007047000029B1064AD2690243044BDA616A
:100BA00004E0034AD2698243014BDA6170470000D6
:100BB0000010024029B1064A12690243044B1A612F
:100BC00004E0034A12698243014B1A617047000036
:100BD0000010024029B1064A92690243044B9A610F
:100BE00004E0034A92698243014B9A617047000016
:100BF0000010024029B1064AD2680243044BDA6071
:100C000004E0034AD2688243014BDA607047000077
:100C10000010024030B500210022002400232D4D99
:100C20006D6805F00C0121B1042905D0082923D1F4
:100C300005E0294D056022E0274D05601FE0254DA8
:100C40006D6805F47012234D6D6805F4803402253B
:100C500005EB92421CB9214D554305600BE01D4D3B
:100C60006D6805F400351DB11C4D5543056002E06B
:100C7000194D5543056002E0174D056000BF00BFE8
:100C8000144D6D6805F0F0010909154D6B5C0568A0
:100C9000DD4045600F4D6D6805F4E061090A104DB7
:100CA0006B5C4568DD4085600A4D6D6805F46051F8
:100CB000C90A0B4D6B5C4568DD40C560054D6D682C
:100CC00005F44041890B074D6B5CC568B5FBF3F536
:100CD000056130BD0010024000127A0000093D009D
:100CE0000200002012000020704710B500F002F84A
:100CF00010BD00000CB50020019000903348006842
:100D000040F480303149086000BF3048006800F48A
:100D1000003000900198401C0190009818B901988B
:100D2000B0F5A06FF1D12948006800F4003010B18F
:100D30000120009001E0002000900098012843D19C
:100D40002348006840F01000214908600846006808
:100D500020F0030008600846006840F002000860C8
:100D60001A48406819494860084640684860084683
:100D7000406840F4806048600846406820F47C1079
:100D800048600846406840F4E8104860084600683B
:100D900040F08070086000BF0C48006800F00070F0
:100DA0000028F9D00948406820F00300074948604E
:100DB0000846406840F00200486000BF03484068B1
:100DC00000F00C000828F9D10CBD00000010024012
:100DD000002002407047000010B51348006840F042
:100DE00001001149086008464068104908400E4952
:100DF0004860084600680E4908400B4908600846EC
:100E0000006820F4802008600846406820F4FE0056
:100E100048604FF41F008860FFF767FF4FF00060E5
:100E20000449086010BD0000001002400000FFF8F7
:100E3000FFFFF6FE08ED00E010B540F22551054831
:100E400000F05BFB20B140F22551024800F0CEFAE1
:100E500010BD00000038014000B587B001218803B3
:100E6000FFF7B8FE204800F0EDFA4FF496400390EB
:100E70000020ADF81000ADF81200ADF81400ADF888
:100E800018000C20ADF8160003A9174800F084FBE9
:100E90000020ADF80400ADF80600ADF80800ADF88C
:100EA0000A0001A9104800F0B0FA012240F22551D1
:100EB0000D4800F04CFB01210B4800F0B7FA4FF44D
:100EC000A060FFF75BFE25208DF8000001208DF863
:100ED000010003208DF8020001208DF80300684610
:100EE000FFF714FE07B000BD0038014010B540F216
:100EF0002551104800F001FBD0B10E4800F0B8FBBE
:100F00000D490E4A127821F812000C480078401C56
:100F10000A49087008460078092804D100200870A2
:100F200001200749087040F22551024800F05EFA9E
:100F300010BD0000004400401C0000200100002003
:100F40000000002000B587B001214804FFF722FE11
:100F5000204800F077FA4FF4165003900020ADF8C7
:100F60001000ADF81200ADF81400ADF818000C2018
:100F7000ADF8160003A9174800F00EFB0020ADF8ED
:100F80000400ADF80600ADF80800ADF80A0001A9AC
:100F9000104800F03AFA012240F225510D4800F0C5
:100FA000D6FA01210B4800F041FA4FF4A060FFF798
:100FB000E5FD26208DF8000001208DF801000320BA
:100FC0008DF8020001208DF803006846FFF79EFDB2
:100FD00007B000BD0044004010B5044600BF4021EA
:100FE000044800F07DFA0128F9D12146014800F0BB
:100FF00044FB10BD004400402DE9F84FFF20FFF7EF
:10100000EBFF0120FFF7E8FF8620FFF7E5FF002058
:10101000FFF7E2FF0020FFF7DFFF0020FFF7DCFF14
:101020000020FFF7D9FF0020FFF7D6FF7920FFF758
:10103000D3FF4FF4FA7000F0F1FBDA48007860B1AA
:10104000D948808800F0FF08D748C08800F0FF0A20
:101050000AEB08240020D34908704FF47A7094FBFF
:10106000F0F505EB4500C0EBC510A4EBC000642112
:1010700090FBF1F605EB4500C0EBC510A4EBC000FA
:1010800006EBC60101EB0611A0EB81000A2190FBE3
:10109000F1F705EB4500C0EBC510A4EBC00006EB73
:1010A000C60101EB0611A0EB810007EB8701A0EB65
:1010B0004109062D3AD2DFE805F0030C151E273052
:1010C00001200223B9A2002100904020FFF760FC1C
:1010D0002CE001200223B6A2002100904020FFF75F
:1010E00057FC23E001200223B2A2002100904020FF
:1010F000FFF74EFC1AE001200223AFA2002100906E
:101100004020FFF745FC11E001200223ABA20021A3
:1011100000904020FFF73CFC08E001200223A8A239
:10112000002100904020FFF733FC00BF00BF0A2ED3
:1011300060D2DFE806F0050E172029323B444D56F9
:101140000120022399A2002100904820FFF720FCF3
:1011500050E00120022396A2002100904820FFF7D2
:1011600017FC47E00120022392A2002100904820B2
:10117000FFF70EFC3EE0012002238FA20021009029
:101180004820FFF705FC35E0012002238BA2002157
:1011900000904820FFF7FCFB2CE00120022388A2EE
:1011A000002100904820FFF7F3FB23E001200223F9
:1011B00084A2002100904820FFF7EAFB1AE00120FA
:1011C000022381A2002100904820FFF7E1FB11E0FB
:1011D000012002237DA2002100904820FFF7D8FBC8
:1011E00008E0012002237AA2002100904820FFF7A6
:1011F000CFFB00BF00BF0A2F60D2DFE807F0050E6B
:10120000172029323B444D560120022367A20021BA
:1012100000905020FFF7BCFB50E00120022364A2A5
:10122000002100905020FFF7B3FB47E0012002238C
:1012300060A2002100905020FFF7AAFB3EE00120B1
:1012400002235DA2002100905020FFF7A1FB35E0B2
:101250000120022359A2002100905020FFF798FBA3
:101260002CE00120022356A2002100905020FFF71D
:101270008FFB23E00120022352A200210090502086
:10128000FFF786FB1AE0012002234FA20021009005
:101290005020FFF77DFB11E0012002234BA200212B
:1012A00000905020FFF774FB08E00120022348A2C1
:1012B000002100905020FFF76BFB00BF00BFB9F189
:1012C0000A0F60D2DFE809F0050E172029323B44EF
:1012D0004D560120022335A2002100905820FFF72F
:1012E00057FB50E00120022331A20021009058203A
:1012F000FFF74EFB47E0012002232EA200210090C1
:101300005820FFF745FB3EE0012002232AA20021DE
:1013100000905820FFF73CFB35E00120022327A274
:10132000002100905820FFF733FB2CE0012002231E
:1013300023A2002100905820FFF72AFB23E0012080
:10134000022320A2002100905820FFF721FB1AE081
:10135000012002231CA2002100905820FFF718FB57
:1013600011E00120022319A2002100905820FFF76C
:101370000FFB08E00120022315A200210090582055
:10138000FFF706FB00BF00BF0120022311A20021CE
:1013900000906020FFF7FCFA21460FA000F074F9DE
:1013A000BDE8F88F000000201C0000203000000085
:1013B0003100000032000000330000003400000063
:1013C0003500000036000000370000003800000043
:1013D0003900000070706D000D0A434F32C5A8B689
:1013E000C8CEAA3A256470706D0D0A0010B50022AF
:1013F000002340F66A14A14200D100BF0A12012462
:101400009440A3B2DC43048010BD10B50246002016
:10141000108A4FF2FF0318400B884C8823438C88B6
:101420002343CC8823431843108210BD21B1828905
:1014300042F40052828104E082894DF6FF731A4023
:101440008281704710B504462048844209D10121A9
:101450008803FFF7CFFB00214FF48040FFF7CAFB62
:1014600032E01B48844209D101214804FFF7A2FB66
:1014700000214FF40030FFF79DFB25E01548844222
:1014800009D101218804FFF795FB00214FF480204A
:10149000FFF790FB18E01048844209D10121C804ED
:1014A000FFF788FB00214FF40020FFF783FB0BE0E0
:1014B0000A48844208D101210805FFF77BFB00217F
:1014C0004FF48010FFF776FB10BD0000003801409C
:1014D0000044004000480040004C004000500040E4
:1014E00002460020B1F5007F00D100BF13880B40F9
:1014F0000BB1012000E00020704770B502460024C7
:1015000000230025002040F66A16B14200D100BF3A
:10151000C1F3421501F01F03012606FA03F3012D62
:1015200002D19689334006E0022D02D1168A33405B
:1015300001E0968A33400C12012606FA04F416885C
:10154000344013B10CB1012000E0002070BDF0B5B3
:101550000346002400260025002040F66A17B94201
:1015600000D100BF1846C1F3421401F01F06012745
:1015700007FA06F5012C01D10C3004E0022C01D150
:10158000103000E014301AB107682F43076002E002
:101590000768AF430760F0BD2DE9F04786B0054608
:1015A0000E460024A24600BFA1460027B08900B124
:1015B00000BF2F462C8A4CF6FF700440F08804438D
:1015C0002C82AC894EF6F3100440B0883189084370
:1015D000718908430443AC81AC8A4FF6FF40044054
:1015E000B0890443AC8201A8FFF714FB1F4887426F
:1015F00002D1DDF810A001E0DDF80CA0A88900F40C
:10160000004040B10AEBCA0000EB0A103168490003
:10161000B0FBF1F807E00AEBCA0000EB0A103168F2
:101620008900B0FBF1F86420B8FBF0F00401200958
:10163000642101FB1089A88900F4004040B13220E8
:1016400000EBC900B0FBF1F000F00700044308E034
:10165000322000EB09106421B0FBF1F000F00F0024
:1016600004432C8106B0BDE8F0870000003801403B
:1016700001468888C0F308007047C1F308028280E1
:10168000704700BFFEE700000FB4054B10B503A97B
:10169000044A029800F018F810BC5DF814FB000032
:1016A000611800081800002002E008C8121F08C1D5
:1016B000002AFAD170477047002001E001C1121FD3
:1016C000002AFBD1704700002DE9FF4F89B09B46EF
:1016D0000446002506E025280BD05A460B99904772
:1016E000641C6D1C20780028F5D10DB02846BDE89B
:1016F000F08F0027B8460122474900E0074314F85D
:10170000013F203B02FA03F00842F7D120782E284F
:1017100019D114F8010F47F004072A280ED06FF0F2
:101720002F022078A0F1300109290CD808EB88019C
:1017300002EB410100EB0108641CF2E70A98641C0B
:1017400050F8048B0A9020780028CED0642808D066
:10175000692806D075281ED05A460B9990476D1CF3
:1017600058E00A994FF00A0901C90A91002802DAE3
:1017700040422D2102E0390504D52B218DF820109F
:10178000012103E0F90704D02021F7E78A4608AEDB
:101790000DE00021FAE70A994FF00A0901C90A9100
:1017A000F7E74946FEF7E0FC303106F8011D002856
:1017B000F7D1ADEB060000F12009780701D44FF016
:1017C0000108C84502DDA8EB090000E000208046C2
:1017D000002706E008A85A46C05D0B9990476D1C8B
:1017E0007F1C5745F6DB04E030205A460B999047A2
:1017F0006D1CB8F10001A8F10108F5DC05E016F850
:10180000010B5A460B9990476D1CB9F10001A9F1E3
:101810000109F4DC641C65E70928010010B50446E1
:1018200000BFFA2000F00EF8FA2000F00BF8FA20C2
:1018300000F008F8FA2000F005F8601E80B2041EDF
:10184000EFD110BD00BF062100E000BF0A1EA1F1CC
:10185000010399B2F9D1421E92B2101EF3D1704722
:1018600070B504460D46E1B20548FFF706FF00BF1C
:1018700080210348FFF734FE0028F9D0204670BDD0
:101880000038014008B5FFF7A7FAFEF75BFDFFF748
:10189000E3FAFFF757FBFEF71DFF4FF4FA70FFF76F
:1018A000BDFF23A0FFF7F0FE40E04FF40071254894
:1018B000FEF7E0FE24A0FFF7E7FEFFF79DFB29A05F
:1018C000FFF7E2FE40F2DC50FFF7A8FF0120022301
:1018D0002BA2002100900846FFF75AF80220034689
:1018E0002AA2102100900020FFF752F802200346A0
:1018F00029A2102100906020FFF74AF8032002235C
:1019000026A2202100900020FFF742F801200223A8
:1019100025A2202100906020FFF73AF8032002233F
:1019200022A2302100900020FFF732F8BDE700002E
:101930000D0A202A2ABFAACABC6164D7AABBBB2A47
:101940002A0D0A00000C01400D0A202A2A2A2A2A00
:101950002A2A2A2A2A2A2A2A2A2A2A2A2A2A2A2AE7
:101960000D0A00000D0A202A2A2A2A2ABDE1CAF8F7
:10197000D2BBB4CEB2C9D1F92A2A2A2A2A0D0A002A
:10198000636F32C5A8B6C8A3BA000000CEC2B6C8FD
:10199000CEAAA3BA00000000A1E60000CAAAB6C8F9
:1019A000CEAAA3BA0000000025524800B9E2D5D55E
:1019B000C7BFB6C8A3BA00000000000000000000C6
:1019C000002F000000000700070000147F147F14A0
:1019D00000242A7F2A120062640813230036495526
:1019E000225000000503000000001C2241000000FE
:1019F00041221C000014083E08140008083E080894
:101A0000000000A0600000080808080800006060EE
:101A10000000002010080402003E5149453E00002D
:101A2000427F4000004261514946002141454B310F
:101A3000001814127F10002745454539003C4A49DB
:101A4000493000017109050300364949493600064D
:101A50004949291E000036360000000056360000B5
:101A60000008142241000014141414140000412230
:101A7000140800020151090600324959513E007C08
:101A80001211127C007F49494936003E41414122F2
:101A9000007F4141221C007F49494941007F0909DB
:101AA0000901003E4149497A007F0808087F00008B
:101AB000417F4100002040413F01007F0814224146
:101AC000007F40404040007F020C027F007F0408FE
:101AD000107F003E4141413E007F09090906003E5A
:101AE0004151215E007F0919294600464949493183
:101AF0000001017F0101003F4040403F001F2040A6
:101B0000201F003F4038403F006314081463000763
:101B10000870080700615149454300007F414100BA
:101B200000552A552A55000041417F00000402015A
:101B30000204004040404040000001020400002038
:101B400054545478007F4844443800384444442076
:101B500000384444487F00385454541800087E0923
:101B600001020018A4A4A47C007F080404780000EB
:101B7000447D4000004080847D00007F10284400A8
:101B80000000417F4000007C04180478007C0804B9
:101B9000047800384444443800FC242424180018F5
:101BA000242418FC007C08040408004854545420E1
:101BB00000043F444020003C4040207C001C20406A
:101BC000201C003C4030403C004428102844001CAD
:101BD000A0A0A07C004464544C44141414141414A5
:101BE000A1E6B9E2D5D5C7BFB6C8CEAAA3BACAAADC
:101BF000B6C8CEAAA3BACEC2B6C8CEAAA3BAB6FEFB
:101C0000D1F5BBAFCCBCC5A8B6C8CEAAA3BAB2E2C8
:101C1000BEE0C0EBD6DCB3A4C3E6BBFDB6C8B8DFFC
:101C2000C6C2C4B6D2C7CBD1CBF7CEC0D0C7B4F3EF
:101C3000D0A1B2E9BCC7C2BCC9BEB3FDCFB5CDB35C
:101C4000D6B5C9E8B5A5BCDBB9ABC7EAD4AAD1AF54
:101C5000C3BFB5E7B3D8D1B9BEADCEB3A1E3A94FE9
:101C6000D0CDBAC5B0E6B1BECAA3D3E0BFD5BCE4FF
:101C7000B7B5BBD8CDCBB3F600000C120C00C070CA
:101C800010080808081030000000000000000F18BD
:101C90003020202020301C00000000000000200028
:101CA000FC84A090988000000000404021190D03A2
:101CB000001F60404040603800000030C848F8080D
:101CC000C02018A4E49C00000000203801020B1082
:101CD000000F150403083000000000C04848380811
:101CE000003828E82898880000000023427E02205F
:101CF0002325251F151A31000000000000F090B0C8
:101D0000F056D82848000000000020100C43404046
:101D10002D131E2260404040000000000088584003
:101D2000E05C404020E000000000000010080403D8
:101D300000022660380700000000000080800000DC
:101D40000000000000000000000000003131000031
:101D5000000000000000000000000040080808F833
:101D6000A8A858487C080000000000380620202C55
:101D70003D23213F242320200000000000F090B0EC
:101D8000F056D82848000000000020100C434040C6
:101D90002D131E2260404040000000000088584083
:101DA000E05C404020E00000000000001008040358
:101DB000000226603807000000000000808000005C
:101DC00000000000000000000000000031310000B1
:101DD000000000000000000000000040081800089B
:101DE000F8A8686874180000000000300E22203E39
:101DF000221E122E221F12000000000000F090B0E0
:101E0000F056D82848000000000020100C43404045
:101E10002D131E2260404040000000000088584002
:101E2000E05C404020E000000000000010080403D7
:101E300000022660380700000000000080800000DB
:101E40000000000000000000000000003131000030
:101E50000000000000000000000000000000202042
:101E600020101010100000000000001008080808E2
:101E700008080808080C0C08000000000050C856AC
:101E8000F43424E020000000000000101014760F4D
:101E90000909080F3020407000000080609C040099
:101EA00000FC80603000000000000100003F0404DE
:101EB000021F10202020301C000000008060101045
:101EC00000B0E09C90900800000404070905074852
:101ED0004625100F142262404000008088184020E0
:101EE000A0F01C10B0900000000000300C080402AC
:101EF0007F211206191010000000000000F090B0C1
:101F0000F056D82848000000000020100C43404044
:101F10002D131E2260404040000000000088584001
:101F2000E05C404020E000000000000010080403D6
:101F300000022660380700000000000080800000DA
:101F4000000000000000000000000000313100002F
:101F50000000000000000000001060028C00FE0283
:101F6000F202FE00F800FF000004047E018047300A
:101F70000F10270047807F0000003E22E2223E0033
:101F8000FE2222222222E20200203F201F11110005
:101F90007F4444444444474000040404F484D4A5EA
:101FA000A6A4D484F40404040000FE0202123A162B
:101FB00013121A3242827E00000000FE8292929238
:101FC000FE92929282FE00000080601F00001E12AE
:101FD00012121E40807F00000080808080FF808081
:101FE000A0908884828080800000000000FF402153
:101FF0001204081020204040000202E22222F22EA9
:102000002222E22222E20202000000FF40407F4939
:1020100049497F4040FF000000202424A4FE2322E1
:1020200020FC04040404FC000010080601FF010663
:1020300080631901010933C0000000FC242424FC42
:10204000252624FC242424040040308F80844C5511
:10205000252525554C8080800004040404F49495C3
:10206000969494F4040404040000FE02027A4A4A9E
:102070004A4A4A7A0282FE00002020FF202000F80F
:10208000888888FF8888A8180010301F0888601F7B
:1020900080432C1028468180000808C848484849D9
:1020A000CE48484848C80808000000FF444444445B
:1020B0007F44444444FF000000008060F807001C97
:1020C000E0010600E01E000000010000FF0080406B
:1020D00020130C132040808000101010FF1090007F
:1020E000FE9180FF8092FE00000444827F01008008
:1020F00082462A132A468280008060242424A46415
:102100003F2424A42424A0600000804829094D8D88
:102110007B0B09284C98000000000202020202FE1C
:102120000202020202FE0000004040404040407FA8
:10213000404040414241404000000000BE2A2A2A5F
:10214000EA2A2A2A3E00000000004442494949493F
:102150007F4949494941400000202020202020207B
:10216000FF202020202020200080804020100C0311
:1021700000030C102040808000000000E000000000
:10218000FF000000204080000008040300004080A1
:102190007F0000000000010E00404424A4948C84C1
:1021A000FF848C94A4244440004040405F4A4A4A43
:1021B0004A4A4A4A5F40404000404042CC0000004A
:1021C0008484848484FC0000000000007F201000D0
:1021D0003F40404040414070008080829292929205
:1021E00092929292FE80808000404022241048808B
:1021F0007F040818242240400080FE8282FE80FE78
:102200008282FE8000F800FF00403F0020BF403F78
:1022100040807F00004F807F0000FE225A86201001
:102220002824E324281020200000FF040827110D93
:1022300041817F010509310000000022322AA6A257
:10224000622111098101000000004222130B428229
:102250007E02020A12234600002030AC6330008860
:10226000C8A8998E88A8C8880022672212128040C8
:10227000300F00003F40407100008060F80704E428
:10228000A4A4BFA4A4E4040000010000FF40407F18
:102290004A4A4A4A4A7F404000404042CC0040A05F
:1022A0009E8282829EA02020000000003F908840F5
:1022B000432C102846418080000000F8494A4C48D1
:1022C000F8484C4A49F8000000101013121212127C
:1022D000FF1212121213101000008060F807402045
:1022E000900C030C9020404000010000FF00806033
:1022F0001F000000FF000000000080402018068042
:1023000000071820408000000001002070282621CE
:102310002020243860000101000000FE2020200061
:10232000F2121AD61212F2020000001F08040280F4
:102330004F20180710204F80002020222222E22266
:102340002222E2222222202000804020100C0300C2
:1023500000003F404040407800404042CC0020D048
:102360004C4B48C80808F800000000007F20101FF0
:102370001212125F80403F000020100CF312125224
:1023800092121212F20202000001011F1111111526
:10239000195191513F111101000000F88888888877
:1023A000FF88888888F800000000001F08080808D7
:1023B0007F888888889F80F000106002CC8080FC35
:1023C0004020FF1008F800000004047E0100003FD8
:1023D00040404F4044474078000000FE0282828225
:1023E00082FA8282828282020080601F40404040E6
:1023F000407F404044584040002030AC632018806B
:10240000824222121A2642800022672212121240B1
:102410004242427E42424240002030AC63201800DB
:10242000084848FF48484808002267221212120054
:10243000020202FF0212221E0000000000000C1225
:10244000120C00000000000000000000000000006E
:102450000000000000000000000008F00808F0087C
:1024600008F00022312926000000000700000700C4
:102470000007000000000000002022A27E2222FEB1
:102480002222007C0000FF0000444249484848499D
:102490007E484848494A414000808080BEA2A2A2AE
:1024A000A2A2A2A2BE808080000000000605040453
:1024B000044484443C0000000000FE20203F200033
:1024C000FC24E4242223E20000807F0101FF8060DD
:1024D0001F80412618264180000010101010D030B7
:1024E000FF30D01010101000001008040209080876
:1024F000FF0808090204081000484AFA0AFE09F910
:1025000049A80000F00000FF0022110B04FF04099D
:10251000122300000F40807F0080804020504844FC
:10252000C344485020408080000040221A0242826A
:102530007F0202020A12600000100C4424140405F9
:10254000060404142444140C00004040414141415D
:102550007F414141414040000000F8010600F01277
:102560001212F2020202FE000000FF0000001F1122
:1025700011111F0040807F0000404042CC0000FC51
:1025800024A4242222A36200000040201F205847D8
:102590005048454245485040000000FE0202F212F9
:1025A0001212F20202FE00000000007F2020272409
:1025B00024242720207F000000404042CC0000FF60
:1025C0004949C949497F8000000040201F20405FE1
:1025D00048444041424558400000007C4040404053
:1025E000FF40404040FC000000007C404040404034
:1025F0007F4040404040FC00000000000000000020
:10260000000000000000000000000000F8000000D2
:1026100000000000333000000000100C06100C0613
:1026200000000000000000000040C07840C078407A
:1026300000043F04043F040400007088FC083000DC
:1026400000001820FF211E0000F008F000E0180034
:102650000000211C031E211E0000F00888700000ED
:10266000001E2123241927211010160E000000003F
:10267000000000000000000000000000E01804025C
:1026800000000000071820400000020418E00000CD
:10269000000040201807000000404080F0804040CB
:1026A000000202010F01020200000000F000000021
:1026B000000101011F0101010000000000000000F5
:1026C0000080B0700000000000000000000000006A
:1026D00000000101010101010100000000000000F3
:1026E0000000303000000000000000000080601892
:1026F00004006018060100000000E010080810E067
:1027000000000F102020100F00001010F800000033
:10271000000020203F20200000007008080888707A
:1027200000003028242221300000300888884830FA
:10273000000018202020110E000000C02010F8001A
:102740000000070424243F240000F80888880808B3
:10275000000019212020110E0000E01088881800C8
:1027600000000F112020110E0000380808C838089A
:10277000000000003F00000000007088080888701A
:1027800000001C222121221C0000E010080810E09B
:10279000000000312222110F00000000C0C0000024
:1027A0000000000030300000000000008000000049
:1027B0000000008060000000000000804020100841
:1027C000000001020408102000404040404040400A
:1027D00000040404040404040000081020408000E5
:1027E000000020100804020100007048080808F0EA
:1027F000000000003036010000C030C828E810E0BA
:10280000000718272423140B000000C038E0000044
:1028100000203C23020227382008F88888887000AE
:1028200000203F202020110E00C030080808083882
:1028300000071820202010080008F808080810E0F9
:1028400000203F202020100F0008F88888E808109A
:1028500000203F20202320180008F88888E808106E
:1028600000203F200003000000C0300808083800A6
:102870000007182020221E020008F808000008F8AF
:1028800008203F210101213F20000808F808080026
:10289000000020203F2020000000000808F8080861
:1028A00000C08080807F00000008F888C0281808D9
:1028B00000203F20012638200008F8080000000012
:1028C00000203F20202020300008F8F800F8F80809
:1028D00000203F003F003F200008F830C00008F80B
:1028E00008203F200007183F00E01008080810E00B
:1028F000000F10202020100F0008F808080808F02A
:1029000000203F210101010000E01008080810E04C
:10291000000F18242438504F0008F88888888870E1
:1029200000203F2000030C30200070880808083881
:10293000000038202121221C00180808F808081877
:10294000000000203F2000000008F808000008F800
:1029500008001F202020201F000878880000C838A9
:1029600008000007380E010000F80800F80008F819
:1029700000033C0700073C030008186880806818C3
:102980000820302C03032C30200838C800C8380831
:10299000000000203F2000000010080808C8380888
:1029A000002038262120201800000000FE0202022C
:1029B000000000007F40404000000C30C0000000DC
:1029C00000000000010638C00000020202FE000004
:1029D00000004040407F00000000000402020204AA
:1029E00000000000000000000000000000000000E7
:1029F00000808080808080808000020204000000CF
:102A000000000000000000000000008080808000C6
:102A1000000019242222223F2008F80080800000B4
:102A200000003F112020110E000000008080800077
:102A300000000E112020201100000000808088F886
:102A400000000E112020103F2000008080808000B8
:102A500000001F222222221300008080F088888834
:102A6000180020203F20200000000080808080800F
:102A700000006B94949493600008F80080808000BC
:102A800000203F210000203F200080989800000097
:102A9000000020203F2020000000000080989800C7
:102AA0000000C08080807F000008F80000808080E7
:102AB00000203F24022D302000000808F80000000C
:102AC000000020203F2020000080808080808080C7
:102AD00000203F20003F20003F8080008080800059
:102AE00000203F210000203F2000008080808000E7
:102AF00000001F202020201F008080008080000018
:102B00000080FFA12020110E000000008080808046
:102B100000000E112020A0FF808080800080808037
:102B20000020203F21200001000000808080808064
:102B3000000033242424241900008080E0808000D9
:102B4000000000001F202000008080000000808026
:102B500000001F202020103F208080800000808007
:102B60008000010E30080601008080008000808017
:102B7000800F300C030C300F0000808000808080BC
:102B8000000020312E0E31200080808000008080E7
:102B90008080818E70180601000080808080808097
:102BA000000021302C2221300000000000807C0237
:102BB0000200000000003F404000000000FF000055
:102BC0000000000000FF0000000002027C80000006
:102BD000000040403F000000000006010102020426
:102BE000040000000000000000000080C0E0F0F8D9
:102BF000FCF8F0E0C0800000000000000103070FB7
:102C00001F0F070301000000000000002C2C00082B
:102C1000000000201C000000A8160008482C000836
:102C20001C00002014040000B8160008000000007A
:102C3000000001020304010203040607080902045C
:082C400006080000000000007E
:0400000508000131BD
:00000001FF
