:020000040800F2
:1000000070040020450100083D140008AD0F0008F1
:100010003914000851080008C71B00080000000040
:100020000000000000000000000000003D16000875
:10003000850A000800000000C51400082917000800
:100040005F0100085F0100085F0100085F01000810
:100050005F0100085F0100085F0100085F01000800
:100060005F0100085F0100085F01000859080008EF
:100070007908000899080008B9080008D90800089C
:10008000F9080008190900085F0100085F0100086D
:100090005F0100085F0100085F0100085F010008C0
:1000A0005F0100085F0100085F0100085F010008B0
:1000B0005F0100085F0100085F0100085F010008A0
:1000C0005F0100085F0100085F0100085F01000890
:1000D0005F0100088D170008411800085F01000843
:1000E0005F0100085F0100085F0100085F01000870
:1000F0005F0100085F0100085F0100085F01000860
:100100005F0100085F0100085F0100085F0100084F
:100110005F0100085F0100085F0100085F0100083F
:1001200039090008590900087D0900089D090008DF
:10013000DFF80CD000F0ECFA004800470526000874
:10014000700400200648804706480047FEE7FEE7A7
:10015000FEE7FEE7FEE7FEE7FEE7FEE7FEE7FEE777
:100160002D17000831010008F0B480EA0102D40F15
:100170004200B2EB410F02D20246084611464A0045
:1001800042D0C30DDDB2C1F3C752AD1A202D35DA0E
:10019000C1F3160141F4000204B15242C5F1200638
:1001A00002FA06F12A411044B3EBD05F23D0C4B168
:1001B000012DA0EBC35009DCF0BC4FF0004202EA75
:1001C000C352DBB200F5000000F0BBB8400000F104
:1001D000807000EBC350A0F1807040EAD1704900FC
:1001E00009E0490841EAC071A0EBC35000F50000E6
:1001F000400800EBC350F0BC00F09AB86142012205
:1002000002EB4101001BF6E7F0BC704781F00041B2
:10021000AAE780F00040A7E780EA010210B502F0EB
:100220000043400022D04A001FD0010E01EB1261B2
:10023000C0F35600C2F3560240F4000042F400023C
:10024000A0FB022000047F39140400D0401C50EAB7
:10025000124001D44000491EC2B20C0604EBD0107B
:10026000401C4008802A02D003E0002010BD20F08E
:100270000100002900DA0020184310BD00F0004200
:1002800030F000400AD0C10D01F56071C0F31600D6
:1002900042EA0151C208400711437047002001465D
:1002A000704730B50B46014600202022012409E0AA
:1002B00021FA02F59D4205D303FA02F5491B04FA1F
:1002C00002F52844151EA2F10102F1DC30BD2DE932
:1002D000F05F0546002092469B46884606468146CA
:1002E00040241BE0284641464746224600F031FAAA
:1002F00053465A46C01A914110D311461846224619
:1003000000F018FA2D1A67EB01084F46224601202B
:10031000002100F00FFA17EB00094E41201EA4F156
:100320000104DFDC484631462A464346BDE8F09FDB
:100330000029A8BF7047401C490008BF20F00100F9
:10034000704710B4B0FA80FC00FA0CF050EA0104D7
:1003500004BF10BC704749B1CCF1200421FA04F469
:1003600011FA0CF118BF012121430843A3EB0C0142
:10037000CB1D4FEA00614FEA102042BF002010BCA5
:10038000704700EBC35010440029A4BF10BC704755
:10039000401C490008BF20F0010010BC70472DE947
:1003A000FE4F804681EA0300C00F0C46009021F00A
:1003B000004123F00045B8EB0200A94105D24046B8
:1003C000214690461C460B46024623F0004010434F
:1003D00047D0270DC7F30A00C3F30A510290401A11
:1003E000019040286BDAC3F3130040F4801B00989F
:1003F000924620B10023D2EB030A63EB0B0B01986A
:100400005946C0F14002504600F094F906460D46A8
:1004100050465946019A00F0ACF910EB08006141D2
:10042000002487EA115284EAE7731A4340D0009A05
:1004300062B3019A012A4FEA075215DC001B61EBF7
:1004400002014FF0004202EA0752CDE90042001CCF
:1004500041F5801132462B4600F0ACF903B0BDE8FF
:10046000F08F40462146F9E7001B61EB0201001CBA
:1004700041F5801300185B412018A2F5001747EBE7
:10048000030140EAD570B6196D4111E06D084FEADD
:10049000360645EAC0754FEA0752001B61EB0201C0
:1004A000001C41F5801149084FEA30000019514104
:1004B00032462B4603B0BDE8F04F00F06CB900980F
:1004C000012240000023D0EB020263EBE0730098AE
:1004D00021464FEAE074B8EB000061EB0401E9E764
:1004E00083F000435BE781F0004158E72DE9FE4FC0
:1004F00081EA030404F0004421F0004100944FF02D
:10050000000B23F0004350EA01045ED052EA0304DA
:100510005BD0C3F30A54C1F30A552C44A4F2F3345C
:100520000194A0FB0254C1F3130141F48011C3F301
:10053000130343F4801301FB024400FB034E840ABF
:10054000970A44EA815447EA8357A4FB0768029557
:100550008D0A05FB07854FEA932C04FB0C542705F5
:10056000029D4FEA065847EA1637B5EB08056EEBD1
:10057000070C870E920E47EA811742EA8312A7FB07
:100580000201B6EB0B0164EB00042B0D43EA0C33C4
:100590005E1844EB1C50DA465146E7FB0201C5F3F6
:1005A00013044FEA0B3343EA14534FEA0432019C1D
:1005B00043EA0603A4F10C040294009CCDE900B4C4
:1005C00000F0F8F803B0BDE8F08F00200146F9E72D
:1005D0002DE9F04D81EA030404F0004B21F00045C1
:1005E00014464FF0000A23F0004150EA050220D0E3
:1005F00054EA01021DD0C5F30A570246C5F313039E
:10060000C1F31300C1F30A5640F4801543F480137C
:10061000A7EB0608101BD64608F2FD3873EB050061
:1006200002D308F1010801E092185B41B8F1000F14
:1006300003DA00200146BDE8F08D00204FF4801160
:10064000064684460EE0171B73EB050705D3121B05
:1006500063EB050306434CEA010C49084FEA3000FE
:1006600092185B4150EA0107EDD152EA030012D023
:1006700082EA040083EA0501084305D0101BAB4160
:1006800006D20122002306E000224FF0004302E0E0
:100690006FF0010253101AEB06004CEB085110EBFF
:1006A0000A0041EB0B01BDE8F04D00F074B8C1F356
:1006B0000A52C1F3130140F2FF3341F480119A4210
:1006C00002DA00200146704740F233439A42A2F218
:1006D000334202DC524200F03CB800F02BB800007C
:1006E00030B5041E71F1000404DB4FF000444042B9
:1006F00064EB0101141E73F1000405DB1C464FF08E
:100700000043524263EB0403994208BF904230BD5C
:10071000064C074D06E0E06840F0010394E807004E
:1007200098471034AC42F6D3FFF706FDE83C0008CA
:10073000083D0008202A04DB203A00FA02F10020DC
:1007400070479140C2F1200320FA03F3194390400F
:100750007047202A04DB203A21FA02F0002170477A
:1007600021FA02F3D040C2F1200291400843194619
:100770007047202A06DBCB17203A41FA02F043EA01
:10078000E07306E041FA02F3D040C2F1200291404A
:1007900008431946704710B5141E73F1000408DAB7
:1007A000401C41F1000192185B411A4301D120F035
:1007B000010010BD2DE9F04D92469B4611B1B1FAF2
:1007C00081F202E0B0FA80F220329046FFF7B2FFE9
:1007D00004460F4640EA0A0041EA0B0153465A46D6
:1007E000084313D0114653EA010019D0C8F1400262
:1007F0005046FFF7AEFF05460E4650465946424664
:10080000FFF798FF084305D0012004E02046394651
:10081000BDE8F08D0020054346EAE0762C433743DF
:100820000A986305E40AA0EB08000022FD0A44EAE6
:1008300047540A3002D500200146E9E701051019A6
:100840006941DDE9084500196941BDE8F04DA2E7BD
:1008500000BFFEE77047000010B50548006800F0D3
:100860000F04034844602046FFF7F4FF10BD00006A
:10087000000002407047000010B505480068C0F352
:1008800003142001024948602046FFF7F3FF10BD22
:10089000000002407047000010B505480068C0F332
:1008A00003242002024948602046FFF7F3FF10BDF1
:1008B000000002407047000010B505480068C0F312
:1008C00003342003024948602046FFF7F3FF10BDC0
:1008D000000002407047000010B505480068C0F3F2
:1008E00003442004024948602046FFF7F3FF10BD8F
:1008F000000002407047000010B505480068C0F3D2
:1009000003542005024948602046FFF7F3FF10BD5D
:10091000000002407047000010B505480068C0F3B1
:1009200003642006024948602046FFF7F3FF10BD2C
:10093000000002407047000010B50548006800F054
:100940000F040348001D04602046FFF7F3FF10BDAD
:10095000000402407047000010B506480068C0F36C
:10096000031420010349091D08602046FFF7F2FF28
:1009700010BD0000000402407047000010B506489A
:100980000068C0F3032420020349091D08602046C3
:10099000FFF7F2FF10BD00000004024010B50C4844
:1009A0000068C0F3033434B120030949091D08600D
:1009B000204600F00FF806480068C0F3034434B145
:1009C00020040349091D0860204600F004F810BD0A
:1009D000000402407047704700B597B010208DF8B2
:1009E00003000001ADF8000002208DF80200694606
:1009F000204800F0F5F918208DF803008020ADF8AC
:100A0000000003208DF8020069461B4800F0E8F959
:100A10004CF2B300ADF800006946184800F0E0F968
:100A20004FF4F060ADF800006946154800F0D8F9C1
:100A300001A81590169008A800F0B3F808200A90B5
:100A400000201290012002900020019004900220CA
:100A5000039008A800F032F80121002000F014F8FB
:100A6000C82001F01CFD01221102024800F099FA91
:100A700017B000BD00080140000C01400014014007
:100A8000001801407047000051B18200A2F1C0423D
:100A9000126842F001038200A2F1C042136009E033
:100AA0008200A2F1C0421268034B1A408300A3F1F6
:100AB000C0431A6070470000FEFF0F00D0E901122A
:100AC0001143C268114302691143426911438269AB
:100AD0001143C2691143026A1143426A1143826A97
:100AE0001143C26A1143026B114302689200A2F1E2
:100AF000C0421160816808290BD101688900A1F109
:100B0000C041096841F0400201688900A1F1C0417B
:100B10000A60416B0968426B526841EA0211426BFC
:100B2000926841EA0221426B928941EA0241426B9A
:100B3000128A41EA0251426B127D41EA0261426B24
:100B4000926911430268521C9200A2F1C0421160E6
:100B5000C16AB1F5804F1BD1816B0968826B526805
:100B600041EA0211826B926841EA0221826B128A89
:100B700041EA0251826B127D41EA0261826B926905
:100B8000114302689200A2F1C042C2F8041107E0CA
:100B90006FF0704201688900A1F1C041C1F80421E1
:100BA0007047002101600221416000218160C16025
:100BB000016141618161C16101624FF48051416213
:100BC000490081620021C16201630F21426B116003
:100BD000426B5160FF21426B91600F21426BD160EB
:100BE000426B1161426B51610021426B91610F2197
:100BF000826B1160826B5160FF21826B91600F21CB
:100C0000826BD160826B1161826B51610021826BBA
:100C10009161704708B50121080200F055FC0121DF
:100C20007D2000F081FC0121092000F07DFC0121E4
:100C3000344800F061F90121334800F05DF9334890
:100C400000F06AF81F20ADF8000010208DF80300B6
:100C500003208DF8020069462C4800F0C1F82C48AA
:100C600000F05AF80420ADF8000003208DF80200CF
:100C700018208DF803006946254800F0B1F80820D7
:100C8000ADF8000004208DF803006946204800F00C
:100C9000A7F84FF40070ADF8000003208DF80200B3
:100CA00018208DF803006946194800F099F84FF4B0
:100CB0008060ADF8000004208DF8030069461448F8
:100CC00000F08EF8134800F027F8FF20ADF8000080
:100CD00003208DF8020004208DF8030069460D48BA
:100CE00000F07EF84FF47F40ADF8000003208DF84F
:100CF000020018208DF803006946064800F070F8DD
:100D000008BD00000004300000023000000C01406B
:100D1000000801400010014010B5044629488442F3
:100D200008D10121042000F00FFC0021042000F074
:100D30000BFC46E02448844208D10121082000F041
:100D400003FC0021082000F0FFFB3AE01F4884422A
:100D500008D10121102000F0F7FB0021102000F045
:100D6000F3FB2EE01A48844208D10121202000F034
:100D7000EBFB0021202000F0E7FB22E01548844235
:100D800008D10121402000F0DFFB0021402000F0CD
:100D9000DBFB16E01048844208D10121802000F0DE
:100DA000D3FB0021802000F0CFFB0AE00B488442F7
:100DB00007D10121801500F0C7FB0021A01500F02C
:100DC000C3FB10BD00080140000C014000100140B1
:100DD0000014014000180140001C014000200140A7
:100DE0002DE9F041024600250026002000230024C2
:100DF000002791F803C00CF00F0591F803C00CF028
:100E0000100CBCF1000F03D091F802C04CEA0505AC
:100E100091F800C0BCF1000F31D0146800202BE025
:100E20004FF0010C0CFA00F3B1F800C00CEA030615
:100E30009E4220D183004FF00F0C0CFA03F7BC4305
:100E400005FA03FC4CEA040491F803C0BCF1280F36
:100E500006D14FF0010C0CFA00FCC2F814C00AE0F5
:100E600091F803C0BCF1480F05D14FF0010C0CFA0A
:100E700000FCC2F810C0401C0828D1D31460B1F89F
:100E800000C0BCF1FF0F34DD546800202EE000F1FB
:100E9000080C4FF0010808FA0CF3B1F800C00CEA96
:100EA00003069E4221D183004FF00F0C0CFA03F78A
:100EB000BC4305FA03FC4CEA040491F803C0BCF1FE
:100EC000280F05D100F1080C08FA0CF8C2F81480BC
:100ED00091F803C0BCF1480F07D100F1080C4FF0A6
:100EE000010808FA0CF8C2F81080401C0828CED37C
:100EF0005460BDE8F0810000F0B50A4600230024EC
:100F00000021002500F00046B6F1004F02D11D4E31
:100F1000F16901E01B4E7168C0F3034583B200F430
:100F20004016B6F5401F08D121F07061154E766865
:100F300026F07066134F7E6012E000F48016B6F55E
:100F4000801F06D1032606FA05F4A14341F0706123
:100F500006E0460D360103FA06F6B14341F0706132
:100F600022B1460D360103FA06F6314300F0004681
:100F7000B6F1004F02D1034EF16101E0014E716004
:100F8000F0BD00000000014002460020D3680B4085
:100F90000BB1012000E00020704741617047016102
:100FA00070470AB1016100E04161704700BFFEE790
:100FB00009E040F2375100BF0A1EA1F1010399B2C6
:100FC000FAD1421E90B20028F3D1704770B50646A0
:100FD000002415E004F1B001C8B200F0D9F90120F5
:100FE00000F0D6F9102000F0D3F9002504E03046D7
:100FF00000F0F8F9681CC5B2802DF8DB601CC4B2A3
:10100000082CE7DB70BD000010B502213448FFF763
:10101000C6FF08213248FFF7C0FF3220FFF7C8FFA4
:1010200008212F48FFF7BBFFAE2000F0B1F90020E8
:1010300000F0AEF9102000F0ABF9402000F0A8F964
:10104000812000F0A5F9CF2000F0A2F9A12000F046
:101050009FF9C82000F09CF9A62000F099F9A8207B
:1010600000F096F93F2000F093F9D32000F090F9BA
:10107000002000F08DF9D52000F08AF9802000F0E2
:1010800087F9D92000F084F9F12000F081F9DA2005
:1010900000F07EF9122000F07BF9DB2000F078F9F7
:1010A000402000F075F9202000F072F9022000F0D5
:1010B0006FF98D2000F06CF9142000F069F9A4207C
:1010C00000F066F9A62000F063F9AF2000F060F9A7
:1010D0000020FFF77BFF0021084600F043F910BD18
:1010E000000C01402DE9F05F82460F46904699467C
:1010F000DDF828B00024002501266CE0002401263C
:1011000011E019F8040018F80510884209D109EB1C
:101110000400407808EB05014978884201D1260196
:1011200005E0A01CC4B219F804007F28E9DC00BF68
:10113000BAF1760F03DD4FF0000A781CC7B23946CA
:10114000504600F00FF9012E22D03946504600F0EB
:1011500009F9002407E01BF8060000F043F9701CB1
:1011600086B2601CC4B2102CF5DB07F10800C1B2D6
:10117000504600F0F7F8002407E01BF8060000F0E6
:1011800031F9701C86B2601CC4B2102CF5DB1CE077
:10119000681CC5B23946504600F0E4F8002404E06B
:1011A000002000F01FF9601CC4B2102CF8DB781C82
:1011B000C1B2504600F0D6F8002404E0002000F050
:1011C00011F9601CC4B2102CF8DB0AF1100000F019
:1011D000FF0AA81CC5B218F8050000288ED1BDE88A
:1011E000F09F2DE9F04704468846154699464FF092
:1011F000000A002600271FE0E85D203800F0FF0A03
:101200007E2C04DD002408F1010000F0FF084146B7
:10121000204600F0A7F8002608E00AEB4A0109EB97
:101220004101885D00F0DEF8701CC6B2062EF4DBCA
:10123000A01DC4B2781CC7B2E85D0028DCD1BDE8AF
:10124000F0872DE9F04706460F469046994600255F
:101250000024A24630E018F80A002038C5B2782EE3
:1012600002DD0026781CC7B23946304600F07AF815
:10127000002406E009EB0511085D00F0B3F8601CDE
:10128000C4B2082CF6DB07F10800C1B2304600F00A
:1012900069F8002407E009EB05112144087A00F001
:1012A000A1F8601CC4B2082CF5DB06F10800C6B238
:1012B0000AF1010000F0FF0A18F80A000028CAD15C
:1012C000BDE8F0872DE9FC47064688461546994655
:1012D0000A9F002438E0285D7F2817DD285D8DF8FF
:1012E0000400281940788DF8050000208DF80600CC
:1012F0001848194B01AA414600903046FFF7F2FE0C
:1013000006F11000C6B2A01CC4B21DE0285D8DF825
:10131000040000208DF80500012F09D10F4B01AA10
:1013200041463046FFF78DFF06F10800C6B209E0DE
:10133000032F07D10A4B01AA41463046FFF751FF60
:10134000B01DC6B2601CC4B2285D0028C3D1BDE880
:10135000FC870000552D0008BC2C0008D53600087D
:10136000942A000870B504460D46B02101EBE50152
:10137000C8B200F00DF8102141EA141000F008F88E
:1013800004F00F0141F0010000F002F870BD000010
:1013900070B50446082510211148FFF7FEFD022113
:1013A0000F48FFF7FAFD15E004F0800020B101219D
:1013B0000B48FFF7F4FD03E001210948FFF7EDFDBD
:1013C00002210748FFF7EBFD02210548FFF7E5FD85
:1013D0006006040E281EA5F10101CDB2E4D170BD56
:1013E000000C014070B50446082510211148FFF794
:1013F000D6FD02210F48FFF7D0FD15E004F0800074
:1014000020B101210B48FFF7CAFD03E00121094883
:10141000FFF7C3FD02210748FFF7C1FD0221054880
:10142000FFF7BBFD6006040E281EA5F10101CDB239
:10143000E4D170BD000C014000BFFEE77047000022
:1014400070B5002100230F22C47804B3154C246822
:1014500004F4E064C4F5E064210AC1F10403CA4065
:10146000447804FA03F184781440214309010E4CB6
:101470000678A155047804F01F050124AC400578D6
:101480006D11AD0005F1E025C5F8004109E00478D3
:1014900004F01F050124AC40044D0678761145F890
:1014A000264070BD0CED00E000E400E080E100E0CB
:1014B00002490143024A1160704700000000FA052A
:1014C0000CED00E07047000029B1064A5269024362
:1014D000044B5A6104E0034A52698243014B5A614A
:1014E000704700000010024029B1064AD269024349
:1014F000044BDA6104E0034AD2698243014BDA61AA
:10150000704700000010024029B1064A12690243E8
:10151000044B1A6104E0034A12698243014B1A61C9
:10152000704700000010024029B1064A9269024348
:10153000044B9A6104E0034A92698243014B9A6129
:10154000704700000010024029B1064AD2680243E9
:10155000044BDA6004E0034AD2688243014BDA604C
:10156000704700000010024030B500210022002426
:1015700000232D4D6D6805F00C0121B1042905D023
:10158000082923D105E0294D056022E0274D05609B
:101590001FE0254D6D6805F47012234D6D6805F44C
:1015A0008034022505EB92421CB9214D554305605C
:1015B0000BE01D4D6D6805F400351DB11C4D554304
:1015C000056002E0194D5543056002E0174D0560C6
:1015D00000BF00BF144D6D6805F0F0010909154DFD
:1015E0006B5C0568DD4045600F4D6D6805F4E0619A
:1015F000090A104D6B5C4568DD4085600A4D6D68D9
:1016000005F46051C90A0B4D6B5C4568DD40C5604F
:10161000054D6D6805F44041890B074D6B5CC5684D
:10162000B5FBF3F5056130BD0010024000127A00F1
:1016300000093D000200002012000020704710B594
:1016400000F002F810BD00000CB5002001900090E1
:101650003348006840F480303149086000BF3048AA
:10166000006800F4003000900198401C0190009840
:1016700018B90198B0F5A06FF1D12948006800F4BD
:10168000003010B10120009001E00020009000988F
:10169000012843D12348006840F010002149086028
:1016A0000846006820F0030008600846006840F023
:1016B000020008601A4840681949486008464068B6
:1016C00048600846406840F48060486008464068CA
:1016D00020F47C1048600846406840F4E8104860F8
:1016E0000846006840F08070086000BF0C48006841
:1016F00000F000700028F9D00948406820F003008D
:10170000074948600846406840F00200486000BF52
:101710000348406800F00C000828F9D10CBD000017
:1017200000100240002002407047000010B513482E
:10173000006840F0010011490860084640681049FF
:1017400008400E494860084600680E4908400B49A9
:1017500008600846006820F4802008600846406859
:1017600020F4FE0048604FF41F008860FFF767FF19
:101770004FF000600449086010BD000000100240F6
:101780000000FFF8FFFFF6FE08ED00E010B540F2A4
:101790002551054800F053F920B140F22551024887
:1017A00000F0C5F810BD00000038014000B587B05A
:1017B00001218803FFF7B8FE204800F0E5F84FF458
:1017C000964003900020ADF81000ADF81200ADF87F
:1017D0001400ADF818000C20ADF8160003A9174846
:1017E00000F07CF90020ADF80400ADF80600ADF87B
:1017F0000800ADF80A0001A9104800F0A7F801227E
:1018000040F225510D4800F044F901210B4800F049
:10181000AEF84FF4A060FFF74BFE25208DF80000D6
:1018200001208DF8010003208DF8020001208DF8C1
:1018300003006846FFF704FE07B000BD0038014012
:1018400010B540F22551104800F0F9F8D0B10E481B
:1018500000F0B0F90D490E4A127821F812000C4838
:101860000078401C0A49087008460078092804D10D
:101870000020087001200749087040F225510248F5
:1018800000F055F810BD0000004400403C0000206E
:10189000010000200000002000B587B001214804AD
:1018A000FFF722FE204800F06FF84FF41650039027
:1018B0000020ADF81000ADF81200ADF81400ADF83E
:1018C00018000C20ADF8160003A9174800F006F91F
:1018D0000020ADF80400ADF80600ADF80800ADF842
:1018E0000A0001A9104800F031F8012240F2255108
:1018F0000D4800F0CEF801210B4800F038F84FF405
:10190000A060FFF7D5FD26208DF8000001208DF89E
:10191000010003208DF8020001208DF803006846C5
:10192000FFF78EFD07B000BD00440040704710B5C2
:101930000022002340F66A14A14200D100BF0A121F
:1019400001249440A3B2DC43048010BD10B50246CC
:101950000020108A4FF2FF0318400B884C88234365
:101960008C882343CC8823431843108210BD21B1B7
:10197000828942F40052828104E082894DF6FF732D
:101980001A4082817047000010B504462048844206
:1019900009D101218803FFF7D7FD00214FF48040D2
:1019A000FFF7D2FD32E01B48844209D101214804EF
:1019B000FFF7AAFD00214FF40030FFF7A5FD25E059
:1019C0001548844209D101218804FFF79DFD0021BB
:1019D0004FF48020FFF798FD18E01048844209D1A9
:1019E0000121C804FFF790FD00214FF40020FFF70C
:1019F0008BFD0BE00A48844208D101210805FFF75E
:101A000083FD00214FF48010FFF77EFD10BD000024
:101A1000003801400044004000480040004C0040B5
:101A20000050004002460020B1F5007F00D100BF09
:101A300013880B400BB1012000E00020704770B507
:101A40000246002400230025002040F66A16B14219
:101A500000D100BFC1F3421501F01F03012606FAB1
:101A600003F3012D02D19689334006E0022D02D105
:101A7000168A334001E0968A33400C12012606FA9A
:101A800004F41688344013B10CB1012000E00020AA
:101A900070BDF0B50346002400260025002040F666
:101AA0006A17B94200D100BF1846C1F3421401F0D1
:101AB0001F06012707FA06F5012C01D10C3004E0BE
:101AC000022C01D1103000E014301AB107682F4306
:101AD000076002E00768AF430760F0BD2DE9F047FB
:101AE00086B005460E460024A24600BFA146002748
:101AF000B08900B100BF2F462C8A4CF6FF7004401D
:101B0000F08804432C82AC894EF6F3100440B08870
:101B100031890843718908430443AC81AC8A4FF68C
:101B2000FF400440B0890443AC8201A8FFF71CFDCC
:101B30001F48874202D1DDF810A001E0DDF80CA0BB
:101B4000A88900F4004040B10AEBCA0000EB0A107B
:101B500031684900B0FBF1F807E00AEBCA0000EB7E
:101B60000A1031688900B0FBF1F86420B8FBF0F08E
:101B700004012009642101FB1089A88900F40040B8
:101B800040B1322000EBC900B0FBF1F000F00700DB
:101B9000044308E0322000EB09106421B0FBF1F0AF
:101BA00000F00F0004432C8106B0BDE8F087000070
:101BB0000038014001468888C0F308007047C1F32F
:101BC00008028280704700BFFEE700000FB4054B9B
:101BD00010B503A9044A029800F0CAF810BC5DF8D9
:101BE00014FB0000E52400081800002002E008C8EB
:101BF000121F08C1002AFAD170477047002001E087
:101C000001C1121F002AFBD1704700002DE9FF5FC0
:101C1000DDE90220010DDDF838B0024318D044F6AA
:101C20001050A1F2FF3141430D140F98012820D02C
:101C3000A5EB0B00401C5FEA000A4FF00004474E82
:101C4000DFF81C91A046504616D5CAF1000728E0DF
:101C50000F98012443A2012808D0002100980F9B6F
:101C6000C0E90021C0E90243BDE8FF9F6FEA0B0114
:101C7000F4E7CBF10000DEE7074612E0F80707D0F3
:101C80002246334640464946FEF730FC80468946A8
:101C90002246334610461946FEF728FC04460E46F7
:101CA0007F10002FEAD1DDE90201BAF1000F4246B0
:101CB0004B4602DAFEF71AFC01E0FEF789FC044607
:101CC0000E460022284BFEF70BFD03D84FF0FF30E5
:101CD000014607E00022254B20463146FEF75FFB18
:101CE000FEF7E5FC102409E0002C0ADB0A220023A1
:101CF000FEF7EDFA019B30321A55641E50EA0102DC
:101D0000F2D1641C019AC4F1110314440F9A012A00
:101D100003D0012208430DD10AE0084304D000207B
:101D20004FF0110B0F9080E7A3EB0B056D1E0DE03C
:101D30005B4504DD4FF0000205F1010504E003DA24
:101D40004FF00002A5F10105002AECD000980F9990
:101D5000C0E90231C0E9004586E7000000002440E8
:101D60000000F03F300000000000F0430000E03FC2
:101D70002DE9FF4F95B09B468946064600250FE2A8
:101D8000252877D100242746F84A0121059400E050
:101D9000044316F8013F203B01FA03F01042F7D14B
:101DA00030782A2811D06FF02F033078A0F130025C
:101DB000092A16D8059A44F0020402EB820203EBCA
:101DC00042021044761C0590EFE759F8042B059267
:101DD000002A03DA504244F40054059044F002040F
:101DE000761C30782E2816D116F8010F44F0040422
:101DF0002A280DD06FF02F023078A0F13003092B84
:101E000009D807EB870302EB4303C718761CF3E7F7
:101E100059F8047B761C30786C280FD006DC4C28EF
:101E200017D068280DD06A2814D104E0742810D087
:101E30007A280FD10DE044F400140AE044F4801431
:101E400001E044F440147278824202D104F5801417
:101E5000761C761C307866280BD013DC582877D097
:101E600009DC002875D04528F6D04628F4D047284C
:101E70001AD19DE118E0632835D0642879D065280F
:101E800012D195E1702873D008DC6728F1D0692859
:101E90006FD06E280DD06F2806D1B5E073282CD0F6
:101EA000752875D0782874D05A46179990476D1CBC
:101EB00075E1C4F30250022809D003280DD0D9F8E7
:101EC000001004280DD00D6009F1040967E1D9F86C
:101ED0000010EA17C1E90052F6E7D9F800100D80AA
:101EE000F2E70D70F0E719F8041B8DF800100020E0
:101EF0008DF80100EA46012003E059F804AB4FF0E9
:101F0000FF3061074FF0000102D40DE008F101013C
:101F10008846B9420FDA8045F8DB1AF80810002924
:101F2000F4D108E008F1010188468142FADB1AF891
:101F300008100029F6D105985B46A0EB080721465A
:101F40003846179A00F094FA284400EB080507E099
:101F50004DE029E10DE01AF8010B5A461799904718
:101F6000B8F10108F7D25B4621463846179A13E1CB
:101F700042E00A220092C4F302524FF0000A022A01
:101F800008D059F804CB032A4FEAEC710AD00DE0CF
:101F900029E02AE009F1070121F00702F2E802C175
:101FA000914609E00FFA8CFC4FEAEC71042A03D148
:101FB0004FFA8CFC4FEAEC71002907DA0A4600213F
:101FC000DCF1000C61EB02012D2202E0220504D5B8
:101FD0002B228DF80420012203E0E20701D0202209
:101FE000F7E7904659E00A2102E010220DE01021A7
:101FF0004FF0000A00910BE010224FF0000A44F06D
:1020000004040827009203E008224FF0000A00921F
:10201000C4F30252022A05D059F804CB0021032A46
:1020200008D009E009F1070121F00702F2E802C136
:10203000914605E01FFA8CFC042A01D10CF0FF0C3C
:102040004FF00008220728D5702806D0009B83F0A7
:10205000100353EA0A0305D00EE040228DF8042055
:10206000012208E05CEA010206D030228DF804204B
:102070008DF8050002229046009B83F0080353EA86
:102080000A030AD15CEA010201D1620705D53022B8
:102090008DF804204FF001087F1E582804D034A08A
:1020A00003900EA802900DE036A0F9E75346604673
:1020B000009AFEF70CF984460398825C0298401E51
:1020C000029002705CEA0100F0D1029806A9081A99
:1020D00000F1200A600702D524F4803400E00127D3
:1020E000574502DDA7EB0A0000E0002000EB0A01E3
:1020F000009005984144401A0590E00306D45B46E1
:102100002146179A059800F0B3F90544002706E028
:1021100001A85A46C05D179990476D1C7F1C474522
:10212000F6DBE0030CD55B462146179A059800F0D4
:102130009FF9054404E030205A46179990476D1CDA
:102140000099481E00900029F5DC08E002980299E9
:102150005A460078491C0291179990476D1CBAF1B4
:102160000001AAF1010AF1DC65E100000928010083
:1021700030313233343536373839616263646566FD
:1021800000000000303132333435363738394142BF
:10219000434445460000000000F058F90544761C11
:1021A000307800287FF4ECAD19B02846BDE8F08FF8
:1021B000620700D4062709F1070222F0070CFCE8A9
:1021C0000223E14603F000485FEA080C02D00FF258
:1021D000702C0DE05FEA045C02D50FF2682C07E07A
:1021E0005FEAC47C02D00FF2602C01E0AFF2700C09
:1021F0004FF0FF3823F00043CDF850C065280CD0D5
:1022000006DC452809D046281DD047283DD13DE0B1
:10221000662818D067287ED138E00021112F01DB15
:10222000112000E0781CCDE9000106A90EA8FFF7F7
:10223000EDFCDDE90F010E9A03910021009207F1F8
:10224000010A04914DE04FF000400097CDE90110E4
:1022500006A90EA8FFF7DAFCDDE90F0203920E9B38
:1022600011990022DDF80CA00093049211B9791C99
:1022700000EB010AB7EB0A0004D4C0F1FF3007F10C
:10228000010A0490AAEB0700019044E0012F00DA54
:1022900001270021112F01DD112000E03846CDE992
:1022A000000106A90EA8FFF7B1FCDDE90F010E9AA7
:1022B0000391002104910092BA4621070CD403999E
:1022C000514500DA8A46BAF1010F05DD009AAAF1FC
:1022D0000101515C302908D0B84202DA10F1040F34
:1022E00006DA0121CDE9011015E0AAF10101E9E7C3
:1022F000002805DC049901440491AAEB000102E0E6
:10230000411C514500DD8A460499401A401C019049
:102310004FF000400290200704D40198504501DBA3
:10232000CDF8048000208DF84F0002980DF14F0782
:10233000B0F1004F25D02B200E9002984FF00208EC
:1023400000280CDA404202902D200E9007E00A216E
:102350000298FDF7A6FF3031029007F8011DB8F191
:102360000001A8F10108F2DC02980028EFD1791EE3
:102370000E980870307800F0200040F0450007F813
:10238000020D12A8C01B00F107081498007800B1D4
:10239000012000EB0A01019801EBE071059841442E
:1023A000401A401E0590E00306D45B462146179A6A
:1023B000059800F05DF805441498007818B15A4665
:1023C000179990476D1CE00324D55B462146179A68
:1023D000059800F04DF805441CE00498002807DB40
:1023E000DDE90301884203DD0098405C179901E0B4
:1023F000179930205A469047049805F10105401C72
:1024000004900198401E019004D12E205A4617993D
:1024100090476D1CBAF10001AAF1010ADDDC05E06C
:1024200017F8010B5A46179990476D1CB8F1000137
:10243000A8F10108F4DC5B462146179A0598ABE643
:102440002D0000002B000000200000002DE9F041CD
:10245000044600251E461746880404D405E0394684
:102460002020B0476D1C641EF9D52846BDE8F081D8
:102470002DE9F041044600251E469046C80301D5CB
:10248000302700E02027880404D505E0414638467F
:10249000B0476D1C641EF9D52846BDE8F08110B523
:1024A000044600BFFA2000F00EF8FA2000F00BF806
:1024B000FA2000F008F8FA2000F005F8601E80B25B
:1024C000041EEFD110BD00BF062100E000BF0A1EB0
:1024D000A1F1010399B2F9D1421E92B2101EF3D1BB
:1024E0007047000070B504460D46E1B20548FFF79D
:1024F00066FB00BF80210348FFF794FA0028F9D05B
:10250000204670BD00380140F8B506460D46144619
:102510000A2C60D2DFE804F0050E172029323B4474
:102520004D56012002232DA2294600903046FEF789
:10253000C9FE50E00120022329A22946009030461E
:10254000FEF7C0FE47E00120022326A229460090A4
:102550003046FEF7B7FE3EE00120022322A22946C4
:1025600000903046FEF7AEFE35E0012002231FA2A8
:10257000294600903046FEF7A5FE2CE001200223FC
:102580001BA2294600903046FEF79CFE23E0012066
:10259000022318A2294600903046FEF793FE1AE067
:1025A0000120022314A2294600903046FEF78AFE3D
:1025B00011E00120022311A2294600903046FEF7C7
:1025C00081FE08E0012002230DA229460090284642
:1025D000FEF778FE00BF00BFF8BD0000300000002D
:1025E0003100000032000000330000003400000021
:1025F0003500000036000000370000003800000001
:102600003900000008B5FFF791F8FEF703FBFFF76C
:10261000CDF8FFF741F9FEF7DFF9FEF7F5FC4FF4CF
:10262000FA70FFF73CFF98A0FFF7D0FA4FF0C040D8
:10263000C07A00F0800008B34FF0C040C07A40F08C
:1026400006004FF0C041C872142093490870112051
:102650004FF0C0414872092008721B20C871152034
:102660000871062088701E200870032088712020C1
:1026700088720846C07A20F08000C87287A0FFF7F1
:10268000A5FA00E100F080F901218948FEF77CFC01
:102690008849086002218648FEF776FC8549486033
:1026A00004218348FEF770FC824988600821804835
:1026B000FEF76AFC7F49C86010217D48FEF764FC84
:1026C0007C49086120217A48FEF75EFC794948611F
:1026D00040217748FEF758FC76498861802174488C
:1026E000FEF752FC7349C8614FF480717048FEF7E1
:1026F00054FC4FF400716E48FEF74FFC4FF48061BC
:102700006B48FEF74AFC4FF400616948FEF745FC50
:102710004FF480516648FEF740FC4FF40051644886
:10272000FEF73BFC4FF480416148FEF736FC4FF466
:1027300000415F48FEF731FC5FA0FFF747FAFFF763
:10274000F5F864A0FFF742FA40F2DC50FFF7A7FE6D
:102750000120022366A2002100900846FEF7B2FD88
:102760000120022364A2002100904020FEF7AAFD70
:102770000120022362A2102100900020FEF7A2FD9A
:102780000120022360A2102100904020FEF79AFD54
:10279000012002235EA2202100900020FEF792FD7E
:1027A000012002235CA2202100904020FEF78AFD38
:1027B000012002235AA2302100900020FEF782FD62
:1027C0000120022358A2302100904020FEF77AFD1C
:1027D000002600240FE000250AE0761C354B53F854
:1027E00026202307190EAB07180EFFF78DFE6D1C70
:1027F000022DF2DB641C042CEDDB4FF0C040C079ED
:1028000000904FF0C040037A427A10F8321F48A07F
:10281000FFF7DCF94FF0C040407B00F0800010B9BA
:1028200048A0FFF7D3F94FF0C040037882780179D0
:1028300045A0FFF7CBF94FF0C040807947A2115C6B
:1028400049A0FFF7C3F94FF0C040807947A2115C5F
:1028500045A0FFF7BBF94FF0C040807946A2115C5C
:1028600048A0FFF7B3F900BF4FF0C040807A00F0F6
:1028700080000028F8D000BF4FF0C040807A00F000
:1028800080000028F8D1FDE6445331324338383710
:10289000205254430A000000320000600D0A202A32
:1028A0002ABFAACABC6164D7AABBBB2A2A0D0A00E8
:1028B000001001401C0000200D0A202A2A2A2A2A82
:1028C0002A2A2A2A2A2A2A2A2A2A2A2A2A2A2A2A68
:1028D0000D0A00000D0A202A2A2A2A2ABDE1CAF878
:1028E000D2BBB4CEB2C9D1F92A2A2A2A2A0D0A00AB
:1028F000615B305D3A000000615B315D3A000000D1
:10290000615B325D3A000000615B335D3A000000BC
:10291000615B345D3A000000615B355D3A000000A8
:10292000615B365D3A000000615B375D3A00000094
:1029300025303264253032642D253032642D253027
:10294000326400002100000020253032643A253036
:1029500032643A2530326420000000003F4D545765
:102960005446535300000000256300003F6F756517
:1029700068726175000000003F6E65647569746E71
:102980000000000025630A002DE9F041002400F05A
:102990001BF80EE00A4800F02BF807463846FDF712
:1029A0006DFC05462A460B4606A0FFF70FF9641C8E
:1029B00000BFB4F5C87FEDDB0020BDE8F08100006A
:1029C0000000484325660A00002006490860486068
:1029D0008860C8600861044848610448886102480A
:1029E000C861704750000020CDCC4C3E0AD7233C34
:1029F0002DE9F047044626480460024651681068F5
:102A0000FDF704FC224988600846C1684FF0804009
:102A1000FDF702FC82461E4881685046FDF7F9FB2F
:102A200081461B4801694846FDF79EFB80461848D1
:102A3000C1694046FDF7F0FB0646154A916890696A
:102A4000FDF7EAFB8146124AD1689068FDF7DEFB8C
:102A500082460F4841695046FDF7DEFB80464946F5
:102A6000FDF782FB07463146FDF77EFB0546084928
:102A700048682946FDF778FB054948600846C06864
:102A8000086108468068C86008464068BDE8F0876D
:102A9000500000200000000000000000002F000097
:102AA00000000700070000147F147F1400242A7F11
:102AB0002A12006264081323003649552250000090
:102AC0000503000000001C224100000041221C0000
:102AD0000014083E08140008083E0808000000A082
:102AE000600000080808080800006060000000207E
:102AF00010080402003E5149453E0000427F40005C
:102B0000004261514946002141454B3100181412E1
:102B10007F10002745454539003C4A4949300001AE
:102B20007109050300364949493600064949291EFD
:102B3000000036360000000056360000000814225F
:102B4000410000141414141400004122140800025F
:102B50000151090600324959513E007C1211127C84
:102B6000007F49494936003E41414122007F4141B1
:102B7000221C007F49494941007F09090901003EA3
:102B80004149497A007F0808087F0000417F4100E1
:102B9000002040413F01007F08142241007F404057
:102BA0004040007F020C027F007F0408107F003E3F
:102BB0004141413E007F09090906003E4151215E25
:102BC000007F091929460046494949310001017F22
:102BD0000101003F4040403F001F2040201F003FB8
:102BE0004038403F0063140814630007087008076A
:102BF00000615149454300007F41410000552A557D
:102C00002A55000041417F000004020102040040F7
:102C10004040404000000102040000205454547819
:102C2000007F484444380038444444200038444439
:102C3000487F00385454541800087E0901020018D7
:102C4000A4A4A47C007F080404780000447D400014
:102C5000004080847D00007F102844000000417FF8
:102C60004000007C04180478007C080404780038D4
:102C70004444443800FC242424180018242418FC5C
:102C8000007C0804040800485454542000043F44C5
:102C90004020003C4040207C001C2040201C003C88
:102CA0004030403C004428102844001CA0A0A07CD8
:102CB000004464544C44141414141414A1E6B9E2EE
:102CC000D5D5C7BFB6C8CEAAA3BACAAAB6C8CEAA17
:102CD000A3BACEC2B6C8CEAAA3BAB6FED1F5BBAFD0
:102CE000CCBCC5A8B6C8CEAAA3BAB2E2BEE0C0EBBF
:102CF000D6DCB3A4C3E6BBFDB6C8B8DFC6C2C4B653
:102D0000D2C7CBD1CBF7CEC0D0C7B4F3D0A1B2E9F4
:102D1000BCC7C2BCC9BEB3FDCFB5CDB3D6B5C9E83B
:102D2000B5A5BCDBB9ABC7EAD4AAD1AFC3BFB5E781
:102D3000B3D8D1B9BEADCEB3A1E3A94FD0CDBAC5FA
:102D4000B0E6B1BECAA3D3E0BFD5BCE4B7B5BBD82B
:102D5000CDCBB3F600000C120C00C07010080808B0
:102D6000081030000000000000000F183020202064
:102D700020301C000000000000002000FC84A09017
:102D8000988000000000404021190D03001F6040A2
:102D90004040603800000030C848F808C02018A43F
:102DA000E49C00000000203801020B10000F150405
:102DB00003083000000000C048483808003828E800
:102DC0002898880000000023427E02202325251F2A
:102DD000151A31000000000000F090B0F056D8281D
:102DE00048000000000020100C4340402D131E221C
:102DF000604040400000000000885840E05C4040D7
:102E000020E000000000000010080403000226601B
:102E10003807000000000000808000000000000073
:102E20000000000000000000313100000000000040
:102E30000000000000000040080808F8A8A8584852
:102E40007C080000000000380620202C3D23213F94
:102E5000242320200000000000F090B0F056D82875
:102E600048000000000020100C4340402D131E229B
:102E7000604040400000000000885840E05C404056
:102E800020E000000000000010080403000226609B
:102E900038070000000000008080000000000000F3
:102EA00000000000000000003131000000000000C0
:102EB000000000000000004008180008F8A868683A
:102EC00074180000000000300E22203E221E122E38
:102ED000221F12000000000000F090B0F056D82829
:102EE00048000000000020100C4340402D131E221B
:102EF000604040400000000000885840E05C4040D6
:102F000020E000000000000010080403000226601A
:102F10003807000000000000808000000000000072
:102F2000000000000000000031310000000000003F
:102F30000000000000000000000020202010101001
:102F40001000000000000010080808080808080821
:102F5000080C0C08000000000050C856F43424E0AF
:102F600020000000000000101014760F0909080F5F
:102F70003020407000000080609C040000FC8060F5
:102F80003000000000000100003F0404021F102078
:102F90002020301C000000008060101000B0E09C79
:102FA0009090080000040407090507484625100F03
:102FB000142262404000008088184020A0F01C10BD
:102FC000B0900000000000300C0804027F211206BF
:102FD000191010000000000000F090B0F056D82842
:102FE00048000000000020100C4340402D131E221A
:102FF000604040400000000000885840E05C4040D5
:1030000020E0000000000000100804030002266019
:103010003807000000000000808000000000000071
:10302000000000000000000031310000000000003E
:1030300000000000001060028C00FE02F202FE00A0
:10304000F800FF000004047E018047300F102700C5
:1030500047807F0000003E22E2223E00FE22222224
:103060002222E20200203F201F1111007F4444442D
:103070004444474000040404F484D4A5A6A4D484A2
:10308000F40404040000FE0202123A1613121A326B
:1030900042827E00000000FE82929292FE92929204
:1030A00082FE00000080601F00001E1212121E40EF
:1030B000807F00000080808080FF8080A0908884D6
:1030C000828080800000000000FF40211204081070
:1030D00020204040000202E22222F22E2222E2229E
:1030E00022E20202000000FF40407F4949497F4040
:1030F00040FF000000202424A4FE232220FC04041E
:103100000404FC000010080601FF01068063190199
:10311000010933C0000000FC242424FC252624FCE3
:10312000242424040040308F80844C5525252555C7
:103130004C8080800004040404F49495969494F4E4
:10314000040404040000FE02027A4A4A4A4A4A7A07
:103150000282FE00002020FF202000F8888888FFDF
:103160008888A8180010301F0888601F80432C1022
:1031700028468180000808C848484849CE48484841
:1031800048C80808000000FF444444447F444444C5
:1031900044FF000000008060F807001CE00106000A
:1031A000E01E000000010000FF00804020130C130F
:1031B0002040808000101010FF109000FE9180FFD2
:1031C0008092FE00000444827F01008082462A1320
:1031D0002A468280008060242424A4643F2424A4FE
:1031E0002424A0600000804829094D8D7B0B09280C
:1031F0004C98000000000202020202FE02020202DB
:1032000002FE0000004040404040407F40404041BE
:103210004241404000000000BE2A2A2AEA2A2A2A07
:103220003E00000000004442494949497F4949495C
:10323000494140000020202020202020FF20202085
:10324000202020200080804020100C0300030C1060
:103250002040808000000000E0000000FF0000002F
:103260002040800000080403000040807F00000030
:103270000000010E00404424A4948C84FF848C94AC
:10328000A4244440004040405F4A4A4A4A4A4A4ACD
:103290005F40404000404042CC0000008484848471
:1032A00084FC0000000000007F2010003F404040F0
:1032B00040414070008080829292929292929292CB
:1032C000FE80808000404022241048807F0408183F
:1032D000242240400080FE8282FE80FE8282FE80A8
:1032E00000F800FF00403F0020BF403F40807F00CB
:1032F000004F807F0000FE225A8620102824E324FD
:10330000281020200000FF040827110D41817F01B3
:103310000509310000000022322AA6A2622111090B
:103320008101000000004222130B42827E02020A49
:1033300012234600002030AC63300088C8A8998E64
:1033400088A8C8880022672212128040300F00002F
:103350003F40407100008060F80704E4A4A4BFA4CB
:10336000A4E4040000010000FF40407F4A4A4A4AAA
:103370004A7F404000404042CC0040A09E82828272
:103380009EA02020000000003F908840432C102881
:1033900046418080000000F8494A4C48F8484C4AB1
:1033A00049F800000010101312121212FF1212122C
:1033B0001213101000008060F8074020900C030CDE
:1033C0009020404000010000FF0080601F000000CE
:1033D000FF00000000008040201806800007182031
:1033E0004080000000010020702826212020243881
:1033F00060000101000000FE20202000F2121AD619
:103400001212F2020000001F080402804F20180769
:1034100010204F80002020222222E2222222E222BB
:103420002222202000804020100C030000003F409A
:103430004040407800404042CC0020D04C4B48C82F
:103440000808F800000000007F20101F1212125F11
:1034500080403F000020100CF31212529212121200
:10346000F20202000001011F1111111519519151B1
:103470003F111101000000F888888888FF8888883B
:1034800088F800000000001F080808087F88888866
:10349000889F80F000106002CC8080FC4020FF10EC
:1034A00008F800000004047E0100003F40404F4047
:1034B00044474078000000FE0282828282FA8282C3
:1034C000828282020080601F40404040407F404036
:1034D00044584040002030AC6320188082422212C1
:1034E0001A26428000226722121212404242427E75
:1034F00042424240002030AC63201800084848FF98
:10350000484848080022672212121200020202FFF5
:103510000212221E0000000000000C12120C00001B
:10352000000000000000000000000000000000009B
:1035300000000000000008F00808F00808F0002271
:1035400031292600000000070000070000070000E6
:1035500000000000002022A27E2222FE2222007C07
:103560000000FF0000444249484848497E48484816
:10357000494A414000808080BEA2A2A2A2A2A2A28B
:10358000BE808080000000000605040404448444DA
:103590003C0000000000FE20203F2000FC24E4242A
:1035A0002223E20000807F0101FF80601F8041260E
:1035B00018264180000010101010D030FF30D010BD
:1035C000101010000010080402090808FF0808097C
:1035D0000204081000484AFA0AFE09F949A8000046
:1035E000F00000FF0022110B04FF04091223000069
:1035F0000F40807F0080804020504844C3444850A2
:1036000020408080000040221A0242827F02020293
:103610000A12600000100C4424140405060404146B
:103620002444140C00004040414141417F4141414C
:10363000414040000000F8010600F0121212F202B0
:103640000202FE000000FF0000001F1111111F0008
:1036500040807F0000404042CC0000FC24A4242293
:1036600022A36200000040201F20584750484542D6
:1036700045485040000000FE0202F2121212F2020F
:1036800002FE00000000007F2020272424242720A1
:10369000207F000000404042CC0000FF4949C9495A
:1036A000497F8000000040201F20405F4844404187
:1036B000424558400000007C40404040FF404040B0
:1036C00040FC000000007C40404040407F404040C3
:1036D0004040FC000000000000000000000000006E
:1036E0000000000000000000F800000000000000E2
:1036F000333000000000100C06100C060000000023
:10370000000000000040C07840C0784000043F0442
:10371000043F040400007088FC08300000001820FA
:10372000FF211E0000F008F000E018000000211C3E
:10373000031E211E0000F00888700000001E2123D7
:10374000241927211010160E0000000000000000B0
:103750000000000000000000E0180402000000006B
:10376000071820400000020418E00000000040207C
:103770001807000000404080F08040400002020135
:103780000F01020200000000F00000000001010132
:103790001F01010100000000000000000080B07067
:1037A0000000000000000000000000000000010117
:1037B00001010101010000000000000000003030A4
:1037C0000000000000000000008060180400601885
:1037D000060100000000E010080810E000000F10D3
:1037E0002020100F00001010F80000000000202022
:1037F0003F20200000007008080888700000302872
:103800002422213000003008888848300000182029
:103810002020110E000000C02010F8000000070456
:1038200024243F240000F808888808080000192193
:103830002020110E0000E0108888180000000F11F1
:103840002020110E0000380808C8380800000000C9
:103850003F000000000070880808887000001C22EB
:103860002121221C0000E010080810E000000031B7
:103870002222110F00000000C0C000000000000064
:1038800030300000000000008000000000000080D8
:1038900060000000000000804020100800000102CD
:1038A0000408102000404040404040400004040410
:1038B00004040404000008102040800000002010D0
:1038C0000804020100007048080808F00000000029
:1038D0003036010000C030C828E810E00007182783
:1038E0002423140B000000C038E0000000203C231B
:1038F000020227382008F8888888700000203F20BE
:103900002020110E00C030080808083800071820D1
:10391000202010080008F808080810E000203F20C8
:103920002020100F0008F88888E8081000203F20A9
:10393000202320180008F88888E8081000203F207D
:103940000003000000C030080808380000071820F5
:1039500020221E020008F808000008F808203F2175
:103960000101213F20000808F8080800000020207D
:103970003F2020000000000808F8080800C08080F0
:10398000807F00000008F888C028180800203F2029
:10399000012638200008F8080000000000203F2021
:1039A000202020300008F8F800F8F80800203F0038
:1039B0003F003F200008F830C00008F808203F20F2
:1039C0000007183F00E01008080810E0000F102062
:1039D0002020100F0008F808080808F000203F21F8
:1039E0000101010000E01008080810E0000F182491
:1039F0002438504F0008F8888888887000203F20BD
:103A000000030C30200070880808083800003820B7
:103A10002121221C00180808F808081800000020BE
:103A20003F2000000008F808000008F808001F20E8
:103A30002020201F000878880000C83808000007F0
:103A4000380E010000F80800F80008F800033C07F1
:103A500000073C0300081868808068180820302C94
:103A600003032C30200838C800C8380800000020A4
:103A70003F2000000010080808C838080020382639
:103A80002120201800000000FE02020200000000B9
:103A90007F40404000000C30C000000000000000EB
:103AA000010638C00000020202FE00000000404093
:103AB000407F000000000004020202040000000039
:103AC0000000000000000000000000000080808076
:103AD000808080808000020204000000000000005E
:103AE0000000000000000080808080000000192499
:103AF0002222223F2008F8008080000000003F11B1
:103B00002020110E000000008080800000000E11B7
:103B10002020201100000000808088F800000E1195
:103B20002020103F200000808080800000001F22A5
:103B30002222221300008080F0888888180020202C
:103B40003F202000000000808080808000006B9477
:103B5000949493600008F8008080800000203F214A
:103B60000000203F200080989800000000002020E6
:103B70003F20200000000000809898000000C080D6
:103B800080807F000008F8000080808000203F24B3
:103B9000022D302000000808F8000000000020205E
:103BA0003F202000008080808080808000203F2097
:103BB000003F20003F8080008080800000203F2167
:103BC0000000203F200000808080800000001F2037
:103BD0002020201F00808000808000000080FFA146
:103BE0002020110E000000008080808000000E1157
:103BF0002020A0FF80808080008080800020203FE7
:103C0000212000010000008080808080000033249B
:103C10002424241900008080E0808000000000003F
:103C20001F202000008080000000808000001F20F6
:103C30002020103F20808080000080808000010EC6
:103C4000300806010080800080008080800F300CEA
:103C5000030C300F00008080008080800000203145
:103C60002E0E312000808080000080808080818E38
:103C70007018060100008080808080800000213064
:103C80002C2221300000000000807C020200000095
:103C900000003F404000000000FF00000000000066
:103CA00000FF0000000002027C8000000000404095
:103CB0003F000000000006010102020404000000B1
:103CC0000000000000000080C0E0F0F8FCF8F0E028
:103CD000C0800000000000000103070F1F0F070352
:103CE0000100000000000000083D00080000002066
:103CF0001C000000EC1B0008243D00081C000020F4
:103D000054040000FC1B0008000000000000010239
:103D10000304010203040607080902040608000060
:043D2000000000009F
:0400000508000131BD
:00000001FF
