:020000040800F2
:1000000048210020A1010008A9010008AB01000857
:10001000AD010008AF010008B101000800000000B8
:10002000000000000000000000000000B301000814
:10003000B501000800000000B7010008711A0008AF
:10004000BB010008BB010008BB010008BB010008A0
:10005000BB010008BB010008BB010008BB01000890
:10006000BB010008BB010008BB010008BB01000880
:10007000BB010008BB010008BB010008BB01000870
:10008000BB010008BB010008BB010008BB01000860
:10009000BB010008BB010008BB010008BB01000850
:1000A000BB010008BB010008BB010008BB01000840
:1000B000551B0008BB010008BB010008BB0100087C
:1000C000BB010008BB010008BB010008BB01000820
:1000D000BB010008011D0008111D0008211D0008BA
:1000E000BB010008BB010008BB01000800F002F8DA
:1000F00000F047F80AA090E8000C82448344AAF17B
:100100000107DA4501D100F03CF8AFF2090EBAE878
:100110000F0013F0010F18BFFB1A43F0010318473B
:10012000D4250000F4250000103A24BF78C878C117
:10013000FAD8520724BF30C830C144BF04680C60ED
:10014000704700000023002400250026103A28BF35
:1001500078C1FBD8520728BF30C148BF0B60704739
:10016000642900F04980002070471FB59DE8030016
:1001700000F0D8FB00F0A2F91FBD10B500F007FA9F
:1001800010BD00F06FFA1146FFF7EFFF02F026F9FD
:1001900000F074FB03B4FFF7F0FF03BC00F034FD84
:1001A0000948804709480047FEE7FEE7FEE7FEE70B
:1001B000FEE7FEE7FEE7FEE7FEE7FEE70448054947
:1001C000054A064B70470000F51A0008ED000008CC
:1001D000481B002048210020481D0020481D002009
:1001E0000FB4044910B503AA029800F039F910BC05
:1001F0005DF814FB401A00202DE9F041064600246A
:1002000010687529314616A510D0AFF3008000287C
:1002100002DA404213A507E031688A0701D512A52A
:1002200002E0490704D511A5012401E0AFF30080E5
:1002300000210A2206F1240709E0B0FBF2FCB0FB22
:10024000F2F302FB1C00303078541846491C002899
:10025000F3D123462A463046BDE8F04100F0A7B866
:10026000000000002D0000002B0000002000000016
:100270002DE9F05F894604464FF0000ADFF824B10B
:10028000FB44C0F820A02046E168884700287DD0C4
:10029000252806D0D4E901219047206A401C20621D
:1002A000F1E700255F462046E1688847202806469A
:1002B00007DB312E05D2B81910F8200C08B1054320
:1002C000F1E7A80701D525F00405C4F81CA0002714
:1002D000C4F818A02A2E09D0304601F0D7FE38B352
:1002E00004EB8708303EC8F8186019E059F8041B81
:1002F000204604EB87029161E1688847012F06469A
:1003000018D1E069002820DA25F020051DE0D8F892
:10031000180000EB800006EB40003038C8F81800E9
:100320002046E1688847064601F0B0FE0028EED17D
:10033000012F0AD02E2E08D12046E16888477F1C65
:100340000646022F45F02005C4DBA069002803DA29
:10035000404245F00105A061E80701D025F01005F5
:10036000A6B1A6F14100192802D8203645F400654F
:100370004A463146204625604D46FFF7F1FE60B102
:10038000012807D0ED1D25F0070000E007E000F18F
:10039000080978E705F1040975E730467AE7206A2D
:1003A000BDE8F09F522400007047704770472DE968
:1003B000F0470D4699469246044600F1240801682C
:1003C000880604D5E06921F01001216000E00120D9
:1003D000A84201DD471B00E00027A1697A1902EB62
:1003E0000900081AA0612078C00602D42046AFF3A5
:1003F0000080002608E0D4E901211AF806009047A1
:10040000206A401C761C20624E45F4DB2078C00632
:100410000AD52046AFF3008006E0D4E90121302060
:100420009047206A401C2062381EA7F10107F4DCC7
:1004300007E0D4E9012118F805009047206A401C24
:100440002062281EA5F10105F3DC2046AFF30080F1
:100450002078000602D50220BDE8F0870120FBE7E6
:10046000074B70B50D467B4400F011F80446284652
:1004700000F020F810B14FF0FF3070BD204670BD85
:10048000B31E000001694A1C02610878704700B57C
:100490008FB0CDE901310021059105497944CDE9BD
:1004A000031011466846FFF7E3FE0FB000BD0000E1
:1004B000E5FFFFFF007B00F08000704710B5424869
:1004C000542100F0EBF94148542100F0E7F940488D
:1004D000542100F0E3F93F493B483C4A3F4B086058
:1004E0003D490A603A491960531C0365481C106570
:1004F000012008653B48344A39A1784400F022F9CC
:1005000020B9384878440A3800F0C1F937482F4AF2
:1005100035A1784400F016F920B9344878440A38F7
:1005200000F0B5F932482A4A2FA1784400F00AF9C0
:1005300020B92F4878440A3800F0A9F9402322480E
:10054000DC000021224600F0D9F820B1254878448B
:10055000543800F09CF91D4822464023002100F049
:10056000CDF820B121487844543800F090F918486B
:1005700022461023002100F0C1F8002806D01C48B4
:100580007844BDE81040563800F081B910BD1048DD
:1005900070B5006D20F001040B4800F049F90B48DC
:1005A00000F046F90A4800F043F909E0206D20F018
:1005B0000105204600F03CF9204600F078F82C4672
:1005C000002CF3D170BD0000EC190020401A00206F
:1005D000941A00204C0000205000002054000020FD
:1005E00072000000E921000077000000D521000022
:1005F000C12100000EB5CDE9000101F063FF0290BA
:1006000069460120ABBE0EBD08B5694600900220C8
:10061000ABBE08BD1FB58DE8070069460520ABBE1F
:1006200004B010BD1FB58DE80F0069460620ABBEB3
:10063000F6E708B5694600900920ABBE08BD1CB5B9
:10064000CDE9000169460A20ABBE1CBD704708B564
:10065000694600900C20ABBE08BD00000048704702
:10066000E81A00207546FFF7F9FFAE460500694617
:10067000534620F00700854618B020B5FFF79EFDD1
:10068000BDE820404FF000064FF000074FF0000893
:100690004FF0000B21F00701AC46ACE8C009ACE814
:1006A000C009ACE8C009ACE8C0098D46704770B518
:1006B0000446051F00F01AF90068002C14BF4468B6
:1006C00070BD002C18BFAC423CBF20466468F8D314
:1006D00001680A18AA4218BF456003D12A68054676
:1006E0001144016028684119A1421CBF6C6070BDB3
:1006F0006168696021680844286070BD70B5C4688D
:10070000A50713D0650211D4B2F5807F09D0B2F5E8
:10071000007F06D0B2F5806F08D1012300F12401DB
:1007200006E05D1E6FF07F46B54201D3012070BD2B
:100730000161C361416024F470611143C160002014
:1007400070BD00002DE9F0410C46074616461046E4
:1007500000F06EF82078611C61280AD0722802D05F
:1007600077283CD102E00125002405E0022504247D
:1007700002E0082448F2020511F8010B2B2806D0EC
:10078000622809D011F8010C74280AD00BE045F05A
:10079000030544F00204EFE745F0040544F00104CA
:1007A000EAE744F0100438462146FFF723FF411CD6
:1007B00015D00021316171604FF40071F560F16175
:1007C0007061200704D530460222002100F008F9AC
:1007D000306D40F0010030653046BDE8F08100200A
:1007E000FBE72DE9F0410D460646104C206DC10790
:1007F00004D0410804D020F00104F7E722460EE0BF
:10080000542000F0BEF807000ED0206D47F0010123
:10081000084354212065384600F040F83A462946FE
:100820003046BDE8F0418DE70020D6E7EC19002006
:100830002DE9F04704464FF000094FF0FF37C56837
:10084000D4E90486A80707D0204600F079F930469D
:10085000FFF7DAFE002802DA3846BDE8F0872805FF
:1008600002D54046FFF723FF4C21204600F016F842
:10087000206D20F0010020654846EEE710B50446E3
:10088000AFF300802046BDE81040FFF783BC10B5F1
:1008900000F0A0F9BDE8104000F096B94FF000025A
:1008A00000B5134694469646203922BFA0E80C5066
:1008B000A0E80C50B1F12001BFF4F7AF090728BF41
:1008C000A0E80C5048BF0CC05DF804EB890028BFBD
:1008D00040F8042B08BF704748BF20F8022B11F0E6
:1008E000804F18BF00F8012B7047704700487047D1
:1008F000F01A0020704770477047704738B50446BB
:100900000A4600206946AFF30080002808BF38BDC2
:1009100002460099204600F084F9012038BD0120EC
:1009200000F0D3B9F8B5AFF30080054600200C46BF
:10093000102000BF0646A819A0420DD932466946CC
:100940000020AFF30080070008BF00F0BEF9009858
:10095000A04218BF0546C419FFF7C8FF0560074647
:10096000F01D20F007004619284600F053F9B44264
:1009700008BFF8BDA21B31463868BDE8F84000F05A
:1009800050B970B50646FFF7B1FF056806F10B00D8
:1009900020F00704B4429CBF002070BD2B466A685B
:1009A000BAB11068A04210D304F1080188423CBFDC
:1009B0005068586007D35168101941601168091BCD
:1009C000016058601460101D70BD13465268002A03
:1009D000E7D121462846FFF791FF0028DED170BD00
:1009E0002DE9F041044616460D464769007B800715
:1009F0002ED03846FFF71DFE50BB3EB3012E02D06D
:100A0000022E25D104E0204600F025F905441DE022
:100A10003846FFF71CFEE168002841F01001E16054
:100A200005DA204600F058F80120BDE8F081C9033E
:100A30000BD56268E16A914200D81146A26911445F
:100A40002269891A814200DD08460544002D01DA39
:100A50000220EAE7E16A6068E268814206D2910317
:100A6000E06203D522F4003141F01002A6690027AC
:100A7000AE4213DCE16A814201D90B4600E0034635
:100A800003EB060C2369ACEB030CAC4506DD81429D
:100A900001D98C4600E084469C4505D1A7602760BB
:100AA00042F02000A5620DE0AD1BE669AE1B81425D
:100AB000A66000D90846C01A281A2060581960603C
:100AC00022F0200003490840E060002084F84870CC
:100AD000ABE70000BFCFD7FFC16821F4001141F0A0
:100AE0008001C16000218160016070472DE9F047FD
:100AF000814614460E464FF0FF383248D568576994
:100B0000054209D03846A169FFF799FD002811DB9D
:100B10002C48C0430540E5602B46324649463846DE
:100B2000FFF778FDA16920F00042B21A11440028B5
:100B3000A16103D02046FFF7CFFF4046BDE8F08714
:100B400070B504460569C06A6168884200D80846E5
:100B5000E16821F42011E160C90312D5A84208D050
:100B60002246411B2846FFF7C1FF10B14FF0FF306E
:100B700070BD0020E562C4E90150E06820F48030D7
:100B8000E060002070BD10B50446C06820F0200071
:100B9000E060A16AA06988420DD02046FFF7D0FF2F
:100BA000E06820F4405040F01000E060A06AA061CE
:100BB0002069E062606044F24001E0688843E060E0
:100BC00010BD000010000200002801D000F01CB889
:100BD0007047000010B5014602A000F05DF801204A
:100BE00010BD000053494752545245443A205265C3
:100BF0006469726563743A2063616E2774206F7054
:100C0000656E3A200000000001491820ABBEFEE7E7
:100C10002600020000210160C0E901107047102089
:100C20007047034640688C46002818BF88423CBF86
:100C300003464068F8D318681844884207D00CF17E
:100C4000030020F00700001D411A521A0146081D3A
:100C50000A60FFF72CBD10B50146C268900703D0AB
:100C6000900607D5886A0AE000F03EF8012101608D
:100C7000881E10BD8B69486818440B69C01A91F82A
:100C800048301BB191F84910401A10BD1103FCD532
:100C90000028FADD401E10BD70B505460C460A203E
:100CA00000E06D1C00F018F835B128780028F8D164
:100CB00002E0641C00F010F814B120780028F8D18C
:100CC000BDE870400A2000F007B810B500F010F839
:100CD000BDE81040FFF778BF08B569468DF8000001
:100CE0000320ABBE08BD000000487047E81A002092
:100CF00010B5012805D0002103A0FFF7CDFF01208A
:100D000010BD09A1F8E7000053494752544D454D25
:100D10003A204F7574206F662068656170206D659C
:100D20006D6F7279000000003A2048656170206D97
:100D3000656D6F727920636F72727570746564008F
:100D4000014648780A7840EA0220704770B50246AA
:100D50000C46FF25FF2309E012F8010B80EA05018C
:100D60000648405C80EA03050548435C201EA4F168
:100D70000106B4B2F0D143EA052070BDD6240008C4
:100D8000D625000808B525208DF8000000208DF834
:100D9000020001208DF80300684600F0ADFB26201C
:100DA0008DF8000001208DF802008DF803006846E0
:100DB00000F0A2FB27208DF8000002208DF8020031
:100DC00001208DF80300684600F096FB08BD000086
:100DD00010B504462948844208D10121042000F0BE
:100DE000FDFB0021042000F0F9FB46E0244884428A
:100DF00008D10121082000F0F1FB0021082000F0BB
:100E0000EDFB3AE01F48844208D10121102000F098
:100E1000E5FB0021102000F0E1FB2EE01A4884429F
:100E200008D10121202000F0D9FB0021202000F072
:100E3000D5FB22E01548844208D10121402000F072
:100E4000CDFB0021402000F0C9FB16E01048844291
:100E500008D10121802000F0C1FB0021802000F09A
:100E6000BDFB0AE00B48844207D10121801500F048
:100E7000B5FB0021A01500F0B1FB10BD000801403A
:100E8000000C014000100140001401400018014016
:100E9000001C0140002001402DE9F04102460025E0
:100EA0000026002000230024002791F803C00CF046
:100EB0000F0591F803C00CF0100CBCF1000F03D02B
:100EC00091F802C04CEA050591F800C0BCF1000F92
:100ED00031D0146800202BE04FF0010C0CFA00F325
:100EE000B1F800C00CEA03069E4220D183004FF007
:100EF0000F0C0CFA03F7BC4305FA03FC4CEA04049C
:100F000091F803C0BCF1280F06D14FF0010C0CFA88
:100F100000FCC2F814C00AE091F803C0BCF1480F0D
:100F200005D14FF0010C0CFA00FCC2F810C0401CB7
:100F30000828D1D31460B1F800C0BCF1FF0F34DD34
:100F4000546800202EE000F1080C4FF0010808FA68
:100F50000CF3B1F800C00CEA03069E4221D18300D5
:100F60004FF00F0C0CFA03F7BC4305FA03FC4CEAF4
:100F7000040491F803C0BCF1280F05D100F1080C5E
:100F800008FA0CF8C2F8148091F803C0BCF1480FBD
:100F900007D100F1080C4FF0010808FA0CF8C2F86C
:100FA0001080401C0828CED35460BDE8F0810000BA
:100FB000F0B50A46002300240021002500F0004679
:100FC000B6F1004F02D11D4EF16901E01B4E716870
:100FD000C0F3034583B200F44016B6F5401F08D1B4
:100FE00021F07061154E766826F07066134F7E60B2
:100FF00012E000F48016B6F5801F06D1032606FA2B
:1010000005F4A14341F0706106E0460D360103FA94
:1010100006F6B14341F0706122B1460D360103FA84
:1010200006F6314300F00046B6F1004F02D1034E00
:10103000F16101E0014E7160F0BD0000000001406F
:101040000146886880B270470146C86880B2704720
:1010500002460020D3680B400BB1012000E00020C5
:1010600070474161704701617047C160704700007F
:1010700000B585B00121052000F0A0FA0121880308
:1010800000F09CFA4FF40070ADF8100018208DF8B5
:10109000130003208DF8120004A96648FFF7FCFE38
:1010A0004FF48060ADF8100004208DF8130004A9FF
:1010B0006048FFF7F1FE4FF4E13000900020ADF8FA
:1010C0000400ADF80600ADF80800ADF80C000C20E7
:1010D000ADF80A006946584800F08EFE012240F241
:1010E0002551554800F063FE0121534800F029FEC8
:1010F0004021514800F01CFE0121052000F05EFA5D
:101100000121480400F03AFA0420ADF8100018203C
:101110008DF8130003208DF8120004A94548FFF74D
:10112000BBFE0820ADF8100004208DF8130004A9C0
:101130004048FFF7B1FE04A93E48FFF7ADFE4FF46B
:10114000E13000900020ADF80400ADF80600ADF8E5
:101150000800ADF80C000C20ADF80A0069463748CD
:1011600000F04AFE012240F22551344800F01FFEF3
:101170000121324800F0E5FD4021304800F0D8FD63
:101180000121082000F01AFA10208DF81300032026
:101190008DF812004FF40070ADF8100004A9284833
:1011A000FFF77AFE0121092000F008FA01218804E6
:1011B00000F0E4F94FF48060ADF8100018208DF8CD
:1011C000130003208DF8120004A91D48FFF764FEE8
:1011D0004FF40060ADF8100004208DF8130004A94E
:1011E0001748FFF759FE04A91548FFF755FE4FF4BD
:1011F000165000900020ADF80400ADF80600ADF8E0
:101200000800ADF80C000C20ADF80A0069460D4846
:1012100000F0F2FD012240F225510A4800F0C7FD1E
:101220000121084800F08DFD4021064800F080FDB6
:1012300005B000BD000801400038014000440040F6
:10124000000C01400048004010B5154840780428C3
:1012500017D006DC01280BD002280CD003281CD1A3
:101260000CE0052810D0062811D0102815D111E067
:1012700000F03CF812E000F06DF80FE000F098F894
:101280000CE000F0BDF809E000F0DCF806E000F04A
:10129000E9F803E000F0F6F800E000BF00BF10BD81
:1012A0005800002010B50F48007800B910BD00208C
:1012B0000C4908700C4890F84000042800DA0AE055
:1012C000094890F84010FFF741FD044604B102E0E0
:1012D000FFF7BAFF00BF0020034981F8400000BFBC
:1012E000E4E70000000000205800002070B5174817
:1012F00090F84000002828DD14488578B0F8C60032
:10130000A0F2011000BB082D1DD1104CE41C20469A
:10131000FFF716FD0E498881A41C2046FFF710FD3B
:101320000B49C881A41C2046FFF70AFD0849088222
:10133000A41C2046FFF704FD05494882A41C012097
:10134000024981F8CF0000BF00BF70BD58000020E7
:101350002E01002070B5144890F84000002822DDCE
:1013600011488578B0F8C800A0F20120D0B9062D48
:1013700017D10D4CE41C2046FFF7E2FC0B49888096
:10138000A41C2046FFF7DCFC0849C880A41C2046AA
:10139000FFF7D6FC05490881A41C0120024981F809
:1013A000D00000BF00BF70BD580000202E010020FB
:1013B00070B5114890F8400000281CDD0E48857873
:1013C000B0F8CA00A0F20130A0B9202D11D10A4C0A
:1013D000E41C2046FFF7B4FC08490880A41C204602
:1013E000FFF7AEFC05494880A41C0120E11F81F8ED
:1013F000D10000BF00BF70BD580000202E010020AA
:1014000070B50E4890F84000002816DD0B4884782F
:10141000B0F8CC00A0F2012070B9022C0BD1074D1E
:10142000ED1C2846FFF78CFC05494881AD1C0120C6
:10143000691F81F8D20000BF00BF70BD58000020B6
:101440002E010020064890F84000002806DD0448E0
:101450000078012802D1024981F8D30070470000CA
:1014600058000020064890F84000002806DD044897
:101470000078012802D1024981F8D40070470000A9
:1014800058000020064890F84000002806DD044877
:101490000078012802D1024981F8D5007047000088
:1014A0005800002070B5044600200D49087040F631
:1014B0003D650C4A2946032000F08AFE0A4890F850
:1014C000400040280ADA084890F8401090F84000A0
:1014D000401C054A82F840001046445470BD00008C
:1014E00000000020ED1400085800002001200149F0
:1014F000087070470000002070B5002100230F2203
:10150000C47804B3154C246804F4E064C4F5E064C2
:10151000210AC1F10403CA40447804FA03F1847833
:101520001440214309010E4C0678A155047804F0BB
:101530001F050124AC4005786D11AD0005F1E025D3
:10154000C5F8004109E0047804F01F050124AC400F
:10155000044D0678761145F8264070BD0CED00E08C
:1015600000E400E080E100E002490143024A11602A
:10157000704700000000FA050CED00E029B1064AB2
:10158000D2690243044BDA6104E0034AD269824320
:10159000014BDA61704700000010024029B1064A91
:1015A00012690243044B1A6104E0034A1269824340
:1015B000014B1A61704700000010024029B1064A31
:1015C00092690243044B9A6104E0034A92698243A0
:1015D000014B9A61704700000010024029B1064A91
:1015E000D2680243044BDA6004E0034AD2688243C3
:1015F000014BDA60704700000010024030B5002156
:101600000022002400232D4D6D6805F00C0121B14E
:10161000042905D0082923D105E0294D056022E0E1
:10162000274D05601FE0254D6D6805F47012234DB0
:101630006D6805F48034022505EB92421CB9214DFA
:10164000554305600BE01D4D6D6805F400351DB177
:101650001C4D5543056002E0194D5543056002E0FD
:10166000174D056000BF00BF144D6D6805F0F00117
:101670000909154D6B5C0568DD4045600F4D6D68CF
:1016800005F4E061090A104D6B5C4568DD4085603A
:101690000A4D6D6805F46051C90A0B4D6B5C4568D5
:1016A000DD40C560054D6D6805F44041890B074D6F
:1016B0006B5CC568B5FBF3F5056130BD00100240F9
:1016C00000127A0000093D002100002031000020B6
:1016D00008B501210820FFF771FF03208DF80200F3
:1016E00010208DF803004001ADF800006946024863
:1016F000FFF7D2FB08BD0000000C014010B5044606
:101700002046FFF7CFFE10BD4FF40070014908607E
:1017100070470000100C01404FF400700149086050
:1017200070470000140C014021B1028842F04002D1
:10173000028004E002884FF6BF731A4002807047AF
:1017400000B587B001210820FFF738FF0121880389
:10175000FFF714FF4FF4E050ADF8180003208DF8A8
:101760001A0010208DF81B0006A92748FFF794FBEC
:101770004FF4E0512448FFF776FC4FF48040ADF879
:10178000180048208DF81B0006A91F48FFF784FBAE
:101790004FF42040ADF8180018208DF81B0006A962
:1017A0001948FFF779FB4FF420411748FFF75BFC1E
:1017B000164800F02DF80020ADF804004FF48270B8
:1017C000ADF806000020ADF808000220ADF80A00D0
:1017D0000120ADF80C004002ADF80E003820ADF845
:1017E00010000020ADF812000720ADF8140001A988
:1017F000064800F047F801210448FFF795FF002054
:1018000000F05EF807B000BD000C01400038004059
:1018100010B504461148844208D101218014FFF715
:10182000DDFE0021A014FFF7D9FE16E00C4884422B
:1018300008D101210014FFF7B1FE00212014FFF7A9
:10184000ADFE0AE00748844207D10121C013FFF72B
:10185000A5FE0021E013FFF7A1FE10BD00300140FE
:1018600000380040003C00400246002013890B4035
:101870000BB1012000E000207047014688897047C5
:101880008181704710B50022028802F441520B8812
:101890004C8823438C882343CC8823430C892343DF
:1018A0004C8923438C892343CC8923431A430280E8
:1018B000838B4FF2FF74234083830B8A038210BD16
:1018C00070B50546002405E0601CC4B2C82C01DDDB
:1018D000002070BD02210E48FFF7C6FF0028F3D09C
:1018E00029460B48FFF7CCFF002405E0601CC4B27A
:1018F000C82C01DD0020ECE701210548FFF7B4FF0B
:101900000028F3D00248FFF7B8FFC0B2E1E70000BB
:101910000038004010B54FF44070FFF725FE01215C
:101920007D20FFF74BFE01211048FFF741FB01210D
:101930000F48FFF73DFB0F48FFF74AFA0E48FFF745
:1019400047FA0E48FFF744FA0D48FFF741FA0D48F1
:10195000FFF73EFA00F024FC00F0D4FBFFF7F0FEA6
:1019600000F092FD00F0E2FC10BD00000004300029
:101970000002300000080140000C0140001001404E
:10198000001401400018014010B500F001F810BD2E
:101990000CB50020019000903348006840F480307E
:1019A0003149086000BF3048006800F40030009002
:1019B0000198401C0190009818B90198B0F5A06FEB
:1019C000F1D12948006800F4003010B101200090E6
:1019D00001E0002000900098012843D123480068CE
:1019E00040F01000214908600846006820F003001C
:1019F00008600846006840F0020008601A48406825
:101A0000194948600846406848600846406840F404
:101A1000806048600846406820F47C1048600846B2
:101A2000406840F4E81048600846006840F0807064
:101A3000086000BF0C48006800F000700028F9D072
:101A40000948406820F0030007494860084640689C
:101A500040F00200486000BF0348406800F00C00FE
:101A60000828F9D10CBD00000010024000200240FF
:101A700010B500F001F810BD10B51948006840B16C
:101A800017480068401E1649086010B90120154922
:101A90000870002408E004EB4401134A02EB8100C3
:101AA00000F088FB601CC4B2042CF4DB0F48006813
:101AB000401C0E490860084600686FF000418842EB
:101AC00002D100200949086009480078401CC0B2D2
:101AD000074908700A2801DB0020087010BD0000CB
:101AE0000400002008000020BC1900200C00002089
:101AF0002000002010B51348006840F00100114993
:101B0000086008464068104908400E494860084689
:101B100000680E4908400B4908600846006820F438
:101B2000802008600846406820F4FE0048604FF4BA
:101B30001F008860FFF728FF4FF00060044908602D
:101B400010BD0000001002400000FFF8FFFFF6FE8D
:101B500008ED00E010B50221480700F05BF858B12D
:101B60000221480700F044F800220221480700F053
:101B700062F81B48006880470421080700F04AF813
:101B800058B10421080700F033F8002204210807A7
:101B900000F051F81348006880470821C80600F09B
:101BA00039F858B10821C80600F022F800220821AF
:101BB000C80600F040F80C480068804710218806ED
:101BC00000F028F858B11021880600F011F8002222
:101BD0001021880600F02FF804480068804710BDE7
:101BE0001000002014000020180000201C0000201D
:101BF000CA430282704721B1028842F0010202808A
:101C000004E002884FF6FE731A40028070470146D6
:101C1000888C704730B50246002000230024158AC6
:101C200005EA0103958905EA010413B10CB101200D
:101C300000E0002030BD1AB183890B43838102E0AC
:101C400083898B4383817047818670470187704702
:101C500081877047A0F8401070470000002202887A
:101C60001D4B98420ED01D4B98420BD0B0F1804FC7
:101C700008D01B4B984205D01A4B984202D01A4B01
:101C8000984204D14FF68F731A404B881A43174B72
:101C9000984207D0164B984204D04FF6FF431A40A3
:101CA000CB881A4302808B8883850B8803850A4B77
:101CB00098420BD0094B984208D00E4B984205D061
:101CC0000D4B984202D00D4B984201D10B7A0386FE
:101CD0000123838270470000002C01400034014042
:101CE0000004004000080040000C004000100040CC
:101CF0000014004000400140004401400048014001
:101D000010B5024800F0EDF810BD000044010020BD
:101D100010B5024800F0E5F810BD00006C09002085
:101D200010B5024800F0DDF810BD0000941100204D
:101D300001F40072B2F5007F00D100BFCA430280F7
:101D4000704721B1828942F40052828104E0828985
:101D50004DF6FF731A408281704770B50246002429
:101D600000230025002040F66A16B14200D100BFD2
:101D7000C1F3421501F01F03012606FA03F3012DFA
:101D800002D19689334006E0022D02D1168A3340F3
:101D900001E0968A33400C12012606FA04F41688F4
:101DA000344013B10CB1012000E0002070BDF0B54B
:101DB0000346002400260025002040F66A17B94299
:101DC00000D100BF1846C1F3421401F01F060127DD
:101DD00007FA06F5012C01D10C3004E0022C01D1E8
:101DE000103000E014301AB107682F43076002E09A
:101DF0000768AF430760F0BD2DE9F04786B00546A0
:101E00000E460024A24600BFA1460027B08900B1BB
:101E100000BF2F462C8A4CF6FF700440F088044324
:101E20002C82AC894EF6F3100440B0883189084307
:101E3000718908430443AC81AC8A4FF6FF400440EB
:101E4000B0890443AC8201A8FFF7D8FB1F48874242
:101E500002D1DDF810A001E0DDF80CA0A88900F4A3
:101E6000004040B10AEBCA0000EB0A10316849009B
:101E7000B0FBF1F807E00AEBCA0000EB0A1031688A
:101E80008900B0FBF1F86420B8FBF0F004012009F0
:101E9000642101FB1089A88900F4004040B1322080
:101EA00000EBC900B0FBF1F000F00700044308E0CC
:101EB000322000EB09106421B0FBF1F000F00F00BC
:101EC00004432C8106B0BDE8F087000000380140D3
:101ED00001468888C0F308007047C1F30802828079
:101EE000704770B5044640F225512068FFF735FF72
:101EF000E0B12068FFF7ECFFC5B2E18AA068455465
:101F0000E08A401C80B2E082E189884201DB002047
:101F1000E082608BE189884202DA608B401C60833A
:101F2000606A10B12846616A884700BF40F2277195
:101F30002068FFF712FF08B3A08A60B9002240F2C0
:101F400027712068FFF733FF012240F226612068E5
:101F5000FFF72DFF37E0638A6268D15C2068FFF7E6
:101F6000BCFF608A401C80B26082A189884201DB8C
:101F700000206082A08A401EA08224E040F22661F8
:101F80002068FFF7EAFEF0B1A08A50B9002240F2C3
:101F900026612068FFF70BFF206AA0B1206A804706
:101FA00011E0638A6268D15C2068FFF796FF608A5F
:101FB000401C80B26082A189884201DB00206082DF
:101FC000A08A401EA08270BD214822490860224894
:101FD0004860224888604FF480608881C881002072
:101FE00008824882C882088348838882C861086260
:101FF00048621B481B4908601B4848601B488860B2
:102000004FF480608881C881002008824882C8829D
:10201000088348838882C861086248621448154969
:10202000086015484860154888604FF480608881D2
:10203000C881002008824882C88208834883888239
:102040000F48C8610F4808620F4848627047000097
:1020500000380140440100206C0100206C05002084
:10206000004400406C09002094090020940D0020D9
:102070000048004094110020BC110020BC15002035
:102080000917000819170008FD16000830380A283B
:1020900001D2012070470020704700007FB5012168
:1020A0000846FFF76BFA1548006846081448B6FB67
:1020B000F0F085B24FF6FF74ADF80840ADF804506B
:1020C0000020ADF80A00ADF8060001A94FF08040ED
:1020D000FFF7C4FD01218807FFF78DFD1C208DF857
:1020E000000004208DF8010000208DF8020001207E
:1020F0008DF803006846FFF7FFF97FBD3800002028
:1021000040420F0070B5002416E0002004EB4401AB
:102110001F4A02EB8101486004EB440102EB81019C
:10212000886004EB440102EB8101487004EB440138
:1021300002F82100601CC4B2042CE6DB15480068DC
:102140004FF47A72B0FBF2F1481EB0F1807F00D3F9
:102150001BE0481E4FF0E022506150170F2200286C
:1021600004DB13071D0E0C4B1D5406E013071E0E57
:102170000A4B00F00F052D1F5E5500BF00204FF0E9
:10218000E02290610720106100BFFFF787FF70BD5C
:10219000BC1900203800002000E400E018ED00E049
:1021A00010B5FFF711FFFEF763FFFFF791FAFEF797
:1021B000E9FD10BD416851B14168491E416031B926
:1021C000012141700178012901D181684160704786
:1021D0002DE9F04104460F461546052F00D37F1F19
:1021E0004FF08040FFF713FD804608EB0706012CF7
:1021F0000FD125480560B1B2A007FFF725FD0221E8
:102200004807FFF7F5FC012202214807FFF713FDFD
:1022100038E0022C0FD11D480560B1B26007FFF70E
:1022200015FD04210807FFF7E3FC0122042108073C
:10223000FFF701FD26E0032C10D115480560B1B26F
:102240004FF08040FFF704FD0821C806FFF7D0FCDF
:1022500001220821C806FFF7EEFC13E0042C0FD181
:102260000C480560B1B22007FFF7F4FC1021880686
:10227000FFF7BEFC012210218806FFF7DCFC01E01D
:10228000BDE8F08100BFFBE7100000201400002033
:10229000180000201C00002010B54FF480610C488D
:1022A000FEF7DFFE4FF400510948FEF7DAFE094859
:1022B000FEF7C6FE04464FF400510548FEF7D3FE74
:1022C0004FF480610248FEF7CEFEE4B2204610BD16
:1022D00000100140000C014070B504464FF48041ED
:1022E0000D48FEF7BEFE4FF480510B48FEF7B9FED5
:1022F0000948FEF7A9FE054644EA05010648FEF72F
:10230000B4FE4FF480510448FEF7ADFE4FF4804117
:102310000148FEF7A8FE70BD0010014070B50446EC
:102320000D46E0B200F074F8204670BD08B5FF20FD
:10233000ADF8000004208DF8030069460848FEF758
:10234000ABFD4FF47050ADF8000010208DF8030085
:1023500003208DF8020069460248FEF79DFD08BD86
:10236000000C01400010014070B505464FF480613B
:102370001848FEF776FE4FF400611648FEF771FE2E
:102380004FF480511348FEF76EFE1348FEF758FED7
:102390000446E4B22C8000BF00BF4FF400610D483A
:1023A000FEF761FE4FF480510A48FEF75AFE0A48D4
:1023B000FEF746FE0446E4B24FF6FF7000EA04243E
:1023C0002888204328804FF480610248FEF74BFEA6
:1023D00070BD000000100140000C014008B5FFF77F
:1023E00099FA10E06846FFF7BFFFFFF755FF044674
:1023F0000820FFF771FF2246BDF8001002A0FDF78C
:10240000EFFEFEF74FFFEDE725642C25640000008A
:1024100070B504464FF480411A48FEF722FE4FF48F
:1024200000611848FEF71DFE00BF4FF4007115480B
:10243000FEF70EFE0028F8D14FF480711148FEF728
:1024400012FE1048FEF700FE054644EA05010D485D
:10245000FEF70BFE4FF480710A48FEF702FE00BF44
:1024600000BF4FF480710748FEF7FDFD4FF4804137
:102470000448FEF7F8FD4FF400610248FEF7F3FD53
:1024800070BD00000010014008B540F2FF10ADF82B
:10249000000010208DF8030003208DF8020069462B
:1024A0000748FEF7F9FC4FF40070ADF80000042077
:1024B0008DF8030069460248FEF7EEFC08BD0000F7
:1024C000001001400146002000E0401C11F8013BD3
:1024D000002BFAD1704700C1814001C0804101C08A
:1024E000804100C1814001C0804100C1814000C1E4
:1024F000814001C0804101C0804100C1814000C1D4
:10250000814001C0804100C1814001C0804101C0C3
:10251000804100C1814001C0804100C1814000C1B3
:10252000814001C0804100C1814001C0804101C0A3
:10253000804100C1814000C1814001C0804101C093
:10254000804100C1814001C0804100C1814000C183
:10255000814001C0804101C0804100C1814000C173
:10256000814001C0804100C1814001C0804101C063
:10257000804100C1814000C1814001C0804101C053
:10258000804100C1814001C0804100C1814000C143
:10259000814001C0804100C1814001C0804101C033
:1025A000804100C1814001C0804100C1814000C123
:1025B000814001C0804101C0804100C1814000C113
:1025C000814001C0804100C1814001C0804101C003
:1025D000804100C1814000C0C101C30302C2C606E0
:1025E00007C705C5C404CC0C0DCD0FCFCE0E0ACA4B
:1025F000CB0BC90908C8D81819D91BDBDA1A1EDE9B
:10260000DF1FDD1D1CDC14D4D515D71716D6D2124A
:1026100013D311D1D010F03031F133F3F23236F65A
:10262000F737F53534F43CFCFD3DFF3F3EFEFA3A0A
:102630003BFB39F9F83828E8E929EB2B2AEAEE2E9A
:102640002FEF2DEDEC2CE42425E527E7E62622E20A
:10265000E323E12120E0A06061A163A3A26266A65A
:10266000A767A56564A46CACAD6DAF6F6EAEAA6ACA
:102670006BAB69A9A86878B8B979BB7B7ABABE7E1A
:102680007FBF7DBDBC7CB47475B577B7B67672B2CA
:10269000B373B17170B0509091519353529296565A
:1026A0005797559594549C5C5D9D5F9F9E5E5A9A8A
:1026B0009B5B99595898884849894B8B8A4A4E8E1A
:1026C0008F4F8D4D4C8C448485458747468682428A
:1026D00043834181804004000008000000000000A6
:1026E000000200010000103A7474003A7474003A59
:1026F0007474000014270008000000205800000037
:10270000280100086C27000858000020F020000075
:10271000440100080000000000000000000000006C
:1027200000000000000000000000000000000000A9
:102730000000000000000000000102030401020389
:1027400004060708090204060800000000A24A0463
:102750000000000000000000010203040607080951
:0C2760000000000000000000000000006D
:04000005080000ED02
:00000001FF
