:020000040800F2
:1000000088210020BD010008C5010008C7010008C3
:10001000C9010008CB010008CD0100080000000064
:10002000000000000000000000000000CF010008F8
:10003000D101000800000000D3010008453200088B
:10004000D7010008D7010008D7010008D701000830
:10005000D7010008D7010008D7010008D701000820
:10006000D7010008D7010008D7010008D701000810
:10007000D7010008D7010008D7010008D701000800
:10008000D7010008D7010008D7010008D7010008F0
:10009000D7010008D7010008D7010008D7010008E0
:1000A000D7010008D7010008D7010008D7010008D0
:1000B00029330008D7010008D7010008D70100083C
:1000C000D7010008D7010008D7010008D7010008B0
:1000D000D7010008D5340008E5340008F5340008DD
:1000E000D7010008D7010008D701000800F002F886
:1000F00000F055F80AA090E8000C82448344AAF16D
:100100000107DA4501D100F04AF8AFF2090EBAE86A
:100110000F0013F0010F18BFFB1A43F0010318473B
:10012000E858000008590000103A24BF78C878C188
:10013000FAD8520724BF30C830C144BF04680C60ED
:10014000704700000023002400250026103A28BF35
:1001500078C1FBD8520728BF30C148BF0B60704739
:10016000662904F0CE81642900F0A480632900F0A0
:10017000EC83002070471FB59DE8030000F08EFF60
:1001800000F002FC04000020002103F0C5FFE06045
:1001900000F00EFD1FBD10B500F073FD10BD00F0A6
:1001A000DBFD1146FFF7E7FF03F010FE00F0E0FE75
:1001B00003B4FFF7F0FF03BC01F0E2F80948804701
:1001C00009480047FEE7FEE7FEE7FEE7FEE7FEE739
:1001D000FEE7FEE7FEE7FEE704480549054A064B51
:1001E00070470000C9320008ED000008881B00209D
:1001F00088210020881D0020881D00200FB404499C
:1002000010B503AA029800F0ADFB10BC5DF814FB1A
:10021000801A002070B5044685690068C10601D5C2
:10022000302600E02026C00707D070BDD4E90121A8
:1002300030469047206A401C20626D1EF6D570BD86
:1002400070B5044685690078C00707D170BDD4E950
:10025000012120209047206A401C20626D1EF6D5A7
:1002600070BD70B50C460546012A05D02878800679
:1002700000D5EA69002302E0012305E05B1C9342FC
:1002800002D2E05C0028F9D1A869E618C01AA8617A
:10029000286A184428622846FFF7BCFF04E0D5E925
:1002A000012114F8010B9047B442F8D32846FFF718
:1002B000C7FF70BD2DE9F04106460024106875297E
:1002C000314616A510D0AFF30080002802DA404274
:1002D00013A507E031688A0701D512A502E0490796
:1002E00004D511A5012401E0AFF3008000210A220A
:1002F00006F1240709E0B0FBF2FCB0FBF2F302FBCD
:100300001C00303078541846491C0028F3D123468D
:100310002A463046BDE8F04100F0A7B800000000D2
:100320002D0000002B000000200000002DE9F05FF0
:10033000894604464FF0000ADFF824B1FB44C0F8B8
:1003400020A02046E168884700287DD0252806D0D7
:10035000D4E901219047206A401C2062F1E7002582
:100360005F462046E16888472028064607DB312E95
:1003700005D2B81910F8200C08B10543F1E7A80719
:1003800001D525F00405C4F81CA00027C4F818A066
:100390002A2E09D0304603F077FA38B304EB8708E9
:1003A000303EC8F8186019E059F8041B204604EBE9
:1003B00087029161E1688847012F064618D1E069FC
:1003C000002820DA25F020051DE0D8F8180000EB01
:1003D000800006EB40003038C8F818002046E1687D
:1003E0008847064603F050FA0028EED1012F0AD0C4
:1003F0002E2E08D12046E16888477F1C0646022F32
:1004000045F02005C4DBA069002803DA404245F02E
:100410000105A061E80701D025F01005A6B1A6F1FD
:100420004100192802D8203645F400654A46314675
:10043000204625604D46FFF793FE60B1012807D0A6
:10044000ED1D25F0070000E007E000F1080978E75E
:1004500005F1040975E730467AE7206ABDE8F09FA8
:10046000175600007047704770472DE9F0470D465A
:1004700099469246044600F124080168880604D58E
:10048000E06921F01001216000E00120A84201DDB7
:10049000471B00E00027A1697A1902EB0900081A3E
:1004A000A0612078C00602D42046FFF7B3FE0026E4
:1004B00008E0D4E901211AF806009047206A401CA0
:1004C000761C20624E45F4DB2078C0060AD5204613
:1004D000FFF7A0FE06E0D4E9012130209047206A12
:1004E000401C2062381EA7F10107F4DC07E0D4E9C4
:1004F000012118F805009047206A401C2062281E40
:10050000A5F10105F3DC2046FFF79AFE20780006EE
:1005100002D50220BDE8F0870120FBE770472DE9F6
:10052000FF4F0C461E464FF0FF378BB0D2E900015B
:10053000DDF860800A908A46C1F30A5505B93D4648
:10054000002108464FF00000BAF1000F00F440000F
:1005500005DA00EB80004FF4400101EA50004FEA59
:100560009059B9F1010F00DDB9460A9850EA4A00E6
:100570000ED044F61050A5F2FF3545432F14B8F1C4
:10058000000F1ED07542291E1EDDC9F100021CE0BD
:10059000B8F1010F4FF0000001D0302103E0F24329
:1005A00005E02154401CB042FBDB30460022002114
:1005B00021540B99C1F80880C1E900200FB0BDE8B3
:1005C000F08FBD1B6D1CDEE74A4600DA694206A8C3
:1005D00000F07CFA06AB93E8070003AB83E8070062
:1005E00050460A9900F068FF8DE80700A0F500501A
:1005F0001F3800900398002D09DD42F21F014A4682
:10060000084403A90390684601F0C7F908E0A0F583
:1006100000504A461F3803A90390684601F0D1F9FB
:100620008DE807000004000C03D04FF0FF304108B4
:1006300000E01046B8F1000F03D0002200921546EA
:100640001EE0751E05D400F0A3F9303262556D1E10
:10065000F9D5B3460122084302D000227F1C04E0F2
:100660002078302801D100227F1E002A099786D0E9
:100670001DE0112D07DA00F08BF9303262556D1C48
:1006800050EA0102F5D1084302D00098C8B10EE04B
:100690000021681E05E0235C625C63542254401E06
:1006A000491C8142F7DBAB46A81B401E0990002085
:1006B00004F80B000B98099AC0F80880C0E9002BD9
:1006C0007CE711264FF0000859E72DE9F04F8846E6
:1006D0000446D21D22F0070191B0D1E90001CDE915
:1006E0000A0103F0BDF802460B98C00F01D02D207F
:1006F00007E02068810701D52B2002E0202101EAD4
:10070000C000032A099001D0072A05DB03464146B1
:10071000204600F09BF90BE12078800601D5E069C6
:1007200000E00620B8F1650F814606D0B8F1660FEB
:1007300018D0B8F1670F70D131E00020B9F1110F76
:10074000009001DB112301E009F101030AAA01A9CC
:100750000CA8FFF7E4FEDDE90C70002609F10105A5
:10076000834647E001204B4600904FF000470AAA1D
:1007700001A90CA8FFF7D3FEDDE90DB00C995D4689
:10078000002610B909F101000D18B9EB050003D4DA
:10079000C0F1FF3609F10105A5EB09002BE0B9F125
:1007A000010F01DA4FF001090020B9F1110F00909B
:1007B000484601DD112300E003460AAA01A90CA85E
:1007C000FFF7ADFEDDE90C704D460026834620782C
:1007D00000070AD4AB4500DA5D4601A8012D04DD0F
:1007E000411911F8011C302907D04F4502DA17F1E1
:1007F000040F04DA012082460FE06D1EEEE7002FA1
:1008000002DCED1B3E4403E0781CA84200DD7D1CA9
:10081000B81B00F1010A4FF000472078000703D40D
:10082000AA4501DB4FF0FF3A0021B7F1004F0DF16F
:1008300043088DF8431024D002202B23002F01DA27
:100840007F422D230A21021EA0F1010000DC5FB1CE
:1008500097FBF1FC97FBF1F201FB1C7C17460CF1B6
:10086000300C08F801CDEEE7A8F1010003702188F3
:10087000090501D5452100E06521A0F1010800F836
:10088000011C09980FA9A1EB0807FF1D00B1012069
:10089000411901EBEA70A1693844081A401EA061B1
:1008A0002078C00602D42046FFF7B4FC099828B18E
:1008B000D4E901219047206A401C20622078C006BC
:1008C00022D52046FFF7A6FC1EE0002E04DBB34530
:1008D00002DD01A8805D00E03020D4E901219047CD
:1008E000206A401C2062761CAAF101005FEA000A1F
:1008F0000AD100F049F8C0680168405CD4E90121E0
:100900009047206A401C2062281EA5F10105DCDC0E
:1009100007E0D4E9012118F8010B9047206A401C38
:100920002062381EA7F10107F3DC2046FFF788FCA0
:10093000032011B043E610B5436913B1AFF3008053
:1009400001E0FFF78EFC012010BD127800F12401B8
:100950000A7000224A700122EDE711684FF0FF3261
:10096000E9E70000074B70B50D467B4400F05BF8EB
:100970000446284600F018F910B14FF0FF3070BD62
:10098000204670BDA332000000487047481B00207D
:1009900030B5B0F10A024FEA900E71F100034EEA51
:1009A000817EB0EB0E0061EB91014FEA101E4EEA22
:1009B000017E10EB0E0041EB11114FEA102E4EEAB2
:1009C000016E10EB0E0041EB11214FEA104E4EEA82
:1009D000014E10EB0E0041EB1141401841F10001B6
:1009E0004FEAD00040EA41704FEAD10110EB800598
:1009F0004FEA810444EA907444EB01046D1944EB1E
:100A00000404521BA3414FF0000348BF0A3200D533
:100A100030BD401C41F1000130BD000001694A1C9D
:100A200002610878704700B58FB0CDE9013100212F
:100A3000059105497944CDE9031011466846FFF751
:100A400075FC0FB000BD0000E5FFFFFF2DE9F04190
:100A50001F46044603260168072A01F4006004DBF0
:100A600008B116A505E016A503E008B115A500E03C
:100A700015A521F010002060A069C01EA0610FB173
:100A8000401EA0612046FFF7C5FB4FB1D4E901210C
:100A900038469047206A401C2062C01C206206E055
:100AA000206AFAE7D4E9012115F8010B9047761E78
:100AB000F8D22046FFF7C4FBBDE8F0814E414E005E
:100AC0006E616E00494E4600696E66002DE9F04782
:100AD000814616468AB0334878440DC88DE80D002B
:100AE00030487844801C03AC0DC884E80D0041F602
:100AF0009B300844372190FBF1F290FBF1F5A5F112
:100B0000800501FB12041B3C02D56442012000E079
:100B10000020DFF890A080460027FA44AAF1BE0A20
:100B20000DE0E00709D03246684607EB47010AEBC3
:100B3000810100F046FF8DE8070064107F1C002C47
:100B4000EFD1184F7F44AC3F18E0E80714D007EB13
:100B500004100DF1180A90E80E008AE80E00C06833
:100B6000F04201D198190890324606A903A800F076
:100B700028FF03AB83E807006D10641C002DE4D14F
:100B800032466946B8F1000F03A802D000F005FF15
:100B900001E000F016FFC9E90001C9F808200AB019
:100BA000BDE8F087084F0000007B00F08000704730
:100BB00010B54248542100F0EBF94148542100F0AF
:100BC000E7F94048542100F0E3F93F493B483C4AEB
:100BD0003F4B08603D490A603A491960531C036560
:100BE000481C1065012008653B48344A39A1784407
:100BF00000F022F920B9384878440A3800F0C1F9E9
:100C000037482F4A35A1784400F016F920B9344806
:100C100078440A3800F0B5F932482A4A2FA17844BE
:100C200000F00AF920B92F4878440A3800F0A9F9F1
:100C300040232248DC000021224600F0D9F820B1F0
:100C400025487844543800F09CF91D48224640233A
:100C5000002100F0CDF820B121487844543800F04C
:100C600090F9184822461023002100F0C1F800280E
:100C700006D01C487844BDE81040563800F081B9D1
:100C800010BD104870B5006D20F001040B4800F055
:100C900049F90B4800F046F90A4800F043F909E029
:100CA000206D20F00105204600F03CF9204600F0C0
:100CB00078F82C46002CF3D170BD00002C1A0020CF
:100CC000801A0020D41A00204C0000205000002080
:100CD00054000020720000000A4E0000770000005F
:100CE000F64D0000E24D00000EB5CDE9000103F025
:100CF00009FA029069460120ABBE0EBD08B56946EF
:100D000000900220ABBE08BD1FB58DE80700694604
:100D10000520ABBE04B010BD1FB58DE80F006946BD
:100D20000620ABBEF6E708B5694600900920ABBEC9
:100D300008BD1CB5CDE9000169460A20ABBE1CBD4B
:100D4000704708B5694600900C20ABBE08BD000096
:100D500000487047281B00207546FFF7F9FFAE4694
:100D600005006946534620F00700854618B020B5B7
:100D7000FFF732FABDE820404FF000064FF00007C1
:100D80004FF000084FF0000B21F00701AC46ACE833
:100D9000C009ACE8C009ACE8C009ACE8C0098D46A0
:100DA000704770B50446051F00F05CF90068002C20
:100DB00014BF446870BD002C18BFAC423CBF204635
:100DC0006468F8D301680A18AA4218BF456003D1C5
:100DD0002A6805461144016028684119A1421CBFD8
:100DE0006C6070BD6168696021680844286070BDEE
:100DF00070B5C468A50713D0650211D4B2F5807F21
:100E000009D0B2F5007F06D0B2F5806F08D101237A
:100E100000F1240106E05D1E6FF07F46B54201D36C
:100E2000012070BD0161C361416024F47061114310
:100E3000C160002070BD00002DE9F0410C4607465E
:100E40001646104600F06EF82078611C61280AD022
:100E5000722802D077283CD102E00125002405E069
:100E60000225042402E0082448F2020511F8010BCF
:100E70002B2806D0622809D011F8010C74280AD05A
:100E80000BE045F0030544F00204EFE745F00405EC
:100E900044F00104EAE744F0100438462146FFF725
:100EA00023FF411C15D00021316171604FF40071A6
:100EB000F560F1617061200704D5304602220021FF
:100EC00000F04AF9306D40F0010030653046BDE871
:100ED000F0810020FBE72DE9F0410D460646104C5D
:100EE000206DC10704D0410804D020F00104F7E7C9
:100EF00022460EE0542000F000F907000ED0206DCD
:100F000047F00101084354212065384600F040F8BD
:100F10003A4629463046BDE8F0418DE70020D6E745
:100F20002C1A00202DE9F04704464FF000094FF03D
:100F3000FF37C568D4E90486A80707D0204600F02B
:100F4000BBF93046FFF7DAFE002802DA3846BDE882
:100F5000F087280502D54046FFF723FF4C212046A5
:100F600000F016F8206D20F0010020654846EEE7FD
:100F700010B50446AFF300802046BDE81040FFF7EF
:100F800017B910B500F0E2F9BDE8104000F0D8B98B
:100F90004FF0000200B5134694469646203922BF12
:100FA000A0E80C50A0E80C50B1F12001BFF4F7AF5D
:100FB000090728BFA0E80C5048BF0CC05DF804EB3F
:100FC000890028BF40F8042B08BF704748BF20F8AD
:100FD000022B11F0804F18BF00F8012B7047000062
:100FE0004FF0013C50F8042B51F8043B9A4221D1B8
:100FF000A2EB0C03934313EACC1317D150F8042B44
:1010000051F8043B9A4215D1A2EB0C03934313EA27
:10101000CC130BD150F8042B51F8043B9A4209D160
:10102000A2EB0C03934313EACC13DBD04FF0000088
:10103000704700BFD01A01BAB1FA81F101F018016E
:1010400022FA01F0CB40C1F12001DBB2C0B2C01ADC
:101050002CFA01F3D11A914311EAC311E6D170477A
:101060007047000000487047301B002070477047F1
:101070007047704738B504460A4600206946AFF30A
:101080000080002808BF38BD02460099204600F0C5
:1010900084F9012038BD012000F0D3B9F8B5AFF3D1
:1010A0000080054600200C46102000BF0646A81907
:1010B000A0420DD9324669460020AFF300800700F8
:1010C00008BF00F0BEF90098A04218BF0546C41939
:1010D000FFF7C8FF05600746F01D20F0070046191E
:1010E000284600F053F9B44208BFF8BDA21B3146B0
:1010F0003868BDE8F84000F050B970B50646FFF713
:10110000B1FF056806F10B0020F00704B4429CBF54
:10111000002070BD2B466A68BAB11068A04210D397
:1011200004F1080188423CBF5068586007D35168F9
:10113000101941601168091B016058601460101D8E
:1011400070BD13465268002AE7D121462846FFF7B2
:1011500091FF0028DED170BD2DE9F041044616460E
:101160000D464769007B80072ED03846FFF7DBFD30
:1011700050BB3EB3012E02D0022E25D104E0204602
:1011800000F025F905441DE03846FFF7DAFDE16877
:10119000002841F01001E16005DA204600F058F81F
:1011A0000120BDE8F081C9030BD56268E16A914274
:1011B00000D81146A26911442269891A814200DDD2
:1011C00008460544002D01DA0220EAE7E16A60687A
:1011D000E268814206D29103E06203D522F4003135
:1011E00041F01002A6690027AE4213DCE16A814299
:1011F00001D90B4600E0034603EB060C2369ACEB78
:10120000030CAC4506DD814201D98C4600E08446E2
:101210009C4505D1A760276042F02000A5620DE043
:10122000AD1BE669AE1B8142A66000D90846C01A14
:10123000281A20605819606022F0200003490840F5
:10124000E060002084F84870ABE70000BFCFD7FF14
:10125000C16821F4001141F08001C160002181606A
:10126000016070472DE9F047814614460E464FF065
:10127000FF383248D5685769054209D03846A16918
:10128000FFF757FD002811DB2C48C0430540E560FF
:101290002B46324649463846FFF736FDA16920F015
:1012A0000042B21A11440028A16103D02046FFF782
:1012B000CFFF4046BDE8F08770B504460569C06AB7
:1012C0006168884200D80846E16821F42011E16095
:1012D000C90312D5A84208D02246411B2846FFF771
:1012E000C1FF10B14FF0FF3070BD0020E562C4E9CE
:1012F0000150E06820F48030E060002070BD10B53F
:101300000446C06820F02000E060A16AA06988421D
:101310000DD02046FFF7D0FFE06820F4405040F0A9
:101320001000E060A06AA0612069E062606044F2A1
:101330004001E0688843E06010BD0000100002003A
:10134000002801D000F01CB87047000010B501461D
:1013500002A000F05DF8012010BD00005349475283
:10136000545245443A2052656469726563743A2068
:1013700063616E2774206F70656E3A200000000074
:1013800001491820ABBEFEE72600020000210160E3
:10139000C0E90110704710207047034640688C4632
:1013A000002818BF88423CBF03464068F8D318683D
:1013B0001844884207D00CF1030020F00700001DFC
:1013C000411A521A0146081D0A60FFF7EABC10B51F
:1013D0000146C268900703D0900607D5886A0AE0E4
:1013E00000F03EF801210160881E10BD8B6948683D
:1013F00018440B69C01A91F848301BB191F8491094
:10140000401A10BD1103FCD50028FADD401E10BDA6
:1014100070B505460C460A2000E06D1C00F018F877
:1014200035B128780028F8D102E0641C00F010F8EB
:1014300014B120780028F8D1BDE870400A2000F0EF
:1014400007B810B500F010F8BDE81040FFF778BFFE
:1014500008B569468DF800000320ABBE08BD00004A
:1014600000487047281B002010B5012805D0002136
:1014700003A0FFF7CDFF012010BD09A1F8E7000090
:1014800053494752544D454D3A204F7574206F666D
:101490002068656170206D656D6F727900000000D5
:1014A0003A2048656170206D656D6F727920636FB9
:1014B00072727570746564005FEA400C08BF91F049
:1014C000000F4FEA8C234FEAC12243EA51514FEA01
:1014D0001C5018BF00F5F0404FEA300018BF41F033
:1014E00000415FEA6C5C00F02980BCF1FF3F08BF5F
:1014F00040F080407047130C06BF12044FF0100CF0
:101500004FF0000C130E04BF12020CF1080C130F65
:1015100004BF12010CF1040C930F04BF92000CF1F4
:10152000020CD30F04BF52000CF1010C11464FF016
:101530000002A0F11F00A0EB0C00704711F0004F5B
:1015400008BF704731F000413FF4D5AF0B0C06BF28
:1015500009044FF0100C4FF0000C0B0E04BF0902F1
:101560000CF1080C0B0F04BF09010CF1040C8B0FDC
:1015700004BF89000CF1020CCB0F04BF49000CF131
:10158000010CCCF12003A0EB0C0022FA03F302FAC9
:101590000CF241EA030100F10100704720F07F4C9A
:1015A00080EA030023F07F47ACEB070303F57C538D
:1015B00000F0004003F1FF032DE980494FEA154B8D
:1015C00009B44FEA144325EA0B4E24EA03480FF20C
:1015D000042606EB132749083E785FEA320203FB34
:1015E0000667C7F5000707FB06F64FEA54374FEAD0
:1015F000D64606F1020607FB066CCCF1005C4FEA0A
:101600001C472CEA074C07FB06F40CFB06F504EB21
:1016100015464FEA961634BF00204FF000404FEABF
:10162000D13706FB07FC4FEA1C4C0CFB0BF7D21B17
:1016300003FB0CF761EB07010CFB0EF7B0EB074067
:1016400072EB17420CFB08F734BFA2EB0742B2EB78
:10165000074261EB17414FEA0C444FEA910706FB42
:1016600007FC4FEA1C4C0CFB0BF7B0EBC74072EBCE
:10167000573203FB0CF734BFA2EBC742B2EBC742B1
:1016800061EB57310CFB0EF7B0EBC70072EB5772F2
:101690000CFB08F734BFA2EBC702B2EBC70261EB49
:1016A0005771039F4FEA816141EA921104EBCC0428
:1016B0004FEAD1374FEA826206FB07FC42EA9012FA
:1016C0004FEA80604FEA1C4C0CFB0BF7D21B03FB6C
:1016D0000CF761EB07010CFB0EF7B0EB074072EB68
:1016E00017420CFB08F734BFA2EB0742B2EB0742EC
:1016F00061EB17414FEA8C554FEA910704EB9C24AC
:1017000006FB07FC4FEA1C4C0CFB0BF7B0EBC74089
:1017100072EB573203FB0CF734BFA2EBC742B2EBBC
:10172000C74261EB57310CFB0EF7B0EBC70072EB11
:1017300057720CFB08F734BFA2EBC702B2EBC7022B
:1017400061EB577115EB4C254FEA816141EA92112B
:101750004FEA82624FEAD13742EA901206FB07FC59
:1017600044F100044FEA80604FEA1C4C0CFB0BF77D
:10177000D21B03FB0CF761EB07010CFB0EF7B0EB80
:10178000074072EB17420CFB08F734BFA2EB07428D
:10179000B2EB074261EB174115EB1C154FEA8131A3
:1017A00041EA92414FEA823242EA90424FEA803067
:1017B0004FEA0C7644F1000448EA03434EEA0B4832
:1017C0004FF0000EB2EB080C71EB030724BF62462A
:1017D00039464EEB0E0E4FF0000B001852414941B6
:1017E0004BEB0B0BB2EB080C71EB03077BF1000B1F
:1017F00024BF624639464EEB0E0E4FF0000B001828
:10180000524149414BEB0B0BB2EB080C71EB030758
:101810007BF1000B24BF624639464EEB0E0E51EAB7
:10182000020718BF46F0010616EB0E7655F10002CE
:1018300054F1000103D5BDE88901BDE80088BDE889
:101840008901BDE80048B619524141EB0101A3F1FD
:101850000103704780807F7E7D7C7B7A7978777604
:1018600076757473727171706F6E6E6D6C6C6B6A7D
:101870006A6968686766666564646363626161601B
:10188000605F5F5E5E5D5D5C5C5B5B5A5A59595898
:101890005857575656555555545453535252525102
:1018A000515050504F4F4F4E4E4D4D4D4C4C4C4B58
:1018B0004B4B4A4A4A49494948484847474747469F
:1018C00046464545454444444443434343424242DB
:1018D00042414141002B26D4770021D01CB54FEA6C
:1018E000370703B44FF010004FF010014FF0000025
:1018F0000FBCBDE810400BF1010BBBF1010F08BF9D
:101900005FEA170722BF12F1010211F101014FF046
:10191000004143F1000300F0004043EA000070473B
:10192000F9D35708DAE746EA064613F1400F4FEAC3
:1019300016461FDD13F1200FDFBF16430A460021B4
:1019400020335B42C8D0C3F1200746EA064602FABC
:1019500007F74FEA164646EA0706C3F1200722FAC0
:1019600003F201FA07F721FA03F14FF0000342EA0C
:101970000702B1E746EA020646EA06464FEA16467D
:1019800046EA0106BCBF46EA0646360C4FF00003A5
:101990004FF000024FF000019EE72DE9C04893464A
:1019A00030B491E8380007C831EA400C48BF34EA47
:1019B000430C03D5FFF7F2FDFFF78CFFF0BCBDE849
:1019C00000882DE9C048934630B491E8380007C834
:1019D00010F0804F08BF13F0804F03D100F005F8DE
:1019E000FFF778FFF0BCBDE8008820F07F4780EA71
:1019F000030023F07F4C07EB0C03A3F57C5300F0AE
:101A00000040A3F1FE0392F0000F00F0B38095F0C8
:101A1000000F00F077802DE901494FEA11404FEAAD
:101A2000144621EA004800FB06FC24EA064708FBAE
:101A300006F607FB08F800FB07F718EB06484CEB27
:101A4000164C4FEA124B18EB07484FEA15464CEB81
:101A5000174022EA0B4E0BFB06FC25EA06470EFB5D
:101A600006F607FB0EFE0BFB07F71EEB064E4CEBD4
:101A7000164C4FF000061EEB074E4CEB174B18EBC5
:101A80000B0840F1000018EB0E0B58EB000840F17A
:101A900000008F1A4FF000013CBFC943661B14BF02
:101AA000B5EB040C00213CBFC943F61B4FEA1744B9
:101AB0004EEA8E0E27EA04454FEA1C4704FB0762F4
:101AC0002CEA074C05FB07F70CFB05F604FB0CFCA6
:101AD00016EB074642EB174216EB0C4642EB1C4254
:101AE0001BEB060658EB0202414146EA9E0601D571
:101AF000BDE80189B619524141EB0101A3F101038F
:101B0000BDE801894FEA14454FEA114724EA05462A
:101B100021EA074C05FB07F406FB07F70CFB06F16F
:101B200005FB0CFC11EB074144EB17444FEA12474D
:101B300011EB0C4144EB1C4422EA074C05FB07F275
:101B400006FB07F70CFB06F605FB0CFC16EB07463D
:101B500042EB174216EB0C4642EB1C456A1854F157
:101B6000000148BF7047B619524141EB0101A3F192
:101B70000103704795F0000F37D04FEA11424FEA4A
:101B8000144721EA024624EA074C02FB07F106FB50
:101B900007F70CFB06F402FB0CFC14EB074441EBCB
:101BA00017414FEA154714EB0C4441EB1C4125EA61
:101BB000074C02FB07F506FB07F70CFB06F602FBDA
:101BC0000CFC16EB074645EB174516EB0C4645EBB0
:101BD0001C42121951F1000148BF7047B619524119
:101BE00041EB0101A3F1010370474FEA14454FEAAD
:101BF000114724EA054621EA074C05FB07F106FBDD
:101C000007F70CFB06F24FF0000605FB0CFC12EB8D
:101C1000074241EB174112EB0C4251EB1C4148BF0C
:101C20007047921841EB0101A3F10103704701468F
:101C300048780A7840EA02207047000070B50246F2
:101C40000C46FF25FF2309E012F8010B80EA05018D
:101C50000648405C80EA03050548435C201EA4F169
:101C60000106B4B2F0D143EA052070BD0645000874
:101C70000646000808B525208DF8000000208DF8E4
:101C8000020001208DF80300684600F0F9FF2620CD
:101C90008DF8000001208DF802008DF803006846E1
:101CA00000F0EEFF27208DF8000002208DF80200E2
:101CB00001208DF80300684600F0E2FF08BD000037
:101CC0004FF0C040C07A00F0800008B34FF0C04031
:101CD000C07A40F006004FF0C041C87214200D4990
:101CE000087011204FF0C0414872092008721B2073
:101CF000C87115200871062088701E200870032006
:101D00008871202088720846C07A20F08000C8724E
:101D1000002070473200006000B597B010208DF8A9
:101D200003000420ADF8000002208DF8020069468F
:101D3000214800F01DFA18208DF803000820ADF8A6
:101D4000000003208DF8020069461B4800F010FADD
:101D50004CF2B300ADF800006946174800F008FAED
:101D60004FF4F060ADF800006946144800F000FA46
:101D700001A81590169008A800F023F908200A90F1
:101D80000020129001200290002001900490022077
:101D9000039008A800F0A2F80121002000F084F8C8
:101DA000C82001F077FE01220421034800F0CBFA9D
:101DB000002017B000BD00000014014000180140D1
:101DC00008B54FF0C040C07900904FF0C040037A92
:101DD000427A10F8321F1EA0FEF710FA4FF0C040F2
:101DE000407B00F0800010B91EA0FEF707FA4FF00C
:101DF000C0400378827801791BA0FEF7FFF94FF00D
:101E0000C04080791DA2115C1FA0FEF7F7F94FF0CA
:101E1000C04080791DA2115C1BA0FEF7EFF94FF0C6
:101E2000C04080791CA2115C1EA0FEF7E7F900BF3C
:101E30004FF0C040807A00F080000028F8D000BF4A
:101E40004FF0C040807A00F080000028F8D108BD33
:101E500025303264253032642D253032642D253012
:101E6000326400002100000020253032643A253021
:101E700032643A2530326420000000003F4D545750
:101E80005446535300000000256300003F6F756502
:101E900068726175000000003F6E65647569746E5C
:101EA0000000000025630A0051B18200A2F1C04287
:101EB000126842F001038200A2F1C042136009E0FF
:101EC0008200A2F1C0421268034B1A408300A3F1C2
:101ED000C0431A6070470000FEFF0F00D0E90112F6
:101EE0001143C26811430269114342691143826977
:101EF0001143C2691143026A1143426A1143826A63
:101F00001143C26A1143026B114302689200A2F1AD
:101F1000C0421160816808290BD101688900A1F1D4
:101F2000C041096841F0400201688900A1F1C04147
:101F30000A60416B0968426B526841EA0211426BC8
:101F4000926841EA0221426B928941EA0241426B66
:101F5000128A41EA0251426B127D41EA0261426BF0
:101F6000926911430268521C9200A2F1C0421160B2
:101F7000C16AB1F5804F1BD1816B0968826B5268D1
:101F800041EA0211826B926841EA0221826B128A55
:101F900041EA0251826B127D41EA0261826B9269D1
:101FA000114302689200A2F1C042C2F8041107E096
:101FB0006FF0704201688900A1F1C041C1F80421AD
:101FC0007047002101600221416000218160C160F1
:101FD000016141618161C16101624FF480514162DF
:101FE000490081620021C16201630F21426B1160CF
:101FF000426B5160FF21426B91600F21426BD160B7
:10200000426B1161426B51610021426B91610F2162
:10201000826B1160826B5160FF21826B91600F2196
:10202000826BD160826B1161826B51610021826B86
:102030009161704708B50121080200F063FE01219B
:102040007D2000F08FFE0121092000F08BFE012190
:10205000114800F019F90121104800F015F94FF46A
:10206000E060ADF8000010208DF8030003208DF82B
:10207000020069460A4800F07BF84FF40040ADF8D2
:10208000000003208DF8020010208DF8030069463F
:10209000044800F06DF808BD000430000002300074
:1020A000000C01400010014010B50446294884424C
:1020B00008D10121042000F065FE0021042000F079
:1020C00061FE46E02448844208D10121082000F046
:1020D00059FE0021082000F055FE3AE01F488442D6
:1020E00008D10121102000F04DFE0021102000F049
:1020F00049FE2EE01A48844208D10121202000F038
:1021000041FE0021202000F03DFE22E015488442DF
:1021100008D10121402000F035FE0021402000F0D0
:1021200031FE16E01048844208D10121802000F0E1
:1021300029FE0021802000F025FE0AE00B488442A1
:1021400007D10121801500F01DFE0021A01500F02F
:1021500019FE10BD00080140000C014000100140B4
:102160000014014000180140001C01400020014003
:102170002DE9F0410246002500260020002300241E
:10218000002791F803C00CF00F0591F803C00CF084
:10219000100CBCF1000F03D091F802C04CEA050509
:1021A00091F800C0BCF1000F31D0146800202BE082
:1021B0004FF0010C0CFA00F3B1F800C00CEA030672
:1021C0009E4220D183004FF00F0C0CFA03F7BC4362
:1021D00005FA03FC4CEA040491F803C0BCF1280F93
:1021E00006D14FF0010C0CFA00FCC2F814C00AE052
:1021F00091F803C0BCF1480F05D14FF0010C0CFA67
:1022000000FCC2F810C0401C0828D1D31460B1F8FB
:1022100000C0BCF1FF0F34DD546800202EE000F157
:10222000080C4FF0010808FA0CF3B1F800C00CEAF2
:1022300003069E4221D183004FF00F0C0CFA03F7E6
:10224000BC4305FA03FC4CEA040491F803C0BCF15A
:10225000280F05D100F1080C08FA0CF8C2F8148018
:1022600091F803C0BCF1480F07D100F1080C4FF002
:10227000010808FA0CF8C2F81080401C0828CED3D8
:102280005460BDE8F0810000F0B50A460023002448
:102290000021002500F00046B6F1004F02D11D4E8E
:1022A000F16901E01B4E7168C0F3034583B200F48D
:1022B0004016B6F5401F08D121F07061154E7668C2
:1022C00026F07066134F7E6012E000F48016B6F5BB
:1022D000801F06D1032606FA05F4A14341F0706180
:1022E00006E0460D360103FA06F6B14341F070618F
:1022F00022B1460D360103FA06F6314300F00046DE
:10230000B6F1004F02D1034EF16101E0014E716060
:10231000F0BD0000000001400146886880B27047AF
:102320000146C86880B2704702460020D3680B405F
:102330000BB1012000E0002070474161704701614E
:102340007047C16070470AB1016100E041617047A8
:1023500000B585B00121052000F004FD01218803AE
:1023600000F000FD4FF40070ADF8100018208DF85B
:10237000130003208DF8120004A96648FFF7F8FE49
:102380004FF48060ADF8100004208DF8130004A90C
:102390006048FFF7EDFE4FF4E13000900020ADF80B
:1023A0000400ADF80600ADF80800ADF80C000C20F4
:1023B000ADF80A006946584801F008F9012240F2D8
:1023C0002551554801F0DDF80121534801F0A3F8EB
:1023D0004021514801F096F80121052000F0C2FC8F
:1023E0000121480400F09EFC0420ADF810001820E4
:1023F0008DF8130003208DF8120004A94548FFF75B
:10240000B7FE0820ADF8100004208DF8130004A9D1
:102410004048FFF7ADFE04A93E48FFF7A9FE4FF480
:10242000E13000900020ADF80400ADF80600ADF8F2
:102430000800ADF80C000C20ADF80A0069463748DA
:1024400001F0C4F8012240F22551344801F099F816
:102450000121324801F05FF84021304801F052F884
:102460000121082000F07EFC10208DF813000320CD
:102470008DF812004FF40070ADF8100004A9284840
:10248000FFF776FE0121092000F06CFC0121880491
:1024900000F048FC4FF48060ADF8100018208DF873
:1024A000130003208DF8120004A91D48FFF760FEF9
:1024B0004FF40060ADF8100004208DF8130004A95B
:1024C0001748FFF755FE04A91548FFF751FE4FF4D2
:1024D000165000900020ADF80400ADF80600ADF8ED
:1024E0000800ADF80C000C20ADF80A0069460D4854
:1024F00001F06CF8012240F225510A4801F041F840
:102500000121084801F007F84021064800F0FAFFD1
:1025100005B000BD00080140003801400044004003
:10252000000C01400048004009E040F2375100BF74
:102530000A1EA1F1010399B2FAD1421E90B20028FD
:10254000F3D1704770B50646002415E004F1B001E0
:10255000C8B200F0DDF9012000F0DAF9102000F037
:10256000D7F9002504E0304600F002FA681CC5B235
:10257000802DF8DB601CC4B2082CE7DB70BD0000C6
:1025800010B54FF480713648FFF7D9FE4FF4007153
:102590003348FFF7D2FE3220FFF7C6FF4FF4007139
:1025A0002F48FFF7CCFEAE2000F0B2F9002000F07B
:1025B000AFF9102000F0ACF9402000F0A9F981201B
:1025C00000F0A6F9CF2000F0A3F9A12000F0A0F9B7
:1025D000C82000F09DF9A62000F09AF9A82000F08C
:1025E00097F93F2000F094F9D32000F091F90020F2
:1025F00000F08EF9D52000F08BF9802000F088F9EA
:10260000D92000F085F9F12000F082F9DA2000F0FD
:102610007FF9122000F07CF9DB2000F079F94020EE
:1026200000F076F9202000F073F9022000F070F934
:102630008D2000F06DF9142000F06AF9A42000F05C
:1026400067F9A62000F064F9AF2000F061F90020DE
:10265000FFF778FF0021084600F044F910BD0000A4
:10266000000C01402DE9F05F82460F4690469946E6
:10267000DDF828B00024002501266CE000240126A6
:1026800011E019F8040018F80510884209D109EB87
:102690000400407808EB05014978884201D1260101
:1026A00005E0A01CC4B219F804007F28E9DC00BFD3
:1026B000BAF1760F03DD4FF0000A781CC7B2394635
:1026C000504600F00FF9012E22D03946504600F056
:1026D00009F9002407E01BF8060000F049F9701C16
:1026E00086B2601CC4B2102CF5DB07F10800C1B241
:1026F000504600F0F7F8002407E01BF8060000F051
:1027000037F9701C86B2601CC4B2102CF5DB1CE0DB
:10271000681CC5B23946504600F0E4F8002404E0D5
:10272000002000F025F9601CC4B2102CF8DB781CE6
:10273000C1B2504600F0D6F8002404E0002000F0BA
:1027400017F9601CC4B2102CF8DB0AF1100000F07D
:10275000FF0AA81CC5B218F8050000288ED1BDE8F4
:10276000F09F2DE9F04704468846154699464FF0FC
:10277000000A002600271FE0E85D203800F0FF0A6D
:102780007E2C04DD002408F1010000F0FF08414622
:10279000204600F0A7F8002608E00AEB4A0109EB02
:1027A0004101885D00F0E4F8701CC6B2062EF4DB2F
:1027B000A01DC4B2781CC7B2E85D0028DCD1BDE81A
:1027C000F0872DE9F04706460F46904699460025CA
:1027D0000024A24630E018F80A002038C5B2782E4E
:1027E00002DD0026781CC7B23946304600F07AF880
:1027F000002406E009EB0511085D00F0B9F8601C43
:10280000C4B2082CF6DB07F10800C1B2304600F074
:1028100069F8002407E009EB05112144087A00F06B
:10282000A7F8601CC4B2082CF5DB06F10800C6B29C
:102830000AF1010000F0FF0A18F80A000028CAD1C6
:10284000BDE8F0872DE9FC470646884615469946BF
:102850000A9F002438E0285D7F2817DD285D8DF869
:102860000400281940788DF8050000208DF8060036
:102870001848194B01AA414600903046FFF7F2FE76
:1028800006F11000C6B2A01CC4B21DE0285D8DF890
:10289000040000208DF80500012F09D10F4B01AA7B
:1028A00041463046FFF78DFF06F10800C6B209E049
:1028B000032F07D10A4B01AA41463046FFF751FFCB
:1028C000B01DC6B2601CC4B2285D0028C3D1BDE8EB
:1028D000FC870000C74900082E490008475300083C
:1028E0000647000870B504460D46B02101EBE5012E
:1028F000C8B200F00DF8102141EA141000F008F8F9
:1029000004F00F0141F0010000F002F870BD00007A
:1029100070B504460825E9011348FFF70EFD69016B
:102920001148FFF70AFD19E004F0800028B14FF4C8
:1029300000410E48FFF703FD04E04FF400410B484F
:10294000FFF7FBFC4FF480710748FFF7F8FC4FF4EA
:1029500080710548FFF7F1FC6006040E281EA5F102
:102960000101CDB2E0D170BD000C0140001001406A
:1029700070B504460825E9011348FFF7E0FC69013A
:102980001148FFF7DAFC19E004F0800028B14FF499
:1029900000410E48FFF7D3FC04E04FF400410B4820
:1029A000FFF7CBFC4FF480710748FFF7C8FC4FF4EA
:1029B00080710548FFF7C1FC6006040E281EA5F1D2
:1029C0000101CDB2E0D170BD000C0140001001400A
:1029D00010B515484078042817D006DC01280BD024
:1029E00002280CD003281CD10CE0052810D00628A2
:1029F00011D0102815D111E000F03CF812E000F0E1
:102A00006DF80FE000F098F80CE000F0BDF809E078
:102A100000F0DCF806E000F0E9F803E000F0F6F87A
:102A200000E000BF00BF10BD5800002010B50F48E7
:102A3000007800B910BD00200C4908700C4890F8CF
:102A40004000042800DA0AE0094890F84010FFF737
:102A5000F5F8044604B102E0FFF7BAFF00BF00201A
:102A6000034981F8400000BFE4E7000000000020B7
:102A70005800002070B5174890F84000002828DD65
:102A800014488578B0F8C600A0F2011000BB082DEC
:102A90001DD1104CE41C2046FFF7C9F80E4988816F
:102AA000A41C2046FFF7C3F80B49C881A41C20468C
:102AB000FFF7BDF808490882A41C2046FFF7B7F8C5
:102AC00005494882A41C0120024981F8CF0000BFBB
:102AD00000BF70BD580000202E01002070B51448C2
:102AE00090F84000002822DD11488578B0F8C80031
:102AF000A0F20120D0B9062D17D10D4CE41C2046C0
:102B0000FFF795F80B498880A41C2046FFF78FF843
:102B10000849C880A41C2046FFF789F805490881A8
:102B2000A41C0120024981F8D00000BF00BF70BD85
:102B3000580000202E01002070B5114890F8400088
:102B400000281CDD0E488578B0F8CA00A0F20130DC
:102B5000A0B9202D11D10A4CE41C2046FFF767F8DC
:102B600008490880A41C2046FFF761F80549488001
:102B7000A41C0120E11F81F8D10000BF00BF70BD7F
:102B8000580000202E01002070B50E4890F840003B
:102B9000002816DD0B488478B0F8CC00A0F20120A4
:102BA00070B9022C0BD1074DED1C2846FFF73FF8FA
:102BB00005494881AD1C0120691F81F8D20000BF82
:102BC00000BF70BD580000202E010020064890F87C
:102BD0004000002806DD04480078012802D102499F
:102BE00081F8D3007047000058000020064890F894
:102BF0004000002806DD04480078012802D102497F
:102C000081F8D4007047000058000020064890F872
:102C10004000002806DD04480078012802D102495E
:102C200081F8D500704700005800002070B50446B8
:102C300000200D49087040F63D650C4A29460320E6
:102C400000F0C4FE0A4890F8400040280ADA08481C
:102C500090F8401090F84000401C054A82F840006F
:102C60001046445470BD000000000020752C000880
:102C70005800002001200149087070470000002022
:102C800070B5002100230F22C47804B3154C2468CA
:102C900004F4E064C4F5E064210AC1F10403CA400D
:102CA000447804FA03F184781440214309010E4C5E
:102CB0000678A155047804F01F050124AC4005787E
:102CC0006D11AD0005F1E025C5F8004109E004787B
:102CD00004F01F050124AC40044D0678761145F838
:102CE000264070BD0CED00E000E400E080E100E073
:102CF00002490143024A1160704700000000FA05D2
:102D00000CED00E029B1064A52690243044B5A61B6
:102D100004E0034A52698243014B5A617047000044
:102D20000010024029B1064AD2690243044BDA611D
:102D300004E0034AD2698243014BDA617047000024
:102D40000010024029B1064A12690243044B1A617D
:102D500004E0034A12698243014B1A617047000084
:102D60000010024029B1064A92690243044B9A615D
:102D700004E0034A92698243014B9A617047000064
:102D80000010024029B1064AD2680243044BDA60BF
:102D900004E0034AD2688243014BDA6070470000C6
:102DA0000010024030B500210022002400232D4DE8
:102DB0006D6805F00C0121B1042905D0082923D143
:102DC00005E0294D056022E0274D05601FE0254DF7
:102DD0006D6805F47012234D6D6805F4803402258A
:102DE00005EB92421CB9214D554305600BE01D4D8A
:102DF0006D6805F400351DB11C4D5543056002E0BA
:102E0000194D5543056002E0174D056000BF00BF36
:102E1000144D6D6805F0F0010909154D6B5C0568EE
:102E2000DD4045600F4D6D6805F4E061090A104D05
:102E30006B5C4568DD4085600A4D6D6805F4605146
:102E4000C90A0B4D6B5C4568DD40C560054D6D687A
:102E500005F44041890B074D6B5CC568B5FBF3F584
:102E6000056130BD0010024000127A0000093D00EB
:102E7000210000203100002008B501210820FFF7C3
:102E800071FF03208DF8020010208DF8030040012F
:102E9000ADF8000069460248FFF76AF908BD000076
:102EA000000C014010B504462046FFF7BFFE10BDE0
:102EB0004FF400700149086070470000100C014099
:102EC0004FF400700149086070470000140C014085
:102ED00021B1028842F04002028004E002884FF6ED
:102EE000BF731A400280704700B587B001210820E7
:102EF000FFF738FF01218803FFF714FF4FF4E0507C
:102F0000ADF8180003208DF81A0010208DF81B0072
:102F100006A92748FFF72CF94FF4E0512448FFF7A2
:102F20000EFA4FF48040ADF8180048208DF81B00D1
:102F300006A91F48FFF71CF94FF42040ADF8180010
:102F400018208DF81B0006A91948FFF711F94FF456
:102F500020411748FFF7F3F9164800F02DF800203C
:102F6000ADF804004FF48270ADF806000020ADF813
:102F700008000220ADF80A000120ADF80C00400264
:102F8000ADF80E003820ADF810000020ADF81200AA
:102F90000720ADF8140001A9064800F047F8012108
:102FA0000448FFF795FF002000F05EF807B000BD71
:102FB000000C01400038004010B50446114884421E
:102FC00008D101218014FFF7DDFE0021A014FFF7D6
:102FD000D9FE16E00C48844208D101210014FFF705
:102FE000B1FE00212014FFF7ADFE0AE0074884423D
:102FF00007D10121C013FFF7A5FE0021E013FFF761
:10300000A1FE10BD0030014000380040003C0040EF
:103010000246002013890B400BB1012000E0002084
:1030200070470146888970478181704710B500223A
:10303000028802F441520B884C8823438C88234336
:10304000CC8823430C8923434C8923438C89234315
:10305000CC8923431A430280838B4FF2FF742340B1
:1030600083830B8A038210BD70B50546002405E0FA
:10307000601CC4B2C82C01DD002070BD02210E48C6
:10308000FFF7C6FF0028F3D029460B48FFF7CCFF17
:10309000002405E0601CC4B2C82C01DD0020ECE770
:1030A00001210548FFF7B4FF0028F3D00248FFF7DD
:1030B000B8FFC0B2E1E700000038004010B54FF49F
:1030C0004070FFF715FE01217D20FFF74BFE012127
:1030D0001748FFF7D9F801211648FFF7D5F8164829
:1030E000FEF7E2FF1548FEF7DFFF1548FEF7DCFFAD
:1030F0001448FEF7D9FF1448FEF7D6FF00F04EFC47
:1031000000F0FEFBFFF7F0FE00F0DEFF00F088FDB0
:10311000FEF790FFFEF700FEFFF732FA4FF4FA7069
:1031200000F0B8FC09A0FDF769F8FEF7C9FD10BD75
:10313000000430000002300000080140000C014093
:103140000010014000140140001801404453313286
:1031500043383837205254430A00000010B500F0BD
:1031600001F810BD0CB500200190009033480068B4
:1031700040F480303149086000BF3048006800F4F6
:10318000003000900198401C0190009818B90198F7
:10319000B0F5A06FF1D12948006800F4003010B1FB
:1031A0000120009001E0002000900098012843D108
:1031B0002348006840F01000214908600846006874
:1031C00020F0030008600846006840F00200086034
:1031D0001A484068194948600846406848600846EF
:1031E000406840F4806048600846406820F47C10E5
:1031F00048600846406840F4E810486008460068A7
:1032000040F08070086000BF0C48006800F000705B
:103210000028F9D00948406820F0030007494860B9
:103220000846406840F00200486000BF034840681C
:1032300000F00C000828F9D10CBD0000001002407D
:103240000020024010B500F001F810BD10B519487B
:10325000006840B117480068401E1649086010B960
:10326000012015490870002408E004EB4401134ACA
:1032700002EB810000F09CFB601CC4B2042CF4DB68
:103280000F480068401C0E490860084600686FF04F
:103290000041884202D100200949086009480078AD
:1032A000401CC0B2074908700A2801DB00200870E2
:1032B00010BD00000400002008000020BC19002000
:1032C0000C0000202000002010B51348006840F0DA
:1032D00001001149086008464068104908400E493D
:1032E0004860084600680E4908400B4908600846D7
:1032F000006820F4802008600846406820F4FE0042
:1033000048604FF41F008860FFF728FF4FF000600F
:103310000449086010BD0000001002400000FFF8E2
:10332000FFFFF6FE08ED00E010B50221480700F0AF
:103330005BF858B10221480700F044F8002202214E
:10334000480700F062F81B4800688047042108071E
:1033500000F04AF858B10421080700F033F80022C1
:103360000421080700F051F813480068804708213D
:10337000C80600F039F858B10821C80600F022F854
:1033800000220821C80600F040F80C480068804779
:103390001021880600F028F858B11021880600F0A6
:1033A00011F800221021880600F02FF80448006868
:1033B000804710BD100000201400002018000020DD
:1033C0001C000020CA430282704721B1028842F0EB
:1033D0000102028004E002884FF6FE731A40028068
:1033E00070470146888C704730B5024600200023A4
:1033F0000024158A05EA0103958905EA010413B141
:103400000CB1012000E0002030BD1AB183890B43CC
:10341000838102E083898B43838170478186704773
:103420000187704781877047A0F8401070470000FF
:10343000002202881D4B98420ED01D4B98420BD0A3
:10344000B0F1804F08D01B4B984205D01A4B9842E0
:1034500002D01A4B984204D14FF68F731A404B8812
:103460001A43174B984207D0164B984204D04FF698
:10347000FF431A40CB881A4302808B8883850B88D0
:1034800003850A4B98420BD0094B984208D00E4B4B
:10349000984205D00D4B984202D00D4B984201D175
:1034A0000B7A03860123838270470000002C0140C1
:1034B000003401400004004000080040000C0040BF
:1034C0000010004000140040004001400044014052
:1034D0000048014010B5024800F0EDF810BD0000B2
:1034E0004401002010B5024800F0E5F810BD0000CE
:1034F0006C09002010B5024800F0DDF810BD000096
:103500009411002001F40072B2F5007F00D100BFD9
:10351000CA430280704721B1828942F400528281FD
:1035200004E082894DF6FF731A408281704770B5BE
:103530000246002400230025002040F66A16B1420E
:1035400000D100BFC1F3421501F01F03012606FAA6
:1035500003F3012D02D19689334006E0022D02D1FA
:10356000168A334001E0968A33400C12012606FA8F
:1035700004F41688344013B10CB1012000E000209F
:1035800070BDF0B50346002400260025002040F65B
:103590006A17B94200D100BF1846C1F3421401F0C6
:1035A0001F06012707FA06F5012C01D10C3004E0B3
:1035B000022C01D1103000E014301AB107682F43FB
:1035C000076002E00768AF430760F0BD2DE9F047F0
:1035D00086B005460E460024A24600BFA14600273D
:1035E000B08900B100BF2F462C8A4CF6FF70044012
:1035F000F08804432C82AC894EF6F3100440B08866
:1036000031890843718908430443AC81AC8A4FF681
:10361000FF400440B0890443AC8201A8FFF7C2FB1D
:103620001F48874202D1DDF810A001E0DDF80CA0B0
:10363000A88900F4004040B10AEBCA0000EB0A1070
:1036400031684900B0FBF1F807E00AEBCA0000EB73
:103650000A1031688900B0FBF1F86420B8FBF0F083
:1036600004012009642101FB1089A88900F40040AD
:1036700040B1322000EBC900B0FBF1F000F00700D0
:10368000044308E0322000EB09106421B0FBF1F0A4
:1036900000F00F0004432C8106B0BDE8F087000065
:1036A0000038014001468888C0F308007047C1F324
:1036B00008028280704770B5044640F225512068A8
:1036C000FFF735FFE0B12068FFF7ECFFC5B2E18AF4
:1036D000A0684554E08A401C80B2E082E1898842BB
:1036E00001DB0020E082608BE189884202DA608B96
:1036F000401C6083606A10B12846616A884700BF39
:1037000040F227712068FFF712FF08B3A08A60B962
:10371000002240F227712068FFF733FF012240F2B8
:1037200026612068FFF72DFF37E0638A6268D15C6D
:103730002068FFF7BCFF608A401C80B26082A189CC
:10374000884201DB00206082A08A401EA08224E023
:1037500040F226612068FFF7EAFEF0B1A08A50B976
:10376000002240F226612068FFF70BFF206AA0B11B
:10377000206A804711E0638A6268D15C2068FFF7A5
:1037800096FF608A401C80B26082A189884201DB7A
:1037900000206082A08A401EA08270BD214822497C
:1037A000086022484860224888604FF48060888121
:1037B000C881002008824882C882088348838882A2
:1037C000C861086248621B481B4908601B48486082
:1037D0001B4888604FF480608881C881002008827F
:1037E0004882C882088348838882C8610862486228
:1037F00014481549086015484860154888604FF41A
:1038000080608881C881002008824882C88208833D
:10381000488388820F48C8610F4808620F48486291
:103820007047000000380140440100206C01002076
:103830006C050020004400406C0900209409002021
:10384000940D00200048004094110020BC1100207D
:10385000BC150020B12E0008C12E0008A52E0008BE
:10386000490050EAC12018BF04204A0D18BF40F09B
:10387000010040F2FF72B2EB515F08BF40F002005E
:10388000012808BF0520704730380A2801D20120DE
:1038900070470020704700007FB501210846FFF700
:1038A00041FA1548006846081448B6FBF0F085B2A6
:1038B0004FF6FF74ADF80840ADF804500020ADF8A5
:1038C0000A00ADF8060001A94FF08040FFF7B0FDF7
:1038D00001218807FFF779FD1C208DF800000420E6
:1038E0008DF8010000208DF8020001208DF8030002
:1038F0006846FFF7C5F97FBD3800002040420F0041
:1039000070B5002416E0002004EB44011F4A02EBCE
:103910008101486004EB440102EB8101886004EB03
:10392000440102EB8101487004EB440102F82100DC
:10393000601CC4B2042CE6DB154800684FF47A72B0
:10394000B0FBF2F1481EB0F1807F00D31BE0481EAF
:103950004FF0E022506150170F22002804DB1307BC
:103960001D0E0C4B1D5406E013071E0E0A4B00F0F3
:103970000F052D1F5E5500BF00204FF0E022906123
:103980000720106100BFFFF787FF70BDBC19002042
:103990003800002000E400E018ED00E010B5FFF76B
:1039A000FDFEFEF7D5FCFFF767FAFEF763F910BDE1
:1039B000416851B14168491E416031B901214170EE
:1039C0000178012901D18168416070472DE9F041FA
:1039D00004460F461546052F00D37F1F4FF0804049
:1039E000FFF7FFFC804608EB0706012C0FD12548A6
:1039F0000560B1B2A007FFF711FD02214807FFF7EC
:103A0000E1FC012202214807FFF7FFFC38E0022C0D
:103A10000FD11D480560B1B26007FFF701FD042119
:103A20000807FFF7CFFC012204210807FFF7EDFC90
:103A300026E0032C10D115480560B1B24FF080404C
:103A4000FFF7F0FC0821C806FFF7BCFC01220821A3
:103A5000C806FFF7DAFC13E0042C0FD10C48056010
:103A6000B1B22007FFF7E0FC10218806FFF7AAFC9F
:103A7000012210218806FFF7C8FC01E0BDE8F081B3
:103A800000BFFBE7100000201400002018000020F9
:103A90001C00002010B5044600BFFA2000F00EF80C
:103AA000FA2000F00BF8FA2000F008F8FA2000F0F5
:103AB00005F8601E80B2041EEFD110BD00BF0621C4
:103AC00000E000BF0A1EA1F1010399B2F9D1421E24
:103AD00092B2101EF3D1704710B501212848FEF7AD
:103AE00023FC2849086002212548FEF71DFC2549D2
:103AF000486004212248FEF717FC2249886008210B
:103B00001F48FEF711FC1F49C86010211C48FEF732
:103B10000BFC1C49086120211948FEF705FC1949D6
:103B2000486140211648FEF7FFFB16498861802155
:103B30001348FEF7F9FB1349C86101211248FEF74B
:103B4000FCFB02211048FEF7F8FB04210E48FEF7AB
:103B5000F4FB08210C48FEF7F0FB10210A48FEF7A1
:103B6000ECFB20210848FEF7E8FB40210648FEF761
:103B7000E4FB80210448FEF7E0FB002010BD0000BC
:103B8000000C01400C1A00200010014010B54FF449
:103B900080610C48FEF7D1FB4FF400510948FEF755
:103BA000CCFB0948FEF7B8FB04464FF4005105482A
:103BB000FEF7C5FB4FF480610248FEF7C0FBE4B29C
:103BC000204610BD00100140000C014070B50446B5
:103BD0004FF480410D48FEF7B0FB4FF480510B4885
:103BE000FEF7ABFB0948FEF79BFB054644EA0501DF
:103BF0000648FEF7A6FB4FF480510448FEF79FFBF2
:103C00004FF480410148FEF79AFB70BD001001405F
:103C100070B504460D46E0B200F01AFA204670BDB9
:103C200008B5FF20ADF8000004208DF803006946B8
:103C30000848FEF79DFA4FF47050ADF800001020D0
:103C40008DF8030003208DF8020069460248FEF754
:103C50008FFA08BD000C01400010014070B5054608
:103C60004FF480611848FEF768FB4FF40061164876
:103C7000FEF763FB4FF480511348FEF760FB1348D7
:103C8000FEF74AFB0446E4B22C8000BF00BF4FF4AD
:103C900000610D48FEF753FB4FF480510A48FEF7D0
:103CA0004CFB0A48FEF738FB0446E4B24FF6FF70BF
:103CB00000EA04242888204328804FF480610248C9
:103CC000FEF73DFB70BD000000100140000C0140FC
:103CD000F8B506460D4614460A2C60D2DFE804F01B
:103CE000050E172029323B444D56012002232DA2F8
:103CF000294600903046FEF7A5FD50E00120022342
:103D000029A2294600903046FEF79CFD47E001209D
:103D1000022326A2294600903046FEF793FD3EE09E
:103D20000120022322A2294600903046FEF78AFD98
:103D300035E0012002231FA2294600903046FEF7FD
:103D400081FD2CE0012002231BA229460090304671
:103D5000FEF778FD23E00120022318A229460090F7
:103D60003046FEF76FFD1AE00120022314A2294617
:103D700000903046FEF766FD11E00120022311A2FB
:103D8000294600903046FEF75DFD08E00120022341
:103D90000DA2294600902846FEF754FD00BF00BF43
:103DA000F8BD0000300000003100000032000000CB
:103DB0003300000034000000350000003600000031
:103DC00037000000380000003900000008B5FFF798
:103DD00075F922E06846FFF741FFFFF7D7FE04467A
:103DE0000820FFF7F3FE2246BDF800100BA0FCF7F9
:103DF00005FAFEF71BFE00F0ADF8FFF76DFE09A017
:103E0000FCF7FCF90EA0FCF7F9F940F2DC50FFF7E3
:103E100041FE00F025F8FDF7D3FFDBE725642C25F4
:103E2000640000000D0A202A2A2A2A2A2A2A2A2A7D
:103E30002A2A2A2A2A2A2A2A2A2A2A2A0D0A000073
:103E40000D0A202A2A2A2A2ABDE1CAF8D2BBB4CEFA
:103E5000CAFDD7D6C1BF2A2A2A2A2A0D0A00000085
:103E6000F8B5012002232AA2002100900846FEF79F
:103E7000E9FC0120022328A2002100904020FEF747
:103E8000E1FC0120022326A2102100900020FEF771
:103E9000D9FC0120022324A2102100904020FEF72B
:103EA000D1FC0120022322A2202100900020FEF755
:103EB000C9FC0120022320A2202100904020FEF70F
:103EC000C1FC012002231EA2302100900020FEF739
:103ED000B9FC012002231CA2302100904020FEF7F3
:103EE000B1FC002600240FE000250AE0761C184BE8
:103EF00053F826202307190EAB07180EFFF7E8FE2C
:103F00006D1C022DF2DB641C042CEDDB0020F8BDDF
:103F1000615B305D3A000000615B315D3A0000009A
:103F2000615B325D3A000000615B335D3A00000086
:103F3000615B345D3A000000615B355D3A00000072
:103F4000615B365D3A000000615B375D3A0000005E
:103F50000C1A00202DE9F041002400F01BF80EE0BF
:103F60000A4800F023F80746384600F0F1F8054605
:103F70002A460B4606A0FCF741F9641C00BFB4F5C5
:103F8000C87FEDDB0020BDE8F08100000000484361
:103F900025660A0070B5049C016042608360C460BD
:103FA0000025056100268661C66170BD2DE9F047D8
:103FB00004462648046002465168106800F02CFA56
:103FC000224988600846C1684FF0804000F04EF9F1
:103FD00082461E488168504600F014FA81461B480C
:103FE0000169484600F0E0F880461848C16940463B
:103FF00000F03CF90646154A9168906900F036F9E0
:104000008146124AD168906800F006FA82460F484D
:104010004169504600F02AF98046494600F0C4F84C
:104020000746314600F0C0F8054608494868294669
:1040300000F0BAF8054948600846C06808610846BB
:104040008068C86008464068BDE8F087EC19002029
:1040500070B504464FF480411A48FEF76EF94FF4EC
:1040600000611848FEF769F900BF4FF40071154868
:10407000FEF75AF90028F8D14FF480711148FEF785
:104080005EF91048FEF74CF9054644EA05010D4873
:10409000FEF757F94FF480710A48FEF74EF900BF5A
:1040A00000BF4FF480710748FEF749F94FF4804193
:1040B0000448FEF744F94FF400610248FEF73FF967
:1040C00070BD00000010014008B540F2FF10ADF8CF
:1040D000000010208DF8030003208DF802006946CF
:1040E0000748FEF745F84FF40070ADF800000420D3
:1040F0008DF8030069460248FEF73AF808BD000053
:10410000001001400146002000E0401C11F8013B76
:10411000002BFAD17047000010B500290AD00878AA
:10412000002807D005487844FCF75AFF002801D042
:10413000002010BD0248784410BD000002190000A4
:10414000FA1800000808A0F500114FEA3101704785
:1041500043004FEAD30C4FEA3C0C43401FBF4007DB
:104160000CF1605113F0FE4F70471CF0006F03D14B
:1041700000200CF0004170470CF0004343EA5070FF
:1041800010B540EACC0000F0F2F800BF0000009249
:104190004FEA0001FFF7D6BF4FF000414FF000009B
:1041A000A1F500217047000090EA010F48BF81F09F
:1041B000004100F13881421A3CBF801A89184FEA49
:1041C000D0524FF07F4C1CEA410FA2EBD15318BFE5
:1041D0009CEA026F00F03B804FF0004C4CEA00205C
:1041E0004CEA012121FA03FC10EB0C0C1ED202F167
:1041F000FF325FEA1C2040EBC25038BF70471CF012
:104200007F0F4FEA400C18BFBCF17F4F38BF70479B
:10421000C3F12003994008BF20F00100BCF17F4F9B
:1042200038BF7047A0F1C04000F0E7B84FEA3C004B
:10423000000A40EBC25028BF1CF0FF0F4FEA400CB1
:10424000E6D018BFBCF17F4F38BF7047EAE79CEA61
:10425000026F05D010EA5C0F08BF00F00040704705
:1042600010B500F084F800BF64FBBE3E4FF47F0C35
:104270001CEAD0121EBF1CEAD11392EA0C0F93EA7B
:104280000C0F00F0478090EA010F48BF42F48072A3
:104290004FF0004C4CEA00204CEA012102EB0302F3
:1042A000A0FB0113A2F50002002918BF43F001038F
:1042B0005B0028BF4FEA330342EB22425FEA132C34
:1042C0004CEBC2502EBFBCEB436FB2F57C0F704776
:1042D0004FEA036CBCF1004F08BF20F00100B2F5BB
:1042E0007C0F38BF70470BD582F0FF0212F5803F7C
:1042F000C8BF704700F1C040D8BF00F00040704711
:1043000000F5000C5FEA4C0C48BF7047B0F1C040AC
:1043100000F073B890EA010F0CEAD11348BF42F4E1
:104320008072624538BF634504D280EA010000F024
:104330000040704710B500F01AF800BF8900013E38
:1043400000F007B800F009B85FEA410C5FEA1C6CA6
:1043500008D080EA010000F050B85FEA400C5FEA44
:104360001C6CF6D14FF00040A0F5800070470EF1B4
:10437000020E2EF0030E5EF8044B244204D44FEAE2
:104380004102B2F17F4F11D84FEA4003B3F17F4FA2
:104390000CD80ED14FEAD07CB2F17F4F0CEB4C0C15
:1043A0000CF1020C08BF4CEBD17C04E04FF0080C80
:1043B00001E04FEAD17C0CEB4C0324FA03F404F047
:1043C0000704B4F1040C06D20EEB840CBDE81040D7
:1043D0004CF0010C6047DFE80CF0070802024FF0D8
:1043E0000040A0F5800010BD0846420018BFD2F181
:1043F000807288BF00F0004010BDFF2141EAD0501C
:10440000C005704780F0004090EA010F7FF5D3AE01
:1044100081F0004100F007B890EA010F48BF81F039
:1044200000413FF5C8AE421A04D882F00042A0EB2A
:10443000020011444FEAD0524FF07F4C1CEA410F6A
:10444000A2EBD15318BF9CEA026F4AD04FF0004C48
:104450004CEA00204CEA012121FA03FCB0EB0C0CE1
:104460000FD412F0FE0F36D05FEA4C001DD50012BB
:1044700040EBC25038BF70471CF03F0F18BF704769
:104480000BE0A2F101025FEA1C2040EBC25038BFF2
:1044900070471CF07F0F18BF7047C3F1200399408D
:1044A00014BF401E20F00100704780084FEA12231D
:1044B00008BF7047B0FA80FCA2EB0C02CCF1280CCC
:1044C00060FA0CF093EA122F04BF00EBC250704761
:1044D0004FEAC3707047130A5FEADC1008BF7047E9
:1044E000F6E79CEA026F04D010EA5C0F08BF0020D8
:1044F000704710B5FFF73BFF40DFF63E81F000400C
:104500007047FCF7E2B800C1814001C0804101C0A2
:10451000804100C1814001C0804100C1814000C193
:10452000814001C0804101C0804100C1814000C183
:10453000814001C0804100C1814001C0804101C073
:10454000804100C1814001C0804100C1814000C163
:10455000814001C0804100C1814001C0804101C053
:10456000804100C1814000C1814001C0804101C043
:10457000804100C1814001C0804100C1814000C133
:10458000814001C0804101C0804100C1814000C123
:10459000814001C0804100C1814001C0804101C013
:1045A000804100C1814000C1814001C0804101C003
:1045B000804100C1814001C0804100C1814000C1F3
:1045C000814001C0804100C1814001C0804101C0E3
:1045D000804100C1814001C0804100C1814000C1D3
:1045E000814001C0804101C0804100C1814000C1C3
:1045F000814001C0804100C1814001C0804101C0B3
:10460000804100C1814000C0C101C30302C2C6068F
:1046100007C705C5C404CC0C0DCD0FCFCE0E0ACAFA
:10462000CB0BC90908C8D81819D91BDBDA1A1EDE4A
:10463000DF1FDD1D1CDC14D4D515D71716D6D212FA
:1046400013D311D1D010F03031F133F3F23236F60A
:10465000F737F53534F43CFCFD3DFF3F3EFEFA3ABA
:104660003BFB39F9F83828E8E929EB2B2AEAEE2E4A
:104670002FEF2DEDEC2CE42425E527E7E62622E2BA
:10468000E323E12120E0A06061A163A3A26266A60A
:10469000A767A56564A46CACAD6DAF6F6EAEAA6A7A
:1046A0006BAB69A9A86878B8B979BB7B7ABABE7ECA
:1046B0007FBF7DBDBC7CB47475B577B7B67672B27A
:1046C000B373B17170B0509091519353529296560A
:1046D0005797559594549C5C5D9D5F9F9E5E5A9A3A
:1046E0009B5B99595898884849894B8B8A4A4E8ECA
:1046F0008F4F8D4D4C8C448485458747468682423A
:104700004383418180400000000000000000002F32
:10471000000000000700070000147F147F1400242D
:104720002A7F2A120062640813230036495522505A
:1047300000000503000000001C224100000041228F
:104740001C000014083E08140008083E0808000079
:1047500000A0600000080808080800006060000071
:10476000002010080402003E5149453E0000427FEF
:104770004000004261514946002141454B3100183B
:1047800014127F10002745454539003C4A494930FD
:1047900000017109050300364949493600064949B7
:1047A000291E0000363600000000563600000008C2
:1047B000142241000014141414140000412214089F
:1047C00000020151090600324959513E007C121184
:1047D000127C007F49494936003E41414122007F19
:1047E0004141221C007F49494941007F09090901D3
:1047F000003E4149497A007F0808087F0000417F58
:104800004100002040413F01007F08142241007F09
:1048100040404040007F020C027F007F0408107F70
:10482000003E4141413E007F09090906003E4151D9
:10483000215E007F09192946004649494931000196
:10484000017F0101003F4040403F001F2040201FEA
:10485000003F4038403F00631408146300070870AD
:10486000080700615149454300007F414100005560
:104870002A552A55000041417F000004020102042C
:104880000040404040400000010204000020545419
:104890005478007F48444438003844444420003869
:1048A0004444487F00385454541800087E090102DB
:1048B0000018A4A4A47C007F080404780000447DB0
:1048C0004000004080847D00007F102844000000EC
:1048D000417F4000007C04180478007C08040478C0
:1048E00000384444443800FC2424241800182424AC
:1048F00018FC007C080404080048545454200004A8
:104900003F444020003C4040207C001C2040201CB4
:10491000003C4030403C004428102844001CA0A02B
:10492000A07C004464544C44141414141414A1E6E0
:10493000B9E2D5D5C7BFB6C8CEAAA3BACAAAB6C867
:10494000CEAAA3BACEC2B6C8CEAAA3BAB6FED1F535
:10495000BBAFCCBCC5A8B6C8CEAAA3BAB2E2BEE073
:10496000C0EBD6DCB3A4C3E6BBFDB6C8B8DFC6C295
:10497000C4B6D2C7CBD1CBF7CEC0D0C7B4F3D0A189
:10498000B2E9BCC7C2BCC9BEB3FDCFB5CDB3D6B5C5
:10499000C9E8B5A5BCDBB9ABC7EAD4AAD1AFC3BFE0
:1049A000B5E7B3D8D1B9BEADCEB3A1E3A94FD0CD51
:1049B000BAC5B0E6B1BECAA3D3E0BFD5BCE4B7B5B3
:1049C000BBD8CDCBB3F600000C120C00C0701008A1
:1049D0000808081030000000000000000F18302008
:1049E000202020301C000000000000002000FC847B
:1049F000A090988000000000404021190D03001F86
:104A000060404040603800000030C848F808C020CE
:104A100018A4E49C00000000203801020B10000FD5
:104A2000150403083000000000C04848380800386A
:104A300028E82898880000000023427E02202325D1
:104A4000251F151A31000000000000F090B0F0564C
:104A5000D82848000000000020100C4340402D13CF
:104A60001E22604040400000000000885840E05C8A
:104A7000404020E000000000000010080403000295
:104A80002660380700000000000080800000000061
:104A900000000000000000000000313100000000B4
:104AA00000000000000000000040080808F8A8A866
:104AB00058487C080000000000380620202C3D23C8
:104AC000213F242320200000000000F090B0F05689
:104AD000D82848000000000020100C4340402D134F
:104AE0001E22604040400000000000885840E05C0A
:104AF000404020E000000000000010080403000215
:104B000026603807000000000000808000000000E0
:104B10000000000000000000000031310000000033
:104B20000000000000000000004008180008F8A87D
:104B3000686874180000000000300E22203E221E1B
:104B4000122E221F12000000000000F090B0F0565C
:104B5000D82848000000000020100C4340402D13CE
:104B60001E22604040400000000000885840E05C89
:104B7000404020E000000000000010080403000294
:104B80002660380700000000000080800000000060
:104B900000000000000000000000313100000000B3
:104BA0000000000000000000000000002020201095
:104BB0001010100000000000001008080808080885
:104BC0000808080C0C08000000000050C856F43417
:104BD00024E020000000000000101014760F0909E6
:104BE000080F3020407000000080609C040000FC32
:104BF00080603000000000000100003F0404021F3C
:104C000010202020301C000000008060101000B038
:104C1000E09C909008000004040709050748462519
:104C2000100F142262404000008088184020A0F03D
:104C30001C10B0900000000000300C0804027F211E
:104C40001206191010000000000000F090B0F0569D
:104C5000D82848000000000020100C4340402D13CD
:104C60001E22604040400000000000885840E05C88
:104C7000404020E000000000000010080403000293
:104C8000266038070000000000008080000000005F
:104C900000000000000000000000313100000000B2
:104CA000000000000000001060028C00FE02F20212
:104CB000FE00F800FF000004047E018047300F1062
:104CC000270047807F0000003E22E2223E00FE22B5
:104CD00022222222E20200203F201F1111007F44E5
:104CE00044444444474000040404F484D4A5A6A4E6
:104CF000D484F40404040000FE0202123A161312D3
:104D00001A3242827E00000000FE82929292FE924F
:104D1000929282FE00000080601F00001E1212129C
:104D20001E40807F00000080808080FF8080A090F7
:104D30008884828080800000000000FF40211204EF
:104D4000081020204040000202E22222F22E2222FD
:104D5000E22222E20202000000FF40407F4949496E
:104D60007F4040FF000000202424A4FE232220FCDA
:104D700004040404FC000010080601FF010680631F
:104D80001901010933C0000000FC242424FC25265D
:104D900024FC242424040040308F80844C55252595
:104DA00025554C8080800004040404F49495969466
:104DB00094F4040404040000FE02027A4A4A4A4AB7
:104DC0004A7A0282FE00002020FF202000F8888816
:104DD00088FF8888A8180010301F0888601F80434B
:104DE0002C1028468180000808C848484849CE4809
:104DF000484848C80808000000FF444444447F4431
:104E0000444444FF000000008060F807001CE001FB
:104E10000600E01E000000010000FF00804020139B
:104E20000C132040808000101010FF109000FE91A5
:104E300080FF8092FE00000444827F010080824651
:104E40002A132A468280008060242424A4643F24FC
:104E500024A42424A0600000804829094D8D7B0BE8
:104E600009284C98000000000202020202FE020221
:104E7000020202FE0000004040404040407F4040AF
:104E800040414241404000000000BE2A2A2AEA2A4E
:104E90002A2A3E00000000004442494949497F490E
:104EA0004949494140000020202020202020FF20A7
:104EB0002020202020200080804020100C030003B0
:104EC0000C102040808000000000E0000000FF0087
:104ED00000002040800000080403000040807F00A4
:104EE00000000000010E00404424A4948C84FF8440
:104EF0008C94A4244440004040405F4A4A4A4A4AB5
:104F00004A4A5F40404000404042CC000000848458
:104F1000848484FC0000000000007F2010003F40DB
:104F200040404041407000808082929292929292E2
:104F30009292FE80808000404022241048807F04AE
:104F40000818242240400080FE8282FE80FE828279
:104F5000FE8000F800FF00403F0020BF403F40803F
:104F60007F00004F807F0000FE225A8620102824F8
:104F7000E324281020200000FF040827110D4181A0
:104F80007F010509310000000022322AA6A2622119
:104F900011098101000000004222130B42827E02AF
:104FA000020A12234600002030AC63300088C8A8F3
:104FB000998E88A8C8880022672212128040300F7C
:104FC00000003F40407100008060F80704E4A4A4A2
:104FD000BFA4A4E4040000010000FF40407F4A4A4F
:104FE0004A4A4A7F404000404042CC0040A09E8256
:104FF00082829EA02020000000003F908840432C29
:10500000102846418080000000F8494A4C48F84882
:105010004C4A49F800000010101312121212FF122D
:1050200012121213101000008060F8074020900C3C
:10503000030C9020404000010000FF0080601F0032
:105040000000FF00000000008040201806800007DC
:105050001820408000000001002070282621202018
:10506000243860000101000000FE20202000F21220
:105070001AD61212F2020000001F080402804F200C
:10508000180710204F80002020222222E222222214
:10509000E2222222202000804020100C0300000089
:1050A0003F404040407800404042CC0020D04C4B34
:1050B00048C80808F800000000007F20101F1212E6
:1050C000125F80403F000020100CF3121252921227
:1050D0001212F20202000001011F111111151951E3
:1050E00091513F111101000000F888888888FF88DD
:1050F000888888F800000000001F080808087F88DA
:105100008888889F80F000106002CC8080FC40205E
:10511000FF1008F800000004047E0100003F40403A
:105120004F4044474078000000FE0282828282FAAB
:105130008282828282020080601F40404040407F25
:10514000404044584040002030AC632018808242E8
:1051500022121A2642800022672212121240424274
:10516000427E42424240002030AC63201800084892
:1051700048FF484848080022672212121200020223
:1051800002FF0212221E0000000000000C12120C8E
:10519000000000000000000000000000000000000F
:1051A000000000000000000008F00808F00808F007
:1051B0000022312926000000000700000700000738
:1051C000000000000000002022A27E2222FE2222F7
:1051D000007C0000FF0000444249484848497E489E
:1051E0004848494A414000808080BEA2A2A2A2A2B3
:1051F000A2A2BE80808000000000060504040444D2
:1052000084443C0000000000FE20203F2000FC24DD
:10521000E4242223E20000807F0101FF80601F80E0
:10522000412618264180000010101010D030FF30A9
:10523000D010101010000010080402090808FF0820
:1052400008090204081000484AFA0AFE09F949A8A8
:105250000000F00000FF0022110B04FF04091223DC
:1052600000000F40807F0080804020504844C344AD
:10527000485020408080000040221A0242827F0273
:1052800002020A12600000100C44241404050604F3
:1052900004142444140C00004040414141417F412A
:1052A0004141414040000000F8010600F012121296
:1052B000F2020202FE000000FF0000001F111111A7
:1052C0001F0040807F0000404042CC0000FC24A42E
:1052D000242222A36200000040201F20584750488B
:1052E000454245485040000000FE0202F2121212F0
:1052F000F20202FE00000000007F20202724242468
:105300002720207F000000404042CC0000FF494998
:10531000C949497F8000000040201F20405F484469
:105320004041424558400000007C40404040FF4022
:10533000404040FC000000007C40404040407F4036
:1053400040404040FC000000000000000000000061
:1053500000000000000000000000F8000000000055
:105360000000333000000000100C06100C06000096
:105370000000000000000040C07840C078400004F9
:105380003F04043F040400007088FC083000000063
:105390001820FF211E0000F008F000E018000000B7
:1053A000211C031E211E0000F00888700000001E52
:1053B0002123241927211010160E000000000000E0
:1053C00000000000000000000000E01804020000DF
:1053D0000000071820400000020418E00000000050
:1053E00040201807000000404080F080404000024C
:1053F00002010F01020200000000F00000000001A5
:1054000001011F01010100000000000000000080F8
:10541000B07000000000000000000000000000006C
:105420000101010101010100000000000000000075
:105430003030000000000000000000806018040010
:105440006018060100000000E010080810E00000ED
:105450000F102020100F00001010F80000000000B6
:1054600020203F20200000007008080888700000FD
:10547000302824222130000030088888483000007D
:1054800018202020110E000000C02010F80000009D
:10549000070424243F240000F80888880808000036
:1054A00019212020110E0000E0108888180000004B
:1054B0000F112020110E0000380808C8380800001D
:1054C00000003F000000000070880808887000009D
:1054D0001C222121221C0000E010080810E000001E
:1054E00000312222110F00000000C0C000000000A7
:1054F00000003030000000000000800000000000CC
:1055000000806000000000000080402010080000C3
:105510000102040810200040404040404040000488
:10552000040404040404000008102040800000006B
:1055300020100804020100007048080808F000006C
:1055400000003036010000C030C828E810E0000735
:1055500018272423140B000000C038E000000020AE
:105560003C23020227382008F88888887000002031
:105570003F202020110E00C030080808083800071E
:105580001820202010080008F808080810E0002063
:105590003F202020100F0008F88888E8081000201D
:1055A0003F20202320180008F88888E808100020F1
:1055B0003F200003000000C0300808083800000742
:1055C000182020221E020008F808000008F8082011
:1055D0003F210101213F20000808F80808000000D1
:1055E00020203F2020000000000808F8080800C024
:1055F0008080807F00000008F888C02818080020FC
:105600003F20012638200008F80800000000002094
:105610003F20202020300008F8F800F8F80800208B
:105620003F003F003F200008F830C00008F8082085
:105630003F200007183F00E01008080810E0000FA6
:1056400010202020100F0008F808080808F000209B
:105650003F210101010000E01008080810E0000FE0
:1056600018242438504F0008F88888888870002053
:105670003F2000030C302000708808080838000024
:1056800038202121221C00180808F80808180000FA
:1056900000203F2000000008F808000008F808007B
:1056A0001F202020201F000878880000C83808002C
:1056B0000007380E010000F80800F80008F80003A1
:1056C0003C0700073C030008186880806818082021
:1056D000302C03032C30200838C800C838080000DC
:1056E00000203F2000000010080808C838080020EB
:1056F00038262120201800000000FE0202020000CF
:1057000000007F40404000000C30C000000000005E
:105710000000010638C00000020202FE0000000086
:105720004040407F0000000000040202020400002C
:1057300000000000000000000000000000000080E9
:1057400080808080808080000202040000000000D1
:105750000000000000000000008080808000000049
:1057600019242222223F2008F80080800000000037
:105770003F112020110E00000000808080000000FA
:105780000E112020201100000000808088F8000009
:105790000E112020103F200000808080800000003B
:1057A0001F222222221300008080F088888818009F
:1057B00020203F20200000000080808080800000AA
:1057C0006B94949493600008F8008080800000201F
:1057D0003F210000203F200080989800000000003A
:1057E00020203F202000000000008098980000004A
:1057F000C08080807F000008F8000080808000204A
:105800003F24022D302000000808F80000000000AE
:1058100020203F2020000080808080808080002029
:105820003F20003F20003F808000808080000020DB
:105830003F210000203F2000008080808000000089
:105840001F202020201F008080008080000000801A
:10585000FFA12020110E0000000080808080000049
:105860000E112020A0FF808080800080808000209A
:10587000203F212000010000008080808080000007
:1058800033242424241900008080E080800000005C
:1058900000001F20200000808000000080800000A9
:1058A0001F202020103F208080800000808080000A
:1058B000010E300806010080800080008080800F8B
:1058C000300C030C300F00008080008080800000CE
:1058D00020312E0E3120008080800000808080806A
:1058E000818E70180601000080808080808000001A
:1058F00021302C2221300000000000807C020200B8
:10590000000000003F404000000000FF00000000D9
:10591000000000FF0000000002027C800000000088
:1059200040403F00000000000601010202040400A4
:1059300000000000000000000080C0E0F0F8FCF86B
:10594000F0E0C0800000000000000103070F1F0FFF
:105950000703010000000004000008000000000030
:10596000000002000100001002400000000000A042
:105970000000000005400000000000C8000000001A
:105980000C4000000000409C000000001940000096
:105990000020BCBE0000000034400000BFC91B8EC8
:1059A00000000004B5400000504BCFD06607E2CFA6
:1059B000010000006C4100003E8251AADFEEA734D6
:1059C00001000000D9420000DCB5A0E23A301F9788
:1059D000FFFFFFFFB4450000FD25A0C8E9A3C14FAC
:1059E000FFFFFFFFFF3F00000000008000000000FD
:1059F000FF3F000000000080000000003A747400C7
:105A00003A7474003A747400445A0008000000208C
:105A100058000000280100089C5A00085800002087
:105A200030210000440100081C0000004300000079
:105A3000F8FFFFFF0C0000000E0000000F00000048
:105A40002E00000000000000000000000000000028
:105A50000000000000000000000000000000000046
:105A60000000000000000000000102030401020326
:105A700004060708090204060800000000A24A0400
:105A800000000000000000000102030406070809EE
:0C5A90000000000000000000000000000A
:04000005080000ED02
:00000001FF
